{
  "contractName": "AveragePriceAuction",
  "abi": [
    {
      "anonymous": false,
      "inputs": [
        {
          "indexed": false,
          "internalType": "uint256",
          "name": "Auction_id",
          "type": "uint256"
        },
        {
          "indexed": false,
          "internalType": "address",
          "name": "highestBidder",
          "type": "address"
        },
        {
          "indexed": false,
          "internalType": "uint256",
          "name": "highestBid",
          "type": "uint256"
        }
      ],
      "name": "AuctionEnded",
      "type": "event"
    },
    {
      "anonymous": false,
      "inputs": [
        {
          "indexed": false,
          "internalType": "uint256",
          "name": "Auction_id",
          "type": "uint256"
        },
        {
          "indexed": false,
          "internalType": "string",
          "name": "item_name",
          "type": "string"
        },
        {
          "indexed": false,
          "internalType": "string",
          "name": "item_description",
          "type": "string"
        }
      ],
      "name": "AuctionStarted",
      "type": "event"
    },
    {
      "anonymous": false,
      "inputs": [
        {
          "indexed": false,
          "internalType": "uint256",
          "name": "auction_id",
          "type": "uint256"
        },
        {
          "indexed": false,
          "internalType": "address",
          "name": "bidder",
          "type": "address"
        },
        {
          "indexed": false,
          "internalType": "uint256",
          "name": "balance",
          "type": "uint256"
        }
      ],
      "name": "BalanceRefunded",
      "type": "event"
    },
    {
      "anonymous": false,
      "inputs": [
        {
          "indexed": false,
          "internalType": "address",
          "name": "bidder",
          "type": "address"
        }
      ],
      "name": "BidMade",
      "type": "event"
    },
    {
      "anonymous": false,
      "inputs": [
        {
          "indexed": false,
          "internalType": "uint256",
          "name": "Auction_id",
          "type": "uint256"
        },
        {
          "indexed": false,
          "internalType": "address",
          "name": "bidder",
          "type": "address"
        }
      ],
      "name": "BidRevealFailed",
      "type": "event"
    },
    {
      "anonymous": false,
      "inputs": [
        {
          "indexed": false,
          "internalType": "uint256",
          "name": "Auction_id",
          "type": "uint256"
        },
        {
          "indexed": false,
          "internalType": "address",
          "name": "bidder",
          "type": "address"
        }
      ],
      "name": "BidRevealed",
      "type": "event"
    },
    {
      "anonymous": false,
      "inputs": [
        {
          "indexed": false,
          "internalType": "uint256",
          "name": "auction_id",
          "type": "uint256"
        },
        {
          "indexed": false,
          "internalType": "address",
          "name": "bidder",
          "type": "address"
        },
        {
          "indexed": false,
          "internalType": "uint256",
          "name": "bid_value",
          "type": "uint256"
        }
      ],
      "name": "BidderRefunded",
      "type": "event"
    },
    {
      "anonymous": false,
      "inputs": [
        {
          "indexed": false,
          "internalType": "uint256",
          "name": "Auction_id",
          "type": "uint256"
        }
      ],
      "name": "BiddingPeriodEnded",
      "type": "event"
    },
    {
      "anonymous": false,
      "inputs": [
        {
          "indexed": false,
          "internalType": "uint256",
          "name": "Auction_id",
          "type": "uint256"
        },
        {
          "indexed": false,
          "internalType": "uint256",
          "name": "bidding_end",
          "type": "uint256"
        }
      ],
      "name": "BiddingStarted",
      "type": "event"
    },
    {
      "anonymous": false,
      "inputs": [
        {
          "indexed": false,
          "internalType": "uint256",
          "name": "auction_id",
          "type": "uint256"
        },
        {
          "indexed": false,
          "internalType": "address",
          "name": "bidder",
          "type": "address"
        }
      ],
      "name": "DepositNotEnough",
      "type": "event"
    },
    {
      "anonymous": false,
      "inputs": [
        {
          "indexed": false,
          "internalType": "uint256",
          "name": "auction_id",
          "type": "uint256"
        }
      ],
      "name": "ItemUnsold",
      "type": "event"
    },
    {
      "anonymous": false,
      "inputs": [
        {
          "indexed": false,
          "internalType": "uint256",
          "name": "auction_id",
          "type": "uint256"
        },
        {
          "indexed": false,
          "internalType": "address",
          "name": "bidder",
          "type": "address"
        },
        {
          "indexed": false,
          "internalType": "uint256",
          "name": "bid_value",
          "type": "uint256"
        }
      ],
      "name": "NewHighestBid",
      "type": "event"
    },
    {
      "anonymous": false,
      "inputs": [
        {
          "indexed": false,
          "internalType": "uint256",
          "name": "Auction_id",
          "type": "uint256"
        }
      ],
      "name": "RevealPeriodEnded",
      "type": "event"
    },
    {
      "anonymous": false,
      "inputs": [
        {
          "indexed": false,
          "internalType": "uint256",
          "name": "Auction_id",
          "type": "uint256"
        },
        {
          "indexed": false,
          "internalType": "uint256",
          "name": "reveal_end",
          "type": "uint256"
        }
      ],
      "name": "RevealPeriodStarted",
      "type": "event"
    },
    {
      "anonymous": false,
      "inputs": [
        {
          "indexed": false,
          "internalType": "uint256",
          "name": "Auction_id",
          "type": "uint256"
        },
        {
          "indexed": false,
          "internalType": "address",
          "name": "winner",
          "type": "address"
        },
        {
          "indexed": false,
          "internalType": "string",
          "name": "pubkey",
          "type": "string"
        },
        {
          "indexed": false,
          "internalType": "uint256",
          "name": "winning_bid",
          "type": "uint256"
        }
      ],
      "name": "WinnerChosen",
      "type": "event"
    },
    {
      "anonymous": false,
      "inputs": [
        {
          "indexed": false,
          "internalType": "uint256",
          "name": "auction_id",
          "type": "uint256"
        }
      ],
      "name": "deliveryComplete",
      "type": "event"
    },
    {
      "anonymous": false,
      "inputs": [
        {
          "indexed": false,
          "internalType": "uint256",
          "name": "auction_id",
          "type": "uint256"
        },
        {
          "indexed": false,
          "internalType": "string",
          "name": "H",
          "type": "string"
        }
      ],
      "name": "encryptedKey",
      "type": "event"
    },
    {
      "constant": true,
      "inputs": [
        {
          "internalType": "address",
          "name": "account",
          "type": "address"
        }
      ],
      "name": "getAccountBalance",
      "outputs": [
        {
          "internalType": "uint256",
          "name": "accountBalance",
          "type": "uint256"
        }
      ],
      "payable": false,
      "stateMutability": "view",
      "type": "function"
    },
    {
      "constant": false,
      "inputs": [
        {
          "internalType": "string",
          "name": "item_name",
          "type": "string"
        },
        {
          "internalType": "string",
          "name": "item_description",
          "type": "string"
        },
        {
          "internalType": "uint256",
          "name": "bidding_time",
          "type": "uint256"
        },
        {
          "internalType": "uint256",
          "name": "reveal_time",
          "type": "uint256"
        }
      ],
      "name": "auctionItem",
      "outputs": [],
      "payable": true,
      "stateMutability": "payable",
      "type": "function"
    },
    {
      "constant": true,
      "inputs": [],
      "name": "getactiveauctions",
      "outputs": [
        {
          "components": [
            {
              "internalType": "uint256",
              "name": "auction_id",
              "type": "uint256"
            },
            {
              "internalType": "address payable",
              "name": "beneficiary",
              "type": "address"
            },
            {
              "internalType": "uint256",
              "name": "biddingEnd",
              "type": "uint256"
            },
            {
              "internalType": "uint256",
              "name": "revealEnd",
              "type": "uint256"
            },
            {
              "internalType": "bool",
              "name": "ended",
              "type": "bool"
            },
            {
              "internalType": "string",
              "name": "item_name",
              "type": "string"
            },
            {
              "internalType": "string",
              "name": "item_description",
              "type": "string"
            },
            {
              "internalType": "bool",
              "name": "bidplaced",
              "type": "bool"
            },
            {
              "internalType": "bool",
              "name": "revealed",
              "type": "bool"
            }
          ],
          "internalType": "struct AveragePriceAuction.auction_active_listings[]",
          "name": "",
          "type": "tuple[]"
        }
      ],
      "payable": false,
      "stateMutability": "view",
      "type": "function"
    },
    {
      "constant": true,
      "inputs": [],
      "name": "getallauctions",
      "outputs": [
        {
          "components": [
            {
              "internalType": "uint256",
              "name": "auction_id",
              "type": "uint256"
            },
            {
              "internalType": "address payable",
              "name": "beneficiary",
              "type": "address"
            },
            {
              "internalType": "address payable",
              "name": "winner",
              "type": "address"
            },
            {
              "internalType": "uint256",
              "name": "biddingEnd",
              "type": "uint256"
            },
            {
              "internalType": "uint256",
              "name": "revealEnd",
              "type": "uint256"
            },
            {
              "internalType": "bool",
              "name": "ended",
              "type": "bool"
            },
            {
              "internalType": "bool",
              "name": "sold",
              "type": "bool"
            },
            {
              "internalType": "string",
              "name": "item_name",
              "type": "string"
            },
            {
              "internalType": "string",
              "name": "item_description",
              "type": "string"
            },
            {
              "internalType": "bool",
              "name": "bidplaced",
              "type": "bool"
            },
            {
              "internalType": "bool",
              "name": "revealed",
              "type": "bool"
            },
            {
              "internalType": "uint256",
              "name": "finalBid",
              "type": "uint256"
            },
            {
              "internalType": "string",
              "name": "pubkey",
              "type": "string"
            },
            {
              "internalType": "string",
              "name": "H",
              "type": "string"
            }
          ],
          "internalType": "struct AveragePriceAuction.auction_all_listings[]",
          "name": "",
          "type": "tuple[]"
        }
      ],
      "payable": false,
      "stateMutability": "view",
      "type": "function"
    },
    {
      "constant": false,
      "inputs": [
        {
          "internalType": "bytes32",
          "name": "blindedBid",
          "type": "bytes32"
        },
        {
          "internalType": "uint256",
          "name": "auction_id",
          "type": "uint256"
        },
        {
          "internalType": "string",
          "name": "pubkey",
          "type": "string"
        }
      ],
      "name": "bid",
      "outputs": [],
      "payable": true,
      "stateMutability": "payable",
      "type": "function"
    },
    {
      "constant": false,
      "inputs": [
        {
          "internalType": "uint256",
          "name": "value",
          "type": "uint256"
        },
        {
          "internalType": "string",
          "name": "secret",
          "type": "string"
        },
        {
          "internalType": "uint256",
          "name": "auction_id",
          "type": "uint256"
        }
      ],
      "name": "reveal",
      "outputs": [],
      "payable": true,
      "stateMutability": "payable",
      "type": "function"
    },
    {
      "constant": false,
      "inputs": [
        {
          "internalType": "uint256",
          "name": "auction_id",
          "type": "uint256"
        }
      ],
      "name": "auctionEnd",
      "outputs": [],
      "payable": false,
      "stateMutability": "nonpayable",
      "type": "function"
    },
    {
      "constant": false,
      "inputs": [
        {
          "internalType": "uint256",
          "name": "auction_id",
          "type": "uint256"
        },
        {
          "internalType": "string",
          "name": "H",
          "type": "string"
        }
      ],
      "name": "sellItem",
      "outputs": [],
      "payable": true,
      "stateMutability": "payable",
      "type": "function"
    },
    {
      "constant": false,
      "inputs": [
        {
          "internalType": "uint256",
          "name": "auction_id",
          "type": "uint256"
        }
      ],
      "name": "confirmDelivery",
      "outputs": [],
      "payable": true,
      "stateMutability": "payable",
      "type": "function"
    }
  ],
  "bytecode": "0x60806040526000600155600060025534801561001a57600080fd5b5061387b8061002a6000396000f3fe6080604052600436106100865760003560e01c806393423e9c1161005957806393423e9c1461011757806396a18f8014610154578063b5e360371461017f578063e701cfc21461019b578063fd84cb97146101b757610086565b80630754aebb1461008b57806332246e9f146100b65780634f3ae594146100df57806384febc4b146100fb575b600080fd5b34801561009757600080fd5b506100a06101d3565b6040516100ad9190613365565b60405180910390f35b3480156100c257600080fd5b506100dd60048036036100d89190810190612a5c565b610752565b005b6100f960048036036100f49190810190612add565b610ddf565b005b61011560048036036101109190810190612a85565b611276565b005b34801561012357600080fd5b5061013e6004803603610139919081019061292c565b61148b565b60405161014b91906134e7565b60405180910390f35b34801561016057600080fd5b506101696114ac565b6040516101769190613343565b60405180910390f35b61019960048036036101949190810190612955565b6117ef565b005b6101b560048036036101b091908101906129c1565b611b5e565b005b6101d160048036036101cc9190810190612a5c565b611f0b565b005b60608060015460405190808252806020026020018201604052801561021257816020015b6101ff6125a6565b8152602001906001900390816101f75790505b50905060008090505b60015481101561074a57600080600083815260200190815260200160002090506060604051806020016040528060008152509050600073ffffffffffffffffffffffffffffffffffffffff1682600b0160009054906101000a900473ffffffffffffffffffffffffffffffffffffffff1673ffffffffffffffffffffffffffffffffffffffff16146103a85781601301600083600b0160009054906101000a900473ffffffffffffffffffffffffffffffffffffffff1673ffffffffffffffffffffffffffffffffffffffff1673ffffffffffffffffffffffffffffffffffffffff1681526020019081526020016000208054600181600116156101000203166002900480601f0160208091040260200160405190810160405280929190818152602001828054600181600116156101000203166002900480156103a05780601f10610375576101008083540402835291602001916103a0565b820191906000526020600020905b81548152906001019060200180831161038357829003601f168201915b505050505090505b604051806101c00160405280836000015481526020018360010160009054906101000a900473ffffffffffffffffffffffffffffffffffffffff1673ffffffffffffffffffffffffffffffffffffffff16815260200183600b0160009054906101000a900473ffffffffffffffffffffffffffffffffffffffff1673ffffffffffffffffffffffffffffffffffffffff16815260200183600201548152602001836003015481526020018360040160009054906101000a900460ff16151581526020018360070160009054906101000a900460ff1615158152602001836005018054600181600116156101000203166002900480601f01602080910402602001604051908101604052809291908181526020018280546001816001161561010002031660029004801561051c5780601f106104f15761010080835404028352916020019161051c565b820191906000526020600020905b8154815290600101906020018083116104ff57829003601f168201915b50505050508152602001836006018054600181600116156101000203166002900480601f0160208091040260200160405190810160405280929190818152602001828054600181600116156101000203166002900480156105be5780601f10610593576101008083540402835291602001916105be565b820191906000526020600020905b8154815290600101906020018083116105a157829003601f168201915b505050505081526020018360110160003373ffffffffffffffffffffffffffffffffffffffff1673ffffffffffffffffffffffffffffffffffffffff16815260200190815260200160002060009054906101000a900460ff16151581526020018360120160003373ffffffffffffffffffffffffffffffffffffffff1673ffffffffffffffffffffffffffffffffffffffff16815260200190815260200160002060009054906101000a900460ff161515815260200183600c0154815260200182815260200183600d018054600181600116156101000203166002900480601f01602080910402602001604051908101604052809291908181526020018280546001816001161561010002031660029004801561071c5780601f106106f15761010080835404028352916020019161071c565b820191906000526020600020905b8154815290600101906020018083116106ff57829003601f168201915b505050505081525084848151811061073057fe5b60200260200101819052505050808060010191505061021b565b508091505090565b806001548110610797576040517f08c379a000000000000000000000000000000000000000000000000000000000815260040161078e906133e7565b60405180910390fd5b600080838152602001908152602001600020600301548042116107ef576040517f08c379a00000000000000000000000000000000000000000000000000000000081526004016107e690613487565b60405180910390fd5b823373ffffffffffffffffffffffffffffffffffffffff1660008083815260200190815260200160002060010160009054906101000a900473ffffffffffffffffffffffffffffffffffffffff1673ffffffffffffffffffffffffffffffffffffffff1614610893576040517f08c379a000000000000000000000000000000000000000000000000000000000815260040161088a90613407565b60405180910390fd5b836000151560008083815260200190815260200160002060040160009054906101000a900460ff161515146108fd576040517f08c379a00000000000000000000000000000000000000000000000000000000081526004016108f4906133c7565b60405180910390fd5b6000806000878152602001908152602001600020600901541415610996577ff656db5d7eec16959704ab1442c4686390e8bdca6e2fd99d193f6871512359ea8560405161094a91906134e7565b60405180910390a1600160008087815260200190815260200160002060040160006101000a81548160ff0219169083151502179055506001600260008282540392505081905550610dd8565b600069152d02c7e14af680000090506000809050600080905060008090505b6000808a815260200190815260200160002060090154811015610ae95760008060008b8152602001908152602001600020600e01600083815260200190815260200160002060009054906101000a900473ffffffffffffffffffffffffffffffffffffffff169050600060026000808d815260200190815260200160002060100160008473ffffffffffffffffffffffffffffffffffffffff1673ffffffffffffffffffffffffffffffffffffffff1681526020019081526020016000205481610a7b57fe5b04905060008060008d81526020019081526020016000206009015482026000808e8152602001908152602001600020600801540390506000811215610ac35780600003610ac5565b805b905086811215610ad9578096508295508194505b50505080806001019150506109b5565b5060008060008a815260200190815260200160002060100160008473ffffffffffffffffffffffffffffffffffffffff1673ffffffffffffffffffffffffffffffffffffffff1681526020019081526020016000208190555060016000808a815260200190815260200160002060040160006101000a81548160ff021916908315150217905550816000808a8152602001908152602001600020600b0160006101000a81548173ffffffffffffffffffffffffffffffffffffffff021916908373ffffffffffffffffffffffffffffffffffffffff160217905550806000808a8152602001908152602001600020600c0181905550600160026000828254039250508190555060008090505b6000808a8152602001908152602001600020600a0180549050811015610d27576000808a8152602001908152602001600020600b0160009054906101000a900473ffffffffffffffffffffffffffffffffffffffff1673ffffffffffffffffffffffffffffffffffffffff166000808b8152602001908152602001600020600a018281548110610c8157fe5b9060005260206000200160009054906101000a900473ffffffffffffffffffffffffffffffffffffffff1673ffffffffffffffffffffffffffffffffffffffff1614610d1c57610d1b896000808c8152602001908152602001600020600a018381548110610ceb57fe5b9060005260206000200160009054906101000a900473ffffffffffffffffffffffffffffffffffffffff16612272565b5b806001019050610bf5565b5060008060008a815260200190815260200160002060130160008473ffffffffffffffffffffffffffffffffffffffff1673ffffffffffffffffffffffffffffffffffffffff16815260200190815260200160002090506000808a8152602001908152602001600020600c015491507f9fa608827c3c4a8327a334f831d3ac579446f5314638ac0108bbaa17441e16a489848385604051610dcb949392919061352b565b60405180910390a1505050505b5050505050565b60008082815260200190815260200160002060020154804211610e37576040517f08c379a0000000000000000000000000000000000000000000000000000000008152600401610e2e90613487565b60405180910390fd5b60008083815260200190815260200160002060030154804210610e8f576040517f08c379a0000000000000000000000000000000000000000000000000000000008152600401610e8690613427565b60405180910390fd5b826001151560008083815260200190815260200160002060110160003373ffffffffffffffffffffffffffffffffffffffff1673ffffffffffffffffffffffffffffffffffffffff16815260200190815260200160002060009054906101000a900460ff16151514610f36576040517f08c379a0000000000000000000000000000000000000000000000000000000008152600401610f2d90613447565b60405180910390fd5b836001548110610f7b576040517f08c379a0000000000000000000000000000000000000000000000000000000008152600401610f72906133e7565b60405180910390fd5b600080905060008090506000806000898152602001908152602001600020600f0160003373ffffffffffffffffffffffffffffffffffffffff1673ffffffffffffffffffffffffffffffffffffffff16815260200190815260200160002090508a8a8a604051602001610ff0939291906135ae565b6040516020818303038152906040528051906020012081600001541461104e577fad8c260aa7a48094cdeb8c07f33bcf4e3bb56893286c330706ca376c728e9f3e8833604051611041929190613502565b60405180910390a1611269565b6000801b8160000181905550600080898152602001908152602001600020600a013390806001815401808255809150509060018203906000526020600020016000909192909190916101000a81548173ffffffffffffffffffffffffffffffffffffffff021916908373ffffffffffffffffffffffffffffffffffffffff1602179055505060016000808a815260200190815260200160002060120160003373ffffffffffffffffffffffffffffffffffffffff1673ffffffffffffffffffffffffffffffffffffffff16815260200190815260200160002060006101000a81548160ff0219169083151502179055508060010154830192508a6002028160010154106111ac5761116088338d612475565b1561116e578a600202830392505b7fcb1784faad642d48c787676118783766577faa10d9c69eb1fbb40c3baaac87d1883360405161119f929190613502565b60405180910390a16111e6565b7f2aef0deb49f8c134c725c0d4075973ab3c581f0d16cce112ab4ed4b26b9ddaa388336040516111dd929190613502565b60405180910390a15b7f0ce627ddf6b4fdb8de00ae62e2f2b8dee6a4226b75fccd3d6692329c8e0d2c1c88338560405161121993929190613577565b60405180910390a13373ffffffffffffffffffffffffffffffffffffffff166108fc849081150290604051600060405180830381858888f19350505050158015611267573d6000803e3d6000fd5b505b5050505050505050505050565b8260015481106112bb576040517f08c379a00000000000000000000000000000000000000000000000000000000081526004016112b2906133e7565b60405180910390fd5b836001151560008083815260200190815260200160002060040160009054906101000a900460ff16151514611325576040517f08c379a000000000000000000000000000000000000000000000000000000000815260040161131c906133a7565b60405180910390fd5b843373ffffffffffffffffffffffffffffffffffffffff1660008083815260200190815260200160002060010160009054906101000a900473ffffffffffffffffffffffffffffffffffffffff1673ffffffffffffffffffffffffffffffffffffffff16146113c9576040517f08c379a00000000000000000000000000000000000000000000000000000000081526004016113c090613407565b60405180910390fd5b600080878152602001908152602001600020600c01546002023414611423576040517f08c379a000000000000000000000000000000000000000000000000000000000815260040161141a90613387565b60405180910390fd5b8484600080898152602001908152602001600020600d019190611447929190612649565b507f45bd963234a41bc8d75b2e2caf57f0987f5d405e1d4bbf09b919faeff927937c86868660405161147b939291906135ae565b60405180910390a1505050505050565b60008173ffffffffffffffffffffffffffffffffffffffff16319050919050565b6060600080905060606002546040519080825280602002602001820160405280156114f157816020015b6114de6126c9565b8152602001906001900390816114d65790505b50905060008090505b6001548110156117e6576000151560008083815260200190815260200160002060040160009054906101000a900460ff16151514156117d95760008060008381526020019081526020016000209050604051806101200160405280826000015481526020018260010160009054906101000a900473ffffffffffffffffffffffffffffffffffffffff1673ffffffffffffffffffffffffffffffffffffffff16815260200182600201548152602001826003015481526020018260040160009054906101000a900460ff1615158152602001826005018054600181600116156101000203166002900480601f0160208091040260200160405190810160405280929190818152602001828054600181600116156101000203166002900480156116645780601f1061163957610100808354040283529160200191611664565b820191906000526020600020905b81548152906001019060200180831161164757829003601f168201915b50505050508152602001826006018054600181600116156101000203166002900480601f0160208091040260200160405190810160405280929190818152602001828054600181600116156101000203166002900480156117065780601f106116db57610100808354040283529160200191611706565b820191906000526020600020905b8154815290600101906020018083116116e957829003601f168201915b505050505081526020018260110160003373ffffffffffffffffffffffffffffffffffffffff1673ffffffffffffffffffffffffffffffffffffffff16815260200190815260200160002060009054906101000a900460ff16151581526020018260120160003373ffffffffffffffffffffffffffffffffffffffff1673ffffffffffffffffffffffffffffffffffffffff16815260200190815260200160002060009054906101000a900460ff1615158152508385815181106117c657fe5b6020026020010181905250600184019350505b80806001019150506114fa565b50809250505090565b826001548110611834576040517f08c379a000000000000000000000000000000000000000000000000000000000815260040161182b906133e7565b60405180910390fd5b6000808581526020019081526020016000206002015480421061188c576040517f08c379a000000000000000000000000000000000000000000000000000000000815260040161188390613427565b60405180910390fd5b8460008082815260200190815260200160002060010160009054906101000a900473ffffffffffffffffffffffffffffffffffffffff1673ffffffffffffffffffffffffffffffffffffffff163373ffffffffffffffffffffffffffffffffffffffff161415611931576040517f08c379a0000000000000000000000000000000000000000000000000000000008152600401611928906134a7565b60405180910390fd5b8560008082815260200190815260200160002060110160003373ffffffffffffffffffffffffffffffffffffffff1673ffffffffffffffffffffffffffffffffffffffff16815260200190815260200160002060009054906101000a900460ff16156119d2576040517f08c379a00000000000000000000000000000000000000000000000000000000081526004016119c9906134c7565b60405180910390fd5b604051806040016040528089815260200134815250600080898152602001908152602001600020600f0160003373ffffffffffffffffffffffffffffffffffffffff1673ffffffffffffffffffffffffffffffffffffffff1681526020019081526020016000206000820151816000015560208201518160010155905050600160008089815260200190815260200160002060110160003373ffffffffffffffffffffffffffffffffffffffff1673ffffffffffffffffffffffffffffffffffffffff16815260200190815260200160002060006101000a81548160ff02191690831515021790555085856000808a815260200190815260200160002060130160003373ffffffffffffffffffffffffffffffffffffffff1673ffffffffffffffffffffffffffffffffffffffff1681526020019081526020016000209190611b1c929190612649565b507f4b6c7d33d8244d6b35f1a8d35f6d19860fea50d46740345c395123753dd782fa33604051611b4c9190613328565b60405180910390a15050505050505050565b600060015490506001806000828254019250508190555060016002600082825401925050819055506000834201905060008382019050604051806101c001604052808481526020013373ffffffffffffffffffffffffffffffffffffffff1681526020018381526020018281526020016000151581526020018a8a8080601f016020809104026020016040519081016040528093929190818152602001838380828437600081840152601f19601f82011690508083019250505050505050815260200188888080601f016020809104026020016040519081016040528093929190818152602001838380828437600081840152601f19601f82011690508083019250505050505050815260200160001515815260200160008152602001600081526020016000604051908082528060200260200182016040528015611cb25781602001602082028038833980820191505090505b508152602001600073ffffffffffffffffffffffffffffffffffffffff16815260200160008152602001604051806020016040528060008152508152506000808581526020019081526020016000206000820151816000015560208201518160010160006101000a81548173ffffffffffffffffffffffffffffffffffffffff021916908373ffffffffffffffffffffffffffffffffffffffff160217905550604082015181600201556060820151816003015560808201518160040160006101000a81548160ff02191690831515021790555060a0820151816005019080519060200190611da2929190612731565b5060c0820151816006019080519060200190611dbf929190612731565b5060e08201518160070160006101000a81548160ff0219169083151502179055506101008201518160080155610120820151816009015561014082015181600a019080519060200190611e139291906127b1565b5061016082015181600b0160006101000a81548173ffffffffffffffffffffffffffffffffffffffff021916908373ffffffffffffffffffffffffffffffffffffffff16021790555061018082015181600c01556101a082015181600d019080519060200190611e84929190612731565b509050507f58c55e05f36335d586220e73c744c2bee55b978dc632f7bae51fd53b68b967de838a8a8a8a604051611ebf9594939291906135e0565b60405180910390a17f407f117d881ed92fbecf3649fb9568d7191c91329e6cef0cb5fc97916ef0cead8383604051611ef8929190613629565b60405180910390a1505050505050505050565b806001548110611f50576040517f08c379a0000000000000000000000000000000000000000000000000000000008152600401611f47906133e7565b60405180910390fd5b81600080828152602001908152602001600020600b0160009054906101000a900473ffffffffffffffffffffffffffffffffffffffff1673ffffffffffffffffffffffffffffffffffffffff163373ffffffffffffffffffffffffffffffffffffffff1614611ff4576040517f08c379a0000000000000000000000000000000000000000000000000000000008152600401611feb90613467565b60405180910390fd5b826001151560008083815260200190815260200160002060040160009054906101000a900460ff1615151461205e576040517f08c379a0000000000000000000000000000000000000000000000000000000008152600401612055906133a7565b60405180910390fd5b6000806000868152602001908152602001600020600c015490506000816003029050600080600088815260200190815260200160002060100160008060008a8152602001908152602001600020600b0160009054906101000a900473ffffffffffffffffffffffffffffffffffffffff1673ffffffffffffffffffffffffffffffffffffffff1673ffffffffffffffffffffffffffffffffffffffff16815260200190815260200160002081905550600160008088815260200190815260200160002060070160006101000a81548160ff02191690831515021790555060008087815260200190815260200160002060010160009054906101000a900473ffffffffffffffffffffffffffffffffffffffff1673ffffffffffffffffffffffffffffffffffffffff166108fc829081150290604051600060405180830381858888f193505050501580156121b6573d6000803e3d6000fd5b50600080878152602001908152602001600020600b0160009054906101000a900473ffffffffffffffffffffffffffffffffffffffff1673ffffffffffffffffffffffffffffffffffffffff166108fc839081150290604051600060405180830381858888f19350505050158015612232573d6000803e3d6000fd5b507f6cbc019d5c94717baad0acdfa06c66c2a314a9f71c5486a1034adb0f07a57e658660405161226291906134e7565b60405180910390a1505050505050565b816001151560008083815260200190815260200160002060040160009054906101000a900460ff161515146122dc576040517f08c379a00000000000000000000000000000000000000000000000000000000081526004016122d3906133a7565b60405180910390fd5b600080600085815260200190815260200160002060100160008473ffffffffffffffffffffffffffffffffffffffff1673ffffffffffffffffffffffffffffffffffffffff16815260200190815260200160002054111561247057600080600085815260200190815260200160002060100160008473ffffffffffffffffffffffffffffffffffffffff1673ffffffffffffffffffffffffffffffffffffffff168152602001908152602001600020549050600080600086815260200190815260200160002060100160008573ffffffffffffffffffffffffffffffffffffffff1673ffffffffffffffffffffffffffffffffffffffff1681526020019081526020016000208190555060008390508073ffffffffffffffffffffffffffffffffffffffff166108fc839081150290604051600060405180830381858888f19350505050158015612431573d6000803e3d6000fd5b507fa01ed4ff1bfc084518bd795b4114da41c800c9ae1fc5e594cb505cb4c0c3fae185858460405161246593929190613577565b60405180910390a150505b505050565b600082600080868152602001908152602001600020600e01600080600088815260200190815260200160002060090154815260200190815260200160002060006101000a81548173ffffffffffffffffffffffffffffffffffffffff021916908373ffffffffffffffffffffffffffffffffffffffff16021790555060016000808681526020019081526020016000206009016000828254019250508190555081600080868152602001908152602001600020600801600082825401925050819055508160020260008086815260200190815260200160002060100160008573ffffffffffffffffffffffffffffffffffffffff1673ffffffffffffffffffffffffffffffffffffffff16815260200190815260200160002060008282540192505081905550600190509392505050565b604051806101c0016040528060008152602001600073ffffffffffffffffffffffffffffffffffffffff168152602001600073ffffffffffffffffffffffffffffffffffffffff168152602001600081526020016000815260200160001515815260200160001515815260200160608152602001606081526020016000151581526020016000151581526020016000815260200160608152602001606081525090565b828054600181600116156101000203166002900490600052602060002090601f016020900481019282601f1061268a57803560ff19168380011785556126b8565b828001600101855582156126b8579182015b828111156126b757823582559160200191906001019061269c565b5b5090506126c5919061283b565b5090565b60405180610120016040528060008152602001600073ffffffffffffffffffffffffffffffffffffffff168152602001600081526020016000815260200160001515815260200160608152602001606081526020016000151581526020016000151581525090565b828054600181600116156101000203166002900490600052602060002090601f016020900481019282601f1061277257805160ff19168380011785556127a0565b828001600101855582156127a0579182015b8281111561279f578251825591602001919060010190612784565b5b5090506127ad919061283b565b5090565b82805482825590600052602060002090810192821561282a579160200282015b828111156128295782518260006101000a81548173ffffffffffffffffffffffffffffffffffffffff021916908373ffffffffffffffffffffffffffffffffffffffff160217905550916020019190600101906127d1565b5b5090506128379190612860565b5090565b61285d91905b80821115612859576000816000905550600101612841565b5090565b90565b6128a091905b8082111561289c57600081816101000a81549073ffffffffffffffffffffffffffffffffffffffff021916905550600101612866565b5090565b90565b6000813590506128b2816137f3565b92915050565b6000813590506128c78161380a565b92915050565b60008083601f8401126128df57600080fd5b8235905067ffffffffffffffff8111156128f857600080fd5b60208301915083600182028301111561291057600080fd5b9250929050565b60008135905061292681613821565b92915050565b60006020828403121561293e57600080fd5b600061294c848285016128a3565b91505092915050565b6000806000806060858703121561296b57600080fd5b6000612979878288016128b8565b945050602061298a87828801612917565b935050604085013567ffffffffffffffff8111156129a757600080fd5b6129b3878288016128cd565b925092505092959194509250565b600080600080600080608087890312156129da57600080fd5b600087013567ffffffffffffffff8111156129f457600080fd5b612a0089828a016128cd565b9650965050602087013567ffffffffffffffff811115612a1f57600080fd5b612a2b89828a016128cd565b94509450506040612a3e89828a01612917565b9250506060612a4f89828a01612917565b9150509295509295509295565b600060208284031215612a6e57600080fd5b6000612a7c84828501612917565b91505092915050565b600080600060408486031215612a9a57600080fd5b6000612aa886828701612917565b935050602084013567ffffffffffffffff811115612ac557600080fd5b612ad1868287016128cd565b92509250509250925092565b60008060008060608587031215612af357600080fd5b6000612b0187828801612917565b945050602085013567ffffffffffffffff811115612b1e57600080fd5b612b2a878288016128cd565b93509350506040612b3d87828801612917565b91505092959194509250565b6000612b5583836130fb565b905092915050565b6000612b6983836131c7565b905092915050565b612b7a8161376a565b82525050565b612b8981613718565b82525050565b6000612b9a82613687565b612ba481856136c2565b935083602082028501612bb685613652565b8060005b85811015612bf25784840389528151612bd38582612b49565b9450612bde836136a8565b925060208a01995050600181019050612bba565b50829750879550505050505092915050565b6000612c0f82613692565b612c1981856136d3565b935083602082028501612c2b85613662565b8060005b85811015612c675784840389528151612c488582612b5d565b9450612c53836136b5565b925060208a01995050600181019050612c2f565b50829750879550505050505092915050565b612c828161372a565b82525050565b6000612c9483856136f5565b9350612ca18385846137a0565b612caa836137e2565b840190509392505050565b6000612cc08261369d565b612cca81856136e4565b9350612cda8185602086016137af565b612ce3816137e2565b840191505092915050565b600081546001811660008114612d0b5760018114612d3157612d75565b607f6002830416612d1c81876136f5565b955060ff198316865260208601935050612d75565b60028204612d3f81876136f5565b9550612d4a85613672565b60005b82811015612d6c57815481890152600182019150602081019050612d4d565b80880195505050505b505092915050565b6000612d8a602c836136f5565b91507f596f752068617665206e6f74207061696420726967687420746865207365637560008301527f72697479206465706f73697400000000000000000000000000000000000000006020830152604082019050919050565b6000612df06021836136f5565b91507f43616e742041736b20726566756e642c61756374696f6e206e6f7420656e646560008301527f64000000000000000000000000000000000000000000000000000000000000006020830152604082019050919050565b6000612e566015836136f5565b91507f41756374696f6e20616c726561647920656e64656400000000000000000000006000830152602082019050919050565b6000612e966021836136f5565b91507f41756374696f6e2049642070726f766964656420646f65736e2774206578697360008301527f74000000000000000000000000000000000000000000000000000000000000006020830152604082019050919050565b6000612efc6024836136f5565b91507f4f6e6c792042656e65666963696172792063616e20656e64207468652061756360008301527f74696f6e000000000000000000000000000000000000000000000000000000006020830152604082019050919050565b6000612f62600a836136f5565b91507f41667465722074696d65000000000000000000000000000000000000000000006000830152602082019050919050565b6000612fa26030836136f5565b91507f4469646e277420706c6163652061206265742c6e6f20706f696e7420696e207260008301527f657665616c696e672074686520626964000000000000000000000000000000006020830152604082019050919050565b60006130086020836136f5565b91507f4f6e6c792057696e6e65722063616e20636f6e6669726d2070757263686173656000830152602082019050919050565b6000613048600b836136f5565b91507f6265666f72652074696d650000000000000000000000000000000000000000006000830152602082019050919050565b60006130886016836136f5565b91507f42656e65666963696172792063616e6e6f7420626964000000000000000000006000830152602082019050919050565b60006130c8601f836136f5565b91507f42696464657220416c726561647920706c6163656420746865697220626964006000830152602082019050919050565b600061012083016000830151613114600086018261330a565b5060208301516131276020860182612b80565b50604083015161313a604086018261330a565b50606083015161314d606086018261330a565b5060808301516131606080860182612c79565b5060a083015184820360a08601526131788282612cb5565b91505060c083015184820360c08601526131928282612cb5565b91505060e08301516131a760e0860182612c79565b506101008301516131bc610100860182612c79565b508091505092915050565b60006101c0830160008301516131e0600086018261330a565b5060208301516131f36020860182612b80565b5060408301516132066040860182612b80565b506060830151613219606086018261330a565b50608083015161322c608086018261330a565b5060a083015161323f60a0860182612c79565b5060c083015161325260c0860182612c79565b5060e083015184820360e086015261326a8282612cb5565b9150506101008301518482036101008601526132868282612cb5565b91505061012083015161329d610120860182612c79565b506101408301516132b2610140860182612c79565b506101608301516132c761016086018261330a565b506101808301518482036101808601526132e18282612cb5565b9150506101a08301518482036101a08601526132fd8282612cb5565b9150508091505092915050565b61331381613760565b82525050565b61332281613760565b82525050565b600060208201905061333d6000830184612b71565b92915050565b6000602082019050818103600083015261335d8184612b8f565b905092915050565b6000602082019050818103600083015261337f8184612c04565b905092915050565b600060208201905081810360008301526133a081612d7d565b9050919050565b600060208201905081810360008301526133c081612de3565b9050919050565b600060208201905081810360008301526133e081612e49565b9050919050565b6000602082019050818103600083015261340081612e89565b9050919050565b6000602082019050818103600083015261342081612eef565b9050919050565b6000602082019050818103600083015261344081612f55565b9050919050565b6000602082019050818103600083015261346081612f95565b9050919050565b6000602082019050818103600083015261348081612ffb565b9050919050565b600060208201905081810360008301526134a08161303b565b9050919050565b600060208201905081810360008301526134c08161307b565b9050919050565b600060208201905081810360008301526134e0816130bb565b9050919050565b60006020820190506134fc6000830184613319565b92915050565b60006040820190506135176000830185613319565b6135246020830184612b71565b9392505050565b60006080820190506135406000830187613319565b61354d6020830186612b71565b818103604083015261355f8185612cee565b905061356e6060830184613319565b95945050505050565b600060608201905061358c6000830186613319565b6135996020830185612b71565b6135a66040830184613319565b949350505050565b60006040820190506135c36000830186613319565b81810360208301526135d6818486612c88565b9050949350505050565b60006060820190506135f56000830188613319565b8181036020830152613608818688612c88565b9050818103604083015261361d818486612c88565b90509695505050505050565b600060408201905061363e6000830185613319565b61364b6020830184613319565b9392505050565b6000819050602082019050919050565b6000819050602082019050919050565b60008190508160005260206000209050919050565b600081519050919050565b600081519050919050565b600081519050919050565b6000602082019050919050565b6000602082019050919050565b600082825260208201905092915050565b600082825260208201905092915050565b600082825260208201905092915050565b600082825260208201905092915050565b600061371182613740565b9050919050565b600061372382613740565b9050919050565b60008115159050919050565b6000819050919050565b600073ffffffffffffffffffffffffffffffffffffffff82169050919050565b6000819050919050565b60006137758261377c565b9050919050565b60006137878261378e565b9050919050565b600061379982613740565b9050919050565b82818337600083830152505050565b60005b838110156137cd5780820151818401526020810190506137b2565b838111156137dc576000848401525b50505050565b6000601f19601f8301169050919050565b6137fc81613706565b811461380757600080fd5b50565b61381381613736565b811461381e57600080fd5b50565b61382a81613760565b811461383557600080fd5b5056fea365627a7a723158203421dd51186dba097f75f94b5bdcb7c54fefd7e5c7e81734ce15b0f81fa58c9a6c6578706572696d656e74616cf564736f6c63430005100040",
  "source": "/// SPDX-License-Identifier: MIT\npragma solidity >=0.4.22 <0.9.0;\npragma experimental ABIEncoderV2;\n\n/// @title The contract for buying and selling items on a market\ncontract AveragePriceAuction {\n    // Important Structures\n\n    ///@dev stores the blinded bid\n    ///@param bidHash stores the bid hashed using the public pub_key\n    ///@param deposit stores the deposited amount\n    struct Bid {\n        bytes32 bidHash;\n        uint256 deposit;\n    }\n\n    /// @dev structure for each Auction item\n    /// @param auction_id unique id for the items\n    /// @param beneficiary the seller\n    /// @param biddingEnd time the bidding end\n    /// @param revealEnd time when reveal period is over\n    /// @param ended shows the auction ended\n    /// @param item_name shows name of the item\n    /// @param item_description description of the item\n    /// @param bids stores the list of bids indexed by address\n    /// @param sold bool to denote whether the item is sold or not\n    /// @param highestBidder address of the highest bidder\n    /// @param highestBid value of the highest bid\n    /// @param pendingReturns the value to return to each bidder\n    /// @param bidded the boolean to track which addresses have bidded.\n    /// @param sum the sum of all valid revealed bids\n    /// @param no_of_bids the number of valid bids\n    /// @param revealedBidders the array to store bidders who reveal their bid to return their due after auction is over\n    /// @param winner address of the winner of the auction\n    /// @param winningBid Bid the winner placed\n    /// @param bidders addresses of the bidders\n    /// @param pubkey stores the pubkeys of the bidders sent over with the bids\n    /// @param H secret string to sell item encrypted with buyer's public key\n    struct auctions {\n        uint256 auction_id;\n        address payable beneficiary;\n        uint256 biddingEnd;\n        uint256 revealEnd;\n        bool ended;\n        string item_name;\n        string item_description;\n        bool sold;\n        uint256 sum;\n        uint256 no_of_bids;\n        address payable[] revealedBidders;\n        address payable winner;\n        uint256 winningBid;\n        string H;\n        mapping(uint256 => address payable) bidders;\n        mapping(address => Bid) bids;\n        // Allowed withdrawals of previous bids\n        mapping(address => uint256) pendingReturns;\n        mapping(address => bool) bidded;\n        mapping(address => bool) revealed;\n        mapping(address => string) pubkey;\n    }\n\n    /// @dev structure for each display active Auction Listings\n    /// @param auction_id unique id for the items\n    /// @param beneficiary address of the owner of item to be auctioned\n    /// @param biddingEnd time the bidding end\n    /// @param revealEnd time when reveal period is over\n    /// @param ended shows the auction ended\n    /// @param item_name shows name of the item\n    /// @param item_description description of the item\n    /// @param bidplaced bool to tell whether the person calling the function bidded or not\n    /// @param revealed bool to tell whether the person calling the revealed their bid or not\n    struct auction_active_listings {\n        uint256 auction_id;\n        address payable beneficiary;\n        uint256 biddingEnd;\n        uint256 revealEnd;\n        bool ended;\n        string item_name;\n        string item_description;\n        bool bidplaced;\n        bool revealed;\n    }\n\n    /// @dev structure for each display Auction Listings\n    /// @param auction_id unique id for the items\n    /// @param beneficiary address of the owner of item to be auctioned\n    /// @param winner address of the winner of the auction\n    /// @param biddingEnd time the bidding end\n    /// @param revealEnd time when reveal period is over\n    /// @param ended shows the auction ended\n    /// @param item_name shows name of the item\n    /// @param item_description description of the item\n    /// @param bidplaced bool to tell whether the person calling the function bidded or not\n    /// @param revealed bool to tell whether the person calling the revealed their bid or not\n    /// @param finalBid the final price at which the item was sold\n    /// @param pubkey public key of the winner\n    /// @param H secret string to sell item encrypted with buyer's public key\n    struct auction_all_listings {\n        uint256 auction_id;\n        address payable beneficiary;\n        address payable winner;\n        uint256 biddingEnd;\n        uint256 revealEnd;\n        bool ended;\n        bool sold;\n        string item_name;\n        string item_description;\n        bool bidplaced;\n        bool revealed;\n        uint256 finalBid;\n        string pubkey;\n        string H;\n    }\n\n    // Errors that describe failures.\n\n    /// The function has been called too early.\n    /// Try again at `time`.\n    //error TooEarly(uint time);\n    /// The function has been called too late.\n    /// It cannot be called after `time`.\n    //error TooLate(uint time);\n    /// The function auctionEnd has already been called.\n    //error AuctionEndAlreadyCalled();\n\n    /// EVENTS\n\n    /// @dev this event is for when auction item is for when item for auction is listed\n    /// @param Auction_id id of the auction\n    /// @param item_name  name of the item to be Auction\n    /// @param item_description  description of the item to be auctioned\n    event AuctionStarted(\n        uint256 Auction_id,\n        string item_name,\n        string item_description\n    );\n\n    /// @dev this event to annouce auction started\n    /// @param Auction_id is the id of the auction\n    /// @param highestBidder is the address of the highest Bidder\n    /// @param highestBid is the value of the winning bid\n    event AuctionEnded(\n        uint256 Auction_id,\n        address highestBidder,\n        uint256 highestBid\n    );\n\n    ///@dev when an item goes unsold at the end of the auction\n    ///@param auction_id is the id of the auction\n    event ItemUnsold(uint256 auction_id);\n\n    /// @dev this event to annouce bidding started\n    /// @param Auction_id is the id of the auction\n    /// @param bidding_end is the time when bidding period ends\n    event BiddingStarted(uint256 Auction_id, uint256 bidding_end);\n\n    /// @dev this event to annouce bidding period ended\n    /// @param Auction_id is the id of the auction\n    event BiddingPeriodEnded(uint256 Auction_id);\n\n    /// @dev announcement of a new\n    /// @param bidder address of the bidder\n    event BidMade(address bidder);\n\n    ///@dev announcement to start revealing bids\n    /// @param Auction_id id of the auction item\n    /// @param reveal_end is the time when revealing period ends\n    event RevealPeriodStarted(uint256 Auction_id, uint256 reveal_end);\n\n    ///@dev annouce to end revealing period\n    /// @param Auction_id id of the auction\n    event RevealPeriodEnded(uint256 Auction_id);\n\n    ///@dev announce winner\n    /// @param Auction_id is the id of the auction\n    /// @param winner is the address of the winner\n    ///@param pubkey is the public key of the winner\n    ///@param winning_bid is the value of the winning bid\n    event WinnerChosen(\n        uint256 Auction_id,\n        address winner,\n        string pubkey,\n        uint256 winning_bid\n    );\n\n    ///@dev bid revealed\n    ///@param Auction_id is the id of the auction\n    ///@param bidder is the address of the revealer\n    event BidRevealed(uint256 Auction_id, address bidder);\n\n    ///@dev bid revealed failed\n    ///@param Auction_id is the id of the auction\n    ///@param bidder is the address of the revealer\n    event BidRevealFailed(uint256 Auction_id, address bidder);\n\n    ///@dev event to notify Refunds of bids\n    ///@param auction_id is the id of the auction\n    ///@param bidder is the address of the revealer\n    ///@param bid_value  refers to whether the bid is succesfully revealed and refund done\n    event BidderRefunded(uint256 auction_id, address bidder, uint256 bid_value);\n\n    ///@dev event to notify Refunds of bids\n    ///@param auction_id is the id of the auction\n    ///@param bidder is the address of the revealer\n    ///@param balance  refers to whether the bid is succesfully revealed and refund done\n    event BalanceRefunded(uint256 auction_id, address bidder, uint256 balance);\n\n    ///@dev event to notify when the deposit is not enough\n    ///@param auction_id is the id of the auction\n    ///@param bidder is the bidder\n    event DepositNotEnough(uint256 auction_id, address bidder);\n\n    ///@dev to notify highest Bid has been modified\n    ///@param auction_id is the id of the auction\n    ///@param bidder is the bidder\n    ///@param bid_value refers to the bid\n    event NewHighestBid(uint256 auction_id, address bidder, uint256 bid_value);\n\n    ///@dev event to send the hashed Item\n    ///@param auction_id is the id of the auction\n    ///@param H is the hashed passwords\n    event encryptedKey(uint256 auction_id, string H);\n\n    ///@dev to confirm delivery\n    ///@param auction_id is the id of the auction\n    event deliveryComplete(uint256 auction_id);\n\n    /// @dev create a lists of all auctions\n    mapping(uint256 => auctions) private Auctions;\n\n    // variables for managing auctions\n    uint256 current_auction_id = 0;\n    uint256 activeauctions = 0;\n\n    //MODIFIERS\n\n    /// @notice Check whether a given condition is true\n    /// @param _condition condition statement to verify.\n    modifier condition(bool _condition) {\n        require(_condition);\n        _;\n    }\n\n    modifier onlyBefore(uint256 _time) {\n        require(block.timestamp < _time, \"After time\");\n        _;\n    }\n    modifier onlyAfter(uint256 _time) {\n        require(block.timestamp > _time, \"before time\");\n        _;\n    }\n\n    modifier validBidder(uint256 auction_id) {\n        require(\n            msg.sender != Auctions[auction_id].beneficiary,\n            \"Beneficiary cannot bid\"\n        );\n        _;\n    }\n    modifier newBidder(uint256 auction_id) {\n        require(\n            !Auctions[auction_id].bidded[msg.sender],\n            \"Bidder Already placed their bid\"\n        );\n        _;\n    }\n\n    modifier alreadyBidder(uint256 auction_id) {\n        require(\n            Auctions[auction_id].bidded[msg.sender] == true,\n            \"Didn't place a bet,no point in revealing the bid\"\n        );\n        _;\n    }\n\n    modifier onlyBeneficiary(uint256 auction_id) {\n        require(\n            Auctions[auction_id].beneficiary == msg.sender,\n            \"Only Beneficiary can end the auction\"\n        );\n        _;\n    }\n    modifier auctionActive(uint256 auction_id) {\n        require(Auctions[auction_id].ended == false, \"Auction already ended\");\n        _;\n    }\n    modifier auctionEnded(uint256 auction_id) {\n        require(\n            Auctions[auction_id].ended == true,\n            \"Cant Ask refund,auction not ended\"\n        );\n        _;\n    }\n    modifier validAuctionId(uint256 auction_id) {\n        require(\n            auction_id < current_auction_id,\n            \"Auction Id provided doesn't exist\"\n        );\n        _;\n    }\n    modifier onlyWinner(uint256 auction_id) {\n        require(\n            msg.sender == Auctions[auction_id].winner,\n            \"Only Winner can confirm purchase\"\n        );\n        _;\n    }\n\n    //functions\n\n    /// @notice returns balance of account\n    /// @param account Address of the account.\n    function getAccountBalance(address account)\n        public\n        view\n        returns (uint256 accountBalance)\n    {\n        accountBalance = account.balance;\n    }\n\n    /// @dev function to list the auction of a new item\n    /// @param item_name name of the item\n    /// @param item_description is the description of the item\n    /// @param bidding_time how long the bidding will go\n    /// @param reveal_time how long the reveal will go\n    function auctionItem(\n        string calldata item_name,\n        string calldata item_description,\n        uint256 bidding_time,\n        uint256 reveal_time\n    ) external payable {\n        uint256 auction_id = current_auction_id;\n        current_auction_id += 1;\n        activeauctions += 1;\n        uint256 bidding_end = block.timestamp + bidding_time;\n        uint256 reveal_end = bidding_end + reveal_time;\n\n        Auctions[auction_id] = auctions(\n            auction_id,\n            msg.sender,\n            bidding_end,\n            reveal_end,\n            false,\n            item_name,\n            item_description,\n            false,\n            0,\n            0,\n            new address payable[](0),\n            address(0),\n            0,\n            \"\"\n        );\n        emit AuctionStarted(auction_id, item_name, item_description);\n        emit BiddingStarted(auction_id, bidding_end);\n    }\n\n    // function to to get a list of all active auctions\n    /// @notice Get all the active auction listings items in the market\n    /// @return a list of active auction listings\n    function getactiveauctions()\n        external\n        view\n        returns (auction_active_listings[] memory)\n    {\n        uint256 currentIndex = 0;\n        auction_active_listings[]\n            memory active_auctions = new auction_active_listings[](\n                activeauctions\n            );\n        for (uint256 i = 0; i < current_auction_id; i++) {\n            if (Auctions[i].ended == false) {\n                auctions storage currentauction = Auctions[i];\n                active_auctions[currentIndex] = auction_active_listings(\n                    currentauction.auction_id,\n                    currentauction.beneficiary,\n                    currentauction.biddingEnd,\n                    currentauction.revealEnd,\n                    currentauction.ended,\n                    currentauction.item_name,\n                    currentauction.item_description,\n                    currentauction.bidded[msg.sender],\n                    currentauction.revealed[msg.sender]\n                );\n                currentIndex += 1;\n            }\n        }\n        return active_auctions;\n    }\n\n    // function to to get a list of all auctions\n    /// @notice Get all the auction listings items in the market\n    /// @return a list of all auction listings\n    function getallauctions()\n        external\n        view\n        returns (auction_all_listings[] memory)\n    {\n        auction_all_listings[] memory all_auctions = new auction_all_listings[](\n            current_auction_id\n        );\n        for (uint256 i = 0; i < current_auction_id; i++) {\n            auctions storage currentauction = Auctions[i];\n            string memory pubkey = \"\";\n            if (currentauction.winner != address(0))\n                pubkey = currentauction.pubkey[currentauction.winner];\n            all_auctions[i] = auction_all_listings(\n                currentauction.auction_id,\n                currentauction.beneficiary,\n                currentauction.winner,\n                currentauction.biddingEnd,\n                currentauction.revealEnd,\n                currentauction.ended,\n                currentauction.sold,\n                currentauction.item_name,\n                currentauction.item_description,\n                currentauction.bidded[msg.sender],\n                currentauction.revealed[msg.sender],\n                currentauction.winningBid,\n                pubkey,\n                currentauction.H\n            );\n        }\n        return all_auctions;\n    }\n\n    // function that can be used to bid in an auction\n    /// @param blindedBid is the hashed version of bid\n    /// @param auction_id is the id of the auction\n    ///@param pubkey is the public key of the bidder\n    function bid(\n        bytes32 blindedBid,\n        uint256 auction_id,\n        string calldata pubkey\n    )\n        external\n        payable\n        validAuctionId(auction_id)\n        onlyBefore(Auctions[auction_id].biddingEnd)\n        validBidder(auction_id)\n        newBidder(auction_id)\n    {\n        Auctions[auction_id].bids[msg.sender] = Bid(blindedBid, msg.value);\n        Auctions[auction_id].bidded[msg.sender] = true;\n        Auctions[auction_id].pubkey[msg.sender] = pubkey;\n        emit BidMade(msg.sender);\n    }\n\n    /// @dev Reveal your blinded bids. You will get a refund for all\n    /// @dev correctly blinded invalid bids and for all bids except for\n    /// @dev the totally highest.\n    /// @param value value of the bid\n    /// @param secret again not sure\n    /// @param auction_id id of the auction\n    function reveal(\n        uint256 value,\n        //bool fake,\n        string calldata secret,\n        uint256 auction_id\n    )\n        external\n        payable\n        onlyAfter(Auctions[auction_id].biddingEnd)\n        onlyBefore(Auctions[auction_id].revealEnd)\n        alreadyBidder(auction_id)\n        validAuctionId(auction_id)\n    {\n        uint256 refund = 0;\n        bool success = false;\n        //get the bid placed by the user\n        Bid storage bidToCheck = Auctions[auction_id].bids[msg.sender];\n\n        // improper revealing\n        if (bidToCheck.bidHash != keccak256(abi.encode(value, secret))) {\n            // Bid was not actually revealed.\n            // Do not refund deposit.\n            emit BidRevealFailed(auction_id, msg.sender);\n        } else {\n            // Make it impossible for the sender to re-claim\n            bidToCheck.bidHash = bytes32(0);\n\n            Auctions[auction_id].revealedBidders.push(msg.sender);\n            Auctions[auction_id].revealed[msg.sender] = true;\n            refund += bidToCheck.deposit;\n            if (bidToCheck.deposit >= 2 * value) {\n                if (placeBid(auction_id, msg.sender, value))\n                    refund -= 2 * value;\n                emit BidRevealed(auction_id, msg.sender);\n            } else emit DepositNotEnough(auction_id, msg.sender);\n            // the same deposit.\n            emit BalanceRefunded(auction_id, msg.sender, refund);\n            msg.sender.transfer(refund);\n        }\n    }\n\n    // This is an \"internal\" function which means that it\n    // can only be called from the contract itself (or from\n    // derived contracts).\n    ///@dev the function is used accept bids by the owner\n    ///@param auction_id is the id of the auction\n    ///@param bidder is the address of the bidder\n    ///@param value is the value of the bid\n    function placeBid(\n        uint256 auction_id,\n        address payable bidder,\n        uint256 value\n    ) internal returns (bool success) {\n        Auctions[auction_id].bidders[Auctions[auction_id].no_of_bids] = bidder;\n        Auctions[auction_id].no_of_bids += 1;\n        Auctions[auction_id].sum += value;\n        Auctions[auction_id].pendingReturns[bidder] += 2 * value;\n        return true;\n    }\n\n    ///@dev function to withdraw overbid/non-winning bids\n    ///@param auction_id is the id of the Auction\n    ///@param bidder is the address of the bidder whose payment is pending\n    function withdraw(uint256 auction_id, address payable bidder)\n        internal\n        auctionEnded(auction_id)\n    {\n        //emit BidderRefunded(auction_id,msg.sender, Auctions[auction_id].pendingReturns[msg.sender]);\n        if (Auctions[auction_id].pendingReturns[bidder] > 0) {\n            uint256 value = Auctions[auction_id].pendingReturns[bidder];\n            Auctions[auction_id].pendingReturns[bidder] = 0;\n            address payable payable_sender = bidder;\n            payable_sender.transfer(value);\n            emit BidderRefunded(auction_id, bidder, value);\n        }\n    }\n\n    ///@dev End the auction and send the highest bid to the beneficiary\n    ///@param auction_id is the id of the auction\n    ///@notice only beneficiary of the auction can call the function\n    function auctionEnd(uint256 auction_id)\n        external\n        validAuctionId(auction_id)\n        onlyAfter(Auctions[auction_id].revealEnd)\n        onlyBeneficiary(auction_id)\n        auctionActive(auction_id)\n    {\n        if (Auctions[auction_id].no_of_bids == 0) {\n            emit ItemUnsold(auction_id);\n            Auctions[auction_id].ended = true;\n            activeauctions -= 1;\n        } else {\n            int256 closest_difference = 100000000000000000000000;\n            address payable winner = address(0);\n            uint256 winning_bid = 0;\n            for (uint256 i = 0; i < Auctions[auction_id].no_of_bids; i++) {\n                address payable bidder_address = Auctions[auction_id].bidders[\n                    i\n                ];\n                uint256 bid_value = Auctions[auction_id].pendingReturns[\n                    bidder_address\n                ] / 2;\n                int256 difference = int256(Auctions[auction_id].sum) -\n                    (int256(bid_value) *\n                        int256(Auctions[auction_id].no_of_bids));\n                // if (difference < 0) {\n                //     difference = -difference;\n                // }\n                difference = difference >= 0 ? difference : -difference;\n                if (difference < closest_difference) {\n                    closest_difference = difference;\n                    winner = bidder_address;\n                    winning_bid = bid_value;\n                }\n            }\n            Auctions[auction_id].pendingReturns[winner] = 0;\n            Auctions[auction_id].ended = true;\n            Auctions[auction_id].winner = winner;\n            Auctions[auction_id].winningBid = winning_bid;\n            activeauctions -= 1;\n            for (\n                uint256 i = 0;\n                i < Auctions[auction_id].revealedBidders.length;\n                ++i\n            ) {\n                if (\n                    Auctions[auction_id].revealedBidders[i] !=\n                    Auctions[auction_id].winner\n                ) withdraw(auction_id, Auctions[auction_id].revealedBidders[i]);\n            }\n            //Auctions[auction_id].beneficiary.transfer(winning_bid);\n            string storage winner_pubkey = Auctions[auction_id].pubkey[winner];\n            winning_bid = Auctions[auction_id].winningBid;\n            emit WinnerChosen(auction_id, winner, winner_pubkey, winning_bid);\n        }\n    }\n\n    /// @dev Sale of item from seller's side\n    /// @dev Transaction from the seller\n    /// @param auction_id is the id of the item being sold_\n    /// @param H is the unique string for the item\n    /// @dev assume the seller is fair,will provide the right item\n    function sellItem(uint256 auction_id, string calldata H)\n        external\n        payable\n        validAuctionId(auction_id)\n        auctionEnded(auction_id)\n        onlyBeneficiary(auction_id)\n    {\n        require(\n            msg.value == 2 * Auctions[auction_id].winningBid,\n            \"You have not paid right the security deposit\"\n        );\n        Auctions[auction_id].H = H;\n\n        emit encryptedKey(auction_id, H);\n        //  Auctions[auction_id].beneficiary.transfer(Auctions[auction_id].winningBid);\n    }\n\n    /// @dev Confirmation of delivery\n    /// @dev Transaction from the winner\n    /// @param auction_id is the id of the item being sold_\n    function confirmDelivery(uint256 auction_id)\n        external\n        payable\n        validAuctionId(auction_id)\n        onlyWinner(auction_id)\n        auctionEnded(auction_id)\n    {\n        /// Refund the seller\n        uint256 amt = Auctions[auction_id].winningBid;\n        uint256 prof = 3 * amt;\n        // emit deliveryComplete(auction_id);\n        Auctions[auction_id].pendingReturns[Auctions[auction_id].winner] = 0;\n        Auctions[auction_id].sold = true;\n\n        Auctions[auction_id].beneficiary.transfer(prof);\n        Auctions[auction_id].winner.transfer(amt);\n\n        emit deliveryComplete(auction_id);\n    }\n}\n",
  "sourcePath": "/home/rutvij/programming/Assignments/DTBC/Block-Chain-Collab/Assignments/2/contracts/AveragePriceAuction.sol",
  "compiler": {
    "name": "solc",
    "version": "0.5.16+commit.9c3226ce.Emscripten.clang"
  },
  "schemaVersion": "3.4.3",
  "updatedAt": "2021-10-15T14:49:38.637Z",
  "networkType": "ethereum",
  "devdoc": {
    "methods": {
      "auctionEnd(uint256)": {
        "details": "End the auction and send the highest bid to the beneficiary",
        "params": {
          "auction_id": "is the id of the auction"
        }
      },
      "auctionItem(string,string,uint256,uint256)": {
        "details": "function to list the auction of a new item",
        "params": {
          "bidding_time": "how long the bidding will go",
          "item_description": "is the description of the item",
          "item_name": "name of the item",
          "reveal_time": "how long the reveal will go"
        }
      },
      "bid(bytes32,uint256,string)": {
        "params": {
          "auction_id": "is the id of the auction",
          "blindedBid": "is the hashed version of bid",
          "pubkey": "is the public key of the bidder"
        }
      },
      "confirmDelivery(uint256)": {
        "details": "Confirmation of deliveryTransaction from the winner",
        "params": {
          "auction_id": "is the id of the item being sold_"
        }
      },
      "getAccountBalance(address)": {
        "params": {
          "account": "Address of the account."
        }
      },
      "getactiveauctions()": {
        "return": "a list of active auction listings"
      },
      "getallauctions()": {
        "return": "a list of all auction listings"
      },
      "reveal(uint256,string,uint256)": {
        "details": "Reveal your blinded bids. You will get a refund for allcorrectly blinded invalid bids and for all bids except forthe totally highest.",
        "params": {
          "auction_id": "id of the auction",
          "secret": "again not sure",
          "value": "value of the bid"
        }
      },
      "sellItem(uint256,string)": {
        "details": "Sale of item from seller's sideTransaction from the sellerassume the seller is fair,will provide the right item",
        "params": {
          "H": "is the unique string for the item",
          "auction_id": "is the id of the item being sold_"
        }
      }
    },
    "title": "The contract for buying and selling items on a market"
  },
  "userdoc": {
    "methods": {
      "auctionEnd(uint256)": {
        "notice": "only beneficiary of the auction can call the function"
      },
      "getAccountBalance(address)": {
        "notice": "returns balance of account"
      },
      "getactiveauctions()": {
        "notice": "Get all the active auction listings items in the market"
      },
      "getallauctions()": {
        "notice": "Get all the auction listings items in the market"
      }
    }
  }
}