{
  "contractName": "Market",
  "abi": [
    {
      "anonymous": false,
      "inputs": [],
      "name": "Aborted",
      "type": "event"
    },
    {
      "anonymous": false,
      "inputs": [
        {
          "indexed": false,
          "internalType": "address",
          "name": "winner",
          "type": "address"
        },
        {
          "indexed": false,
          "internalType": "uint256",
          "name": "highestBid",
          "type": "uint256"
        }
      ],
      "name": "AuctionEnded",
      "type": "event"
    },
    {
      "anonymous": false,
      "inputs": [
        {
          "indexed": false,
          "internalType": "address",
          "name": "winner",
          "type": "address"
        },
        {
          "indexed": false,
          "internalType": "uint256",
          "name": "highestBid",
          "type": "uint256"
        }
      ],
      "name": "AuctionStarted",
      "type": "event"
    },
    {
      "anonymous": false,
      "inputs": [
        {
          "indexed": true,
          "internalType": "address",
          "name": "beneficiary",
          "type": "address"
        },
        {
          "indexed": true,
          "internalType": "uint256",
          "name": "index",
          "type": "uint256"
        }
      ],
      "name": "ListingChanged",
      "type": "event"
    },
    {
      "anonymous": false,
      "inputs": [
        {
          "indexed": true,
          "internalType": "uint256",
          "name": "auction_id",
          "type": "uint256"
        },
        {
          "indexed": false,
          "internalType": "address",
          "name": "beneficiary",
          "type": "address"
        },
        {
          "indexed": false,
          "internalType": "uint256",
          "name": "price",
          "type": "uint256"
        },
        {
          "indexed": false,
          "internalType": "string",
          "name": "item_name",
          "type": "string"
        },
        {
          "indexed": false,
          "internalType": "string",
          "name": "item_description",
          "type": "string"
        }
      ],
      "name": "ListingCreated",
      "type": "event"
    },
    {
      "anonymous": false,
      "inputs": [
        {
          "components": [
            {
              "internalType": "uint256",
              "name": "auction_id",
              "type": "uint256"
            },
            {
              "internalType": "address payable",
              "name": "beneficiary",
              "type": "address"
            },
            {
              "internalType": "address payable",
              "name": "buyer",
              "type": "address"
            },
            {
              "internalType": "uint256",
              "name": "price",
              "type": "uint256"
            },
            {
              "internalType": "string",
              "name": "item_name",
              "type": "string"
            },
            {
              "internalType": "string",
              "name": "item_description",
              "type": "string"
            },
            {
              "internalType": "bool",
              "name": "sold_or_withdrawn",
              "type": "bool"
            },
            {
              "internalType": "bool",
              "name": "buyer_alloted",
              "type": "bool"
            },
            {
              "internalType": "string",
              "name": "pubkey",
              "type": "string"
            },
            {
              "internalType": "string",
              "name": "H",
              "type": "string"
            },
            {
              "internalType": "enum Market.State",
              "name": "state",
              "type": "uint8"
            }
          ],
          "indexed": false,
          "internalType": "struct Market.listings",
          "name": "list",
          "type": "tuple"
        }
      ],
      "name": "PurchaseComplete",
      "type": "event"
    },
    {
      "anonymous": false,
      "inputs": [
        {
          "components": [
            {
              "internalType": "uint256",
              "name": "auction_id",
              "type": "uint256"
            },
            {
              "internalType": "address payable",
              "name": "beneficiary",
              "type": "address"
            },
            {
              "internalType": "address payable",
              "name": "buyer",
              "type": "address"
            },
            {
              "internalType": "uint256",
              "name": "price",
              "type": "uint256"
            },
            {
              "internalType": "string",
              "name": "item_name",
              "type": "string"
            },
            {
              "internalType": "string",
              "name": "item_description",
              "type": "string"
            },
            {
              "internalType": "bool",
              "name": "sold_or_withdrawn",
              "type": "bool"
            },
            {
              "internalType": "bool",
              "name": "buyer_alloted",
              "type": "bool"
            },
            {
              "internalType": "string",
              "name": "pubkey",
              "type": "string"
            },
            {
              "internalType": "string",
              "name": "H",
              "type": "string"
            },
            {
              "internalType": "enum Market.State",
              "name": "state",
              "type": "uint8"
            }
          ],
          "indexed": false,
          "internalType": "struct Market.listings",
          "name": "list",
          "type": "tuple"
        },
        {
          "indexed": true,
          "internalType": "address",
          "name": "buyer",
          "type": "address"
        },
        {
          "indexed": false,
          "internalType": "string",
          "name": "pub_key",
          "type": "string"
        }
      ],
      "name": "PurchaseRequested",
      "type": "event"
    },
    {
      "anonymous": false,
      "inputs": [
        {
          "indexed": true,
          "internalType": "uint256",
          "name": "auction_id",
          "type": "uint256"
        },
        {
          "indexed": false,
          "internalType": "string",
          "name": "H",
          "type": "string"
        }
      ],
      "name": "encryptedKey",
      "type": "event"
    },
    {
      "constant": true,
      "inputs": [],
      "name": "activelistings",
      "outputs": [
        {
          "internalType": "uint256",
          "name": "",
          "type": "uint256"
        }
      ],
      "payable": false,
      "stateMutability": "view",
      "type": "function"
    },
    {
      "constant": true,
      "inputs": [],
      "name": "state",
      "outputs": [
        {
          "internalType": "enum Market.State",
          "name": "",
          "type": "uint8"
        }
      ],
      "payable": false,
      "stateMutability": "view",
      "type": "function"
    },
    {
      "constant": true,
      "inputs": [
        {
          "internalType": "address",
          "name": "account",
          "type": "address"
        }
      ],
      "name": "getAccountBalance",
      "outputs": [
        {
          "internalType": "uint256",
          "name": "accountBalance",
          "type": "uint256"
        }
      ],
      "payable": false,
      "stateMutability": "view",
      "type": "function"
    },
    {
      "constant": false,
      "inputs": [
        {
          "internalType": "uint256",
          "name": "price",
          "type": "uint256"
        },
        {
          "internalType": "string",
          "name": "item_name",
          "type": "string"
        },
        {
          "internalType": "string",
          "name": "item_description",
          "type": "string"
        }
      ],
      "name": "createListings",
      "outputs": [],
      "payable": true,
      "stateMutability": "payable",
      "type": "function"
    },
    {
      "constant": true,
      "inputs": [],
      "name": "fetchactivelistings",
      "outputs": [
        {
          "components": [
            {
              "internalType": "uint256",
              "name": "auction_id",
              "type": "uint256"
            },
            {
              "internalType": "address payable",
              "name": "beneficiary",
              "type": "address"
            },
            {
              "internalType": "address payable",
              "name": "buyer",
              "type": "address"
            },
            {
              "internalType": "uint256",
              "name": "price",
              "type": "uint256"
            },
            {
              "internalType": "string",
              "name": "item_name",
              "type": "string"
            },
            {
              "internalType": "string",
              "name": "item_description",
              "type": "string"
            },
            {
              "internalType": "bool",
              "name": "sold_or_withdrawn",
              "type": "bool"
            },
            {
              "internalType": "bool",
              "name": "buyer_alloted",
              "type": "bool"
            },
            {
              "internalType": "string",
              "name": "pubkey",
              "type": "string"
            },
            {
              "internalType": "string",
              "name": "H",
              "type": "string"
            },
            {
              "internalType": "enum Market.State",
              "name": "state",
              "type": "uint8"
            }
          ],
          "internalType": "struct Market.listings[]",
          "name": "",
          "type": "tuple[]"
        }
      ],
      "payable": false,
      "stateMutability": "view",
      "type": "function"
    },
    {
      "constant": true,
      "inputs": [],
      "name": "fetchalllistings",
      "outputs": [
        {
          "components": [
            {
              "internalType": "uint256",
              "name": "auction_id",
              "type": "uint256"
            },
            {
              "internalType": "address payable",
              "name": "beneficiary",
              "type": "address"
            },
            {
              "internalType": "address payable",
              "name": "buyer",
              "type": "address"
            },
            {
              "internalType": "uint256",
              "name": "price",
              "type": "uint256"
            },
            {
              "internalType": "string",
              "name": "item_name",
              "type": "string"
            },
            {
              "internalType": "string",
              "name": "item_description",
              "type": "string"
            },
            {
              "internalType": "bool",
              "name": "sold_or_withdrawn",
              "type": "bool"
            },
            {
              "internalType": "bool",
              "name": "buyer_alloted",
              "type": "bool"
            },
            {
              "internalType": "string",
              "name": "pubkey",
              "type": "string"
            },
            {
              "internalType": "string",
              "name": "H",
              "type": "string"
            },
            {
              "internalType": "enum Market.State",
              "name": "state",
              "type": "uint8"
            }
          ],
          "internalType": "struct Market.listings[]",
          "name": "",
          "type": "tuple[]"
        }
      ],
      "payable": false,
      "stateMutability": "view",
      "type": "function"
    },
    {
      "constant": false,
      "inputs": [
        {
          "internalType": "uint256",
          "name": "auction_id",
          "type": "uint256"
        },
        {
          "internalType": "string",
          "name": "pubkey",
          "type": "string"
        }
      ],
      "name": "requestBuy",
      "outputs": [],
      "payable": true,
      "stateMutability": "payable",
      "type": "function"
    },
    {
      "constant": false,
      "inputs": [
        {
          "internalType": "uint256",
          "name": "auction_id",
          "type": "uint256"
        },
        {
          "internalType": "string",
          "name": "H",
          "type": "string"
        }
      ],
      "name": "sellItem",
      "outputs": [],
      "payable": true,
      "stateMutability": "payable",
      "type": "function"
    },
    {
      "constant": false,
      "inputs": [
        {
          "internalType": "uint256",
          "name": "auction_id",
          "type": "uint256"
        }
      ],
      "name": "confirmDelivery",
      "outputs": [],
      "payable": true,
      "stateMutability": "payable",
      "type": "function"
    },
    {
      "constant": false,
      "inputs": [
        {
          "internalType": "uint256",
          "name": "auction_id",
          "type": "uint256"
        }
      ],
      "name": "abort",
      "outputs": [],
      "payable": false,
      "stateMutability": "nonpayable",
      "type": "function"
    }
  ],
  "bytecode": "0x608060405260008055600060015534801561001957600080fd5b5061293e806100296000396000f3fe6080604052600436106100915760003560e01c8063bc35529011610059578063bc35529014610161578063c19d93fb1461018c578063e50701f4146101b7578063f09c4905146101e0578063fd84cb97146101fc57610091565b806314e24f6d146100965780631faa3538146100b25780635fc35e98146100dd57806384febc4b1461010857806393423e9c14610124575b600080fd5b6100b060048036036100ab9190810190611cb8565b610218565b005b3480156100be57600080fd5b506100c76105a6565b6040516100d49190612486565b60405180910390f35b3480156100e957600080fd5b506100f2610a32565b6040516100ff9190612486565b60405180910390f35b610122600480360361011d9190810190611c60565b610e8d565b005b34801561013057600080fd5b5061014b60048036036101469190810190611c0e565b6110e4565b6040516101589190612642565b60405180910390f35b34801561016d57600080fd5b50610176611105565b6040516101839190612642565b60405180910390f35b34801561019857600080fd5b506101a161110b565b6040516101ae91906124a8565b60405180910390f35b3480156101c357600080fd5b506101de60048036036101d99190810190611c37565b61111e565b005b6101fa60048036036101f59190810190611c60565b611278565b005b61021660048036036102119190810190611c37565b61161a565b005b600085118061022657600080fd5b60008054905060016000808282540192505081905550600180600082825401925050819055506040518061016001604052808281526020013373ffffffffffffffffffffffffffffffffffffffff168152602001600073ffffffffffffffffffffffffffffffffffffffff16815260200188815260200187878080601f016020809104026020016040519081016040528093929190818152602001838380828437600081840152601f19601f82011690508083019250505050505050815260200185858080601f016020809104026020016040519081016040528093929190818152602001838380828437600081840152601f19601f8201169050808301925050505050505081526020016000151581526020016000151581526020016040518060200160405280600081525081526020016040518060200160405280600081525081526020016001600481111561037a57fe5b815250600260008381526020019081526020016000206000820151816000015560208201518160010160006101000a81548173ffffffffffffffffffffffffffffffffffffffff021916908373ffffffffffffffffffffffffffffffffffffffff16021790555060408201518160020160006101000a81548173ffffffffffffffffffffffffffffffffffffffff021916908373ffffffffffffffffffffffffffffffffffffffff16021790555060608201518160030155608082015181600401908051906020019061044e9291906119e0565b5060a082015181600501908051906020019061046b9291906119e0565b5060c08201518160060160006101000a81548160ff02191690831515021790555060e08201518160060160016101000a81548160ff0219169083151502179055506101008201518160070190805190602001906104c99291906119e0565b506101208201518160080190805190602001906104e79291906119e0565b506101408201518160090160006101000a81548160ff0219169083600481111561050d57fe5b0217905550905050807f6046a0779403a9b58628db4e89f8fb48ddd1844ca3df25a728482823988b43af33898989898960405161054f9695949392919061242f565b60405180910390a26001543373ffffffffffffffffffffffffffffffffffffffff167fe5317da7a2a5a513758a425cd8d8926ce3e58f239f2c630a790fc6b038dd3bd060405160405180910390a350505050505050565b6060600080905060606001546040519080825280602002602001820160405280156105eb57816020015b6105d8611a60565b8152602001906001900390816105d05790505b50905060008090505b600054811015610a2957600015156002600083815260200190815260200160002060060160009054906101000a900460ff1615151415610a1c5760006002600083815260200190815260200160002090508060405180610160016040529081600082015481526020016001820160009054906101000a900473ffffffffffffffffffffffffffffffffffffffff1673ffffffffffffffffffffffffffffffffffffffff1673ffffffffffffffffffffffffffffffffffffffff1681526020016002820160009054906101000a900473ffffffffffffffffffffffffffffffffffffffff1673ffffffffffffffffffffffffffffffffffffffff1673ffffffffffffffffffffffffffffffffffffffff16815260200160038201548152602001600482018054600181600116156101000203166002900480601f0160208091040260200160405190810160405280929190818152602001828054600181600116156101000203166002900480156107ab5780601f10610780576101008083540402835291602001916107ab565b820191906000526020600020905b81548152906001019060200180831161078e57829003601f168201915b50505050508152602001600582018054600181600116156101000203166002900480601f01602080910402602001604051908101604052809291908181526020018280546001816001161561010002031660029004801561084d5780601f106108225761010080835404028352916020019161084d565b820191906000526020600020905b81548152906001019060200180831161083057829003601f168201915b505050505081526020016006820160009054906101000a900460ff161515151581526020016006820160019054906101000a900460ff16151515158152602001600782018054600181600116156101000203166002900480601f0160208091040260200160405190810160405280929190818152602001828054600181600116156101000203166002900480156109255780601f106108fa57610100808354040283529160200191610925565b820191906000526020600020905b81548152906001019060200180831161090857829003601f168201915b50505050508152602001600882018054600181600116156101000203166002900480601f0160208091040260200160405190810160405280929190818152602001828054600181600116156101000203166002900480156109c75780601f1061099c576101008083540402835291602001916109c7565b820191906000526020600020905b8154815290600101906020018083116109aa57829003601f168201915b505050505081526020016009820160009054906101000a900460ff1660048111156109ee57fe5b60048111156109f957fe5b81525050838581518110610a0957fe5b6020026020010181905250600184019350505b80806001019150506105f4565b50809250505090565b606060008090506060600054604051908082528060200260200182016040528015610a7757816020015b610a64611a60565b815260200190600190039081610a5c5790505b50905060008090505b600054811015610e845760006002600083815260200190815260200160002090508060405180610160016040529081600082015481526020016001820160009054906101000a900473ffffffffffffffffffffffffffffffffffffffff1673ffffffffffffffffffffffffffffffffffffffff1673ffffffffffffffffffffffffffffffffffffffff1681526020016002820160009054906101000a900473ffffffffffffffffffffffffffffffffffffffff1673ffffffffffffffffffffffffffffffffffffffff1673ffffffffffffffffffffffffffffffffffffffff16815260200160038201548152602001600482018054600181600116156101000203166002900480601f016020809104026020016040519081016040528092919081815260200182805460018160011615610100020316600290048015610c075780601f10610bdc57610100808354040283529160200191610c07565b820191906000526020600020905b815481529060010190602001808311610bea57829003601f168201915b50505050508152602001600582018054600181600116156101000203166002900480601f016020809104026020016040519081016040528092919081815260200182805460018160011615610100020316600290048015610ca95780601f10610c7e57610100808354040283529160200191610ca9565b820191906000526020600020905b815481529060010190602001808311610c8c57829003601f168201915b505050505081526020016006820160009054906101000a900460ff161515151581526020016006820160019054906101000a900460ff16151515158152602001600782018054600181600116156101000203166002900480601f016020809104026020016040519081016040528092919081815260200182805460018160011615610100020316600290048015610d815780601f10610d5657610100808354040283529160200191610d81565b820191906000526020600020905b815481529060010190602001808311610d6457829003601f168201915b50505050508152602001600882018054600181600116156101000203166002900480601f016020809104026020016040519081016040528092919081815260200182805460018160011615610100020316600290048015610e235780601f10610df857610100808354040283529160200191610e23565b820191906000526020600020905b815481529060010190602001808311610e0657829003601f168201915b505050505081526020016009820160009054906101000a900460ff166004811115610e4a57fe5b6004811115610e5557fe5b81525050838581518110610e6557fe5b6020026020010181905250600184019350508080600101915050610a80565b50809250505090565b8260005481108015610ea0575060008110155b610edf576040517f08c379a0000000000000000000000000000000000000000000000000000000008152600401610ed690612527565b60405180910390fd5b833373ffffffffffffffffffffffffffffffffffffffff166002600083815260200190815260200160002060020160009054906101000a900473ffffffffffffffffffffffffffffffffffffffff1673ffffffffffffffffffffffffffffffffffffffff161415610f85576040517f08c379a0000000000000000000000000000000000000000000000000000000008152600401610f7c906125a7565b60405180910390fd5b846002600082815260200190815260200160002060060160009054906101000a900460ff1615610fea576040517f08c379a0000000000000000000000000000000000000000000000000000000008152600401610fe190612587565b60405180910390fd5b60026000878152602001908152602001600020600301546002023414611045576040517f08c379a000000000000000000000000000000000000000000000000000000000815260040161103c90612547565b60405180910390fd5b600280600088815260200190815260200160002060090160006101000a81548160ff0219169083600481111561107757fe5b021790555084846002600089815260200190815260200160002060080191906110a1929190611af5565b50857f45bd963234a41bc8d75b2e2caf57f0987f5d405e1d4bbf09b919faeff927937c86866040516110d49291906124c3565b60405180910390a2505050505050565b60008173ffffffffffffffffffffffffffffffffffffffff16319050919050565b60015481565b600360009054906101000a900460ff1681565b806002600082815260200190815260200160002060060160009054906101000a900460ff1615611183576040517f08c379a000000000000000000000000000000000000000000000000000000000815260040161117a90612587565b60405180910390fd5b7f72c874aeff0b183a56e2b79c71b46e1aed4dee5e09862134b8821ba2fddbf8bf60405160405180910390a160046002600084815260200190815260200160002060090160006101000a81548160ff021916908360048111156111e257fe5b0217905550600180600082825403925050819055506002600083815260200190815260200160002060010160009054906101000a900473ffffffffffffffffffffffffffffffffffffffff1673ffffffffffffffffffffffffffffffffffffffff166108fc479081150290604051600060405180830381858888f19350505050158015611273573d6000803e3d6000fd5b505050565b823373ffffffffffffffffffffffffffffffffffffffff166002600083815260200190815260200160002060010160009054906101000a900473ffffffffffffffffffffffffffffffffffffffff1673ffffffffffffffffffffffffffffffffffffffff16141561131e576040517f08c379a0000000000000000000000000000000000000000000000000000000008152600401611315906125c7565b60405180910390fd5b8360005481108015611331575060008110155b611370576040517f08c379a000000000000000000000000000000000000000000000000000000000815260040161136790612527565b60405180910390fd5b846002600082815260200190815260200160002060060160009054906101000a900460ff16156113d5576040517f08c379a00000000000000000000000000000000000000000000000000000000081526004016113cc90612587565b60405180910390fd5b6002600087815260200190815260200160002060060160019054906101000a900460ff1615611439576040517f08c379a000000000000000000000000000000000000000000000000000000000815260040161143090612567565b60405180910390fd5b60026000878152602001908152602001600020600301543373ffffffffffffffffffffffffffffffffffffffff163110156114a9576040517f08c379a00000000000000000000000000000000000000000000000000000000081526004016114a0906124e7565b60405180910390fd5b60026000878152602001908152602001600020600301546002023414611504576040517f08c379a00000000000000000000000000000000000000000000000000000000081526004016114fb90612507565b60405180910390fd5b336002600088815260200190815260200160002060020160006101000a81548173ffffffffffffffffffffffffffffffffffffffff021916908373ffffffffffffffffffffffffffffffffffffffff16021790555060016002600088815260200190815260200160002060060160016101000a81548160ff02191690831515021790555084846002600089815260200190815260200160002060070191906115ad929190611af5565b503373ffffffffffffffffffffffffffffffffffffffff167f73faea86159f7dcd77362ca5006cece6202b7f70b30384b1f76d4366d754d7d160026000898152602001908152602001600020878760405161160a93929190612609565b60405180910390a2505050505050565b806000548110801561162d575060008110155b61166c576040517f08c379a000000000000000000000000000000000000000000000000000000000815260040161166390612527565b60405180910390fd5b813373ffffffffffffffffffffffffffffffffffffffff166002600083815260200190815260200160002060010160009054906101000a900473ffffffffffffffffffffffffffffffffffffffff1673ffffffffffffffffffffffffffffffffffffffff161415611712576040517f08c379a0000000000000000000000000000000000000000000000000000000008152600401611709906125c7565b60405180910390fd5b826002600082815260200190815260200160002060060160009054906101000a900460ff1615611777576040517f08c379a000000000000000000000000000000000000000000000000000000000815260040161176e90612587565b60405180910390fd5b60016002600086815260200190815260200160002060060160006101000a81548160ff0219169083151502179055506002600085815260200190815260200160002060010160009054906101000a900473ffffffffffffffffffffffffffffffffffffffff1673ffffffffffffffffffffffffffffffffffffffff166108fc60026000878152602001908152602001600020600301546003029081150290604051600060405180830381858888f1935050505015801561183b573d6000803e3d6000fd5b506002600085815260200190815260200160002060020160009054906101000a900473ffffffffffffffffffffffffffffffffffffffff1673ffffffffffffffffffffffffffffffffffffffff166108fc60026000878152602001908152602001600020600301549081150290604051600060405180830381858888f193505050501580156118ce573d6000803e3d6000fd5b506001806000828254039250508190555060036002600086815260200190815260200160002060090160006101000a81548160ff0219169083600481111561191257fe5b0217905550836002600086815260200190815260200160002060010160009054906101000a900473ffffffffffffffffffffffffffffffffffffffff1673ffffffffffffffffffffffffffffffffffffffff167fe5317da7a2a5a513758a425cd8d8926ce3e58f239f2c630a790fc6b038dd3bd060405160405180910390a37f3a693b04519b12a171c00a41f82c9b8e6d6feccb5576615e878a42e328dd5634600260008681526020019081526020016000206040516119d291906125e7565b60405180910390a150505050565b828054600181600116156101000203166002900490600052602060002090601f016020900481019282601f10611a2157805160ff1916838001178555611a4f565b82800160010185558215611a4f579182015b82811115611a4e578251825591602001919060010190611a33565b5b509050611a5c9190611b75565b5090565b60405180610160016040528060008152602001600073ffffffffffffffffffffffffffffffffffffffff168152602001600073ffffffffffffffffffffffffffffffffffffffff168152602001600081526020016060815260200160608152602001600015158152602001600015158152602001606081526020016060815260200160006004811115611aef57fe5b81525090565b828054600181600116156101000203166002900490600052602060002090601f016020900481019282601f10611b3657803560ff1916838001178555611b64565b82800160010185558215611b64579182015b82811115611b63578235825591602001919060010190611b48565b5b509050611b719190611b75565b5090565b611b9791905b80821115611b93576000816000905550600101611b7b565b5090565b90565b600081359050611ba9816128cd565b92915050565b60008083601f840112611bc157600080fd5b8235905067ffffffffffffffff811115611bda57600080fd5b602083019150836001820283011115611bf257600080fd5b9250929050565b600081359050611c08816128e4565b92915050565b600060208284031215611c2057600080fd5b6000611c2e84828501611b9a565b91505092915050565b600060208284031215611c4957600080fd5b6000611c5784828501611bf9565b91505092915050565b600080600060408486031215611c7557600080fd5b6000611c8386828701611bf9565b935050602084013567ffffffffffffffff811115611ca057600080fd5b611cac86828701611baf565b92509250509250925092565b600080600080600060608688031215611cd057600080fd5b6000611cde88828901611bf9565b955050602086013567ffffffffffffffff811115611cfb57600080fd5b611d0788828901611baf565b9450945050604086013567ffffffffffffffff811115611d2657600080fd5b611d3288828901611baf565b92509250509295509295909350565b6000611d4d83836121c8565b905092915050565b611d5e81612789565b82525050565b611d6d8161272e565b82525050565b6000611d7e82612682565b611d8881856126a5565b935083602082028501611d9a8561265d565b8060005b85811015611dd65784840389528151611db78582611d41565b9450611dc283612698565b925060208a01995050600181019050611d9e565b50829750879550505050505092915050565b611df181612740565b82525050565b611e008161279b565b82525050565b611e0f8161279b565b82525050565b6000611e2183856126c7565b9350611e2e8385846127d1565b611e3783612895565b840190509392505050565b6000611e4d8261268d565b611e5781856126b6565b9350611e678185602086016127e0565b611e7081612895565b840191505092915050565b600081546001811660008114611e985760018114611ebe57611f02565b607f6002830416611ea981876126b6565b955060ff198316865260208601935050611f02565b60028204611ecc81876126b6565b9550611ed78561266d565b60005b82811015611ef957815481890152600182019150602081019050611eda565b80880195505050505b505092915050565b6000611f176023836126c7565b91507f496e737566696369656e742042616c616e636520666f72207472616e7361637460008301527f696f6e00000000000000000000000000000000000000000000000000000000006020830152604082019050919050565b6000611f7d6030836126c7565b91507f546865207265717569726564206465706f73697420666f72207468652070757260008301527f6368617365206e6f7420676976656e20000000000000000000000000000000006020830152604082019050919050565b6000611fe36012836126c7565b91507f496e76616c6964204c697374696e6720496400000000000000000000000000006000830152602082019050919050565b60006120236026836126c7565b91507f596f752068617665206e6f74207061696420746865207365637572697479206460008301527f65706f73697400000000000000000000000000000000000000000000000000006020830152604082019050919050565b60006120896034836126c7565b91507f746865206974656d20616c72656164792068617320612062757965722c696e2060008301527f6d69647374206f66207472616e73616374696f6e0000000000000000000000006020830152604082019050919050565b60006120ef6028836126c7565b91507f4974656d2068617320616c7265616479206265656e20626f75676874202f207760008301527f697468647261776e0000000000000000000000000000000000000000000000006020830152604082019050919050565b60006121556013836126c7565b91507f496e76616c69642062656e6566696369617279000000000000000000000000006000830152602082019050919050565b6000612195600d836126c7565b91507f496e76616c6964204275796572000000000000000000000000000000000000006000830152602082019050919050565b6000610160830160008301516121e16000860182612411565b5060208301516121f46020860182611d64565b5060408301516122076040860182611d64565b50606083015161221a6060860182612411565b50608083015184820360808601526122328282611e42565b91505060a083015184820360a086015261224c8282611e42565b91505060c083015161226160c0860182611de8565b5060e083015161227460e0860182611de8565b5061010083015184820361010086015261228e8282611e42565b9150506101208301518482036101208601526122aa8282611e42565b9150506101408301516122c1610140860182611df7565b508091505092915050565b6000610160830160008084015490506122e481612861565b6122f16000870182612411565b506001840154905061230281612813565b61230f6020870182611d64565b506002840154905061232081612813565b61232d6040870182611d64565b506003840154905061233e81612861565b61234b6060870182612411565b506004840185830360808701526123628382611e7b565b9250506005840185830360a087015261237b8382611e7b565b9250506006840154905061238e8161282d565b61239b60c0870182611de8565b506123a58161287b565b6123b260e0870182611de8565b50600784018583036101008701526123ca8382611e7b565b925050600884018583036101208701526123e48382611e7b565b925050600984015490506123f781612847565b612405610140870182611df7565b50819250505092915050565b61241a8161277f565b82525050565b6124298161277f565b82525050565b60006080820190506124446000830189611d55565b6124516020830188612420565b8181036040830152612464818688611e15565b90508181036060830152612479818486611e15565b9050979650505050505050565b600060208201905081810360008301526124a08184611d73565b905092915050565b60006020820190506124bd6000830184611e06565b92915050565b600060208201905081810360008301526124de818486611e15565b90509392505050565b6000602082019050818103600083015261250081611f0a565b9050919050565b6000602082019050818103600083015261252081611f70565b9050919050565b6000602082019050818103600083015261254081611fd6565b9050919050565b6000602082019050818103600083015261256081612016565b9050919050565b600060208201905081810360008301526125808161207c565b9050919050565b600060208201905081810360008301526125a0816120e2565b9050919050565b600060208201905081810360008301526125c081612148565b9050919050565b600060208201905081810360008301526125e081612188565b9050919050565b6000602082019050818103600083015261260181846122cc565b905092915050565b6000604082019050818103600083015261262381866122cc565b90508181036020830152612638818486611e15565b9050949350505050565b60006020820190506126576000830184612420565b92915050565b6000819050602082019050919050565b60008190508160005260206000209050919050565b600081519050919050565b600081519050919050565b6000602082019050919050565b600082825260208201905092915050565b600082825260208201905092915050565b600082825260208201905092915050565b600073ffffffffffffffffffffffffffffffffffffffff82169050919050565b600060ff82169050919050565b600060ff82169050919050565b6000819050919050565b60006127278261275f565b9050919050565b60006127398261275f565b9050919050565b60008115159050919050565b600081905061275a826128c0565b919050565b600073ffffffffffffffffffffffffffffffffffffffff82169050919050565b6000819050919050565b6000612794826127ad565b9050919050565b60006127a68261274c565b9050919050565b60006127b8826127bf565b9050919050565b60006127ca8261275f565b9050919050565b82818337600083830152505050565b60005b838110156127fe5780820151818401526020810190506127e3565b8381111561280d576000848401525b50505050565b6000612826612821836128a6565b6126d8565b9050919050565b600061284061283b836128a6565b6126f8565b9050919050565b600061285a612855836128a6565b612705565b9050919050565b600061287461286f836128a6565b612712565b9050919050565b600061288e612889836128b3565b6126f8565b9050919050565b6000601f19601f8301169050919050565b60008160001c9050919050565b60008160081c9050919050565b600581106128ca57fe5b50565b6128d68161271c565b81146128e157600080fd5b50565b6128ed8161277f565b81146128f857600080fd5b5056fea365627a7a72315820c331e4a19b2ba74d1b4fe54e0bf59c9607d8459a56e1fee9879ce3ef60a18f676c6578706572696d656e74616cf564736f6c63430005100040",
  "source": "/// SPDX-License-Identifier: MIT\npragma solidity >=0.4.22 <0.9.0;\npragma experimental ABIEncoderV2;\n\n/// @title The contract for buying and selling items on a market\ncontract Market {\n    uint256 current_auction_id = 0;\n    uint256 public activelistings = 0;\n\n    struct Bid {\n        bytes32 bidHash;\n        uint256 bidAmount;\n    }\n    /// @notice structure for each listings\n    /// @dev uint is the unique listing id\n    /// @dev beneficiary stores the beneficiary address\n    /// @dev buyer stores the buyer address\n    /// @dev price is the price of the item\n    /// @dev item_name is the name of the item\n    /// @dev item_description has the description of the item\n\n    struct listings {\n        uint256 auction_id;\n        address payable beneficiary;\n        address payable buyer;\n        uint256 price;\n        string item_name;\n        string item_description;\n        bool sold_or_withdrawn;\n        bool buyer_alloted;\n        string pubkey;\n        string H;\n        State state;\n    }\n\n    /// @dev this event is emitted when a listing is created\n    event ListingCreated(\n        uint256 indexed auction_id,\n        address beneficiary,\n        uint256 price,\n        string item_name,\n        string item_description\n    );\n    /// @dev this event is for when listing is modified ,item sold or withdrawn\n    event ListingChanged(address indexed beneficiary, uint256 indexed index);\n    /// @dev this event is for when item purchase is requested by buyer\n    event PurchaseRequested(\n        listings list,\n        address indexed buyer,\n        string pub_key\n    );\n    /// @dev this event is for when beneficiary confirms item purchase by buyer\n    event encryptedKey(uint256 indexed auction_id, string H);\n    /// @dev event emitted when the a item is bought and both the beneficiary and buyer gets the money/item\n    event PurchaseComplete(listings list);\n    /// @dev this event is for when transaction is aborted\n    event Aborted();\n\n    /// @dev this event is for when listing is modified ,item sold or withdrawn\n    event AuctionStarted(address winner, uint256 highestBid);\n    /// @dev this event is for when listing is modified ,item sold or withdrawn\n    event AuctionEnded(address winner, uint256 highestBid);\n\n    /// @dev create a listing for all possible listing id and make it private\n    mapping(uint256 => listings) private Listings;\n\n    /// @dev State variables for the items listed. By default, it is Created\n    enum State {\n        Created,\n        Active,\n        Sold,\n        Delivered,\n        Inactive\n    }\n    State public state;\n\n    /// @notice Check whether a given condition is true\n    /// @param _condition condition statement to verify.\n    modifier condition(bool _condition) {\n        require(_condition);\n        _;\n    }\n\n    /// @notice beneficiary cannot be buyer of the same item\n    /// @param auction_id Id of the listing.\n    modifier ValidBuyer(uint256 auction_id) {\n        require(\n            Listings[auction_id].beneficiary != msg.sender,\n            \"Invalid Buyer\"\n        );\n        _;\n    }\n\n    /// @notice Buyer cannot be beneficiary of the same item\n    /// @param auction_id Id of the listing.\n    modifier Validbeneficiary(uint256 auction_id) {\n        require(\n            Listings[auction_id].buyer != msg.sender,\n            \"Invalid beneficiary\"\n        );\n        _;\n    }\n\n    /// @notice Check that an item is available\n    /// @param auction_id Id of the listing.\n    modifier CheckState(uint256 auction_id) {\n        require(\n            !Listings[auction_id].sold_or_withdrawn,\n            \"Item has already been bought / withdrawn\"\n        );\n        _;\n    }\n\n    /// @notice Item in use should be a valid listing\n    /// @param auction_id Id of the listing.\n    modifier ValidListing(uint256 auction_id) {\n        require(\n            auction_id < current_auction_id && auction_id >= 0,\n            \"Invalid Listing Id\"\n        );\n        _;\n    }\n\n    modifier onlyBefore(uint256 _time) {\n        require(block.timestamp < _time);\n        _;\n    }\n    modifier onlyAfter(uint256 _time) {\n        require(block.timestamp > _time);\n        _;\n    }\n\n    /// @notice Check that the string meets the required criteria\n    /// @param str The item string.\n    modifier ValidString(string memory str) {\n        require(\n            bytes(str).length <= 50,\n            \"String Length is 50 characters maximum\"\n        );\n        _;\n    }\n\n    /// @notice returns balance of account\n    /// @param account Address of the account.\n    function getAccountBalance(address account)\n        public\n        view\n        returns (uint256 accountBalance)\n    {\n        accountBalance = account.balance;\n    }\n\n    /// @notice Create a listing for sale in the market place\n    /// @param price Price of the item listed.\n    /// @param item_name Name of item listed\n    /// @param item_description Description of item.\n    function createListings(\n        uint256 price,\n        string calldata item_name,\n        string calldata item_description\n    ) external payable condition(price > 0) {\n        uint256 auction_id = current_auction_id;\n        current_auction_id += 1;\n        activelistings += 1;\n\n        Listings[auction_id] = listings(\n            auction_id,\n            msg.sender,\n            address(0),\n            price,\n            item_name,\n            item_description,\n            false,\n            false,\n            \"\",\n            \"\",\n            State.Active\n        );\n        /// @dev emit the update\n        emit ListingCreated(\n            auction_id,\n            msg.sender,\n            price,\n            item_name,\n            item_description\n        );\n        emit ListingChanged(msg.sender, activelistings);\n    }\n\n    /// @notice Get all the active listings items in the market\n    /// @return a list of active listings\n    function fetchactivelistings() external view returns (listings[] memory) {\n        uint256 currentIndex = 0;\n\n        listings[] memory active_list = new listings[](activelistings);\n        for (uint256 i = 0; i < current_auction_id; i++) {\n            /// @dev only consider listings which are unsold/not withdrawn\n            if (Listings[i].sold_or_withdrawn == false) {\n                listings storage currentlisting = Listings[i];\n                active_list[currentIndex] = currentlisting;\n                currentIndex += 1;\n            }\n        }\n        return active_list;\n    }\n\n    /// Get all the listings items in the market\n    /// @return a list of all listings\n    function fetchalllistings() external view returns (listings[] memory) {\n        uint256 currentIndex = 0;\n\n        listings[] memory list = new listings[](current_auction_id);\n        for (uint256 i = 0; i < current_auction_id; i++) {\n            listings storage currentlisting = Listings[i];\n            list[currentIndex] = currentlisting;\n            currentIndex += 1;\n        }\n        return list;\n    }\n\n    /// @notice Request from buyer to beneficiary for item's purchase\n    /// @dev the contract emits a event to let the beneficiary know that an buyer has been found\n    /// @param auction_id is the id of the item buyer is interested in\n    function requestBuy(uint256 auction_id, string calldata pubkey)\n        external\n        payable\n        ValidBuyer(auction_id)\n        ValidListing(auction_id)\n        CheckState(auction_id)\n    {\n        /// Check whether item has a buyer already\n        require(\n            !Listings[auction_id].buyer_alloted,\n            \"the item already has a buyer,in midst of transaction\"\n        );\n\n        /// Check sufficient balance for transfer\n        require(\n            msg.sender.balance >= Listings[auction_id].price,\n            \"Insuficient Balance for transaction\"\n        );\n\n        /// Check whether you have provided 2 times the selling price,for security purposes\n        require(\n            msg.value == 2 * Listings[auction_id].price,\n            \"The required deposit for the purchase not given \"\n        );\n\n        /// Let the beneficiary know you have found a buyer\n        Listings[auction_id].buyer = msg.sender;\n        Listings[auction_id].buyer_alloted = true;\n        Listings[auction_id].pubkey = pubkey;\n        emit PurchaseRequested(Listings[auction_id], msg.sender, pubkey);\n    }\n\n    /// @notice Sale of item from beneficiary's side\n    /// @dev Transaction from the beneficiary\n    /// @dev listing id is the id of the item being sold_\n    /// @dev H is the unique string for the item\n    function sellItem(uint256 auction_id, string calldata H)\n        external\n        payable\n        ValidListing(auction_id)\n        Validbeneficiary(auction_id)\n        CheckState(auction_id)\n    {\n        /// Check the security deposits\n        require(\n            msg.value == 2 * Listings[auction_id].price,\n            \"You have not paid the security deposit\"\n        );\n        Listings[auction_id].state = State.Sold;\n        Listings[auction_id].H = H;\n        /// Listings[auction_id].sold_or_withdrawn = true;\n\n        emit encryptedKey(auction_id, H);\n    }\n\n    /// @notice Confirmation from buyer on receiving item\n    /// @dev the buyer confirms to get the refund of the money owed.(price)\n    /// @dev the beneficiary gets his amount + price (3 * price)\n    /// @param auction_id the listing id is the item being exchanged\n    function confirmDelivery(uint256 auction_id)\n        external\n        payable\n        ValidListing(auction_id)\n        ValidBuyer(auction_id)\n        CheckState(auction_id)\n    {\n        /// Refund the beneficiary\n        Listings[auction_id].sold_or_withdrawn = true;\n        Listings[auction_id].beneficiary.transfer(\n            3 * Listings[auction_id].price\n        );\n        /// Refund the buyer\n        Listings[auction_id].buyer.transfer(Listings[auction_id].price);\n        activelistings -= 1;\n        Listings[auction_id].state = State.Delivered;\n        emit ListingChanged(Listings[auction_id].beneficiary, auction_id);\n        emit PurchaseComplete(Listings[auction_id]);\n    }\n\n    /// @notice Abort the purchase and reclaim the ether.\n    function abort(uint256 auction_id) public CheckState(auction_id) {\n        emit Aborted();\n        Listings[auction_id].state = State.Inactive;\n        activelistings -= 1;\n        Listings[auction_id].beneficiary.transfer(address(this).balance);\n    }\n}\n",
  "sourcePath": "/home/rutvij/programming/Assignments/DTBC/Block-Chain-Collab/Assignments/2/contracts/Market.sol",
  "compiler": {
    "name": "solc",
    "version": "0.5.16+commit.9c3226ce.Emscripten.clang"
  },
  "schemaVersion": "3.4.3",
  "updatedAt": "2021-10-15T14:49:38.662Z",
  "networkType": "ethereum",
  "devdoc": {
    "methods": {
      "confirmDelivery(uint256)": {
        "details": "the buyer confirms to get the refund of the money owed.(price)the beneficiary gets his amount + price (3 * price)",
        "params": {
          "auction_id": "the listing id is the item being exchanged"
        }
      },
      "createListings(uint256,string,string)": {
        "params": {
          "item_description": "Description of item.",
          "item_name": "Name of item listed",
          "price": "Price of the item listed."
        }
      },
      "fetchactivelistings()": {
        "return": "a list of active listings"
      },
      "fetchalllistings()": {
        "return": "a list of all listings"
      },
      "getAccountBalance(address)": {
        "params": {
          "account": "Address of the account."
        }
      },
      "requestBuy(uint256,string)": {
        "details": "the contract emits a event to let the beneficiary know that an buyer has been found",
        "params": {
          "auction_id": "is the id of the item buyer is interested in"
        }
      },
      "sellItem(uint256,string)": {
        "details": "Transaction from the beneficiarylisting id is the id of the item being sold_H is the unique string for the item"
      }
    },
    "title": "The contract for buying and selling items on a market"
  },
  "userdoc": {
    "methods": {
      "abort(uint256)": {
        "notice": "Abort the purchase and reclaim the ether."
      },
      "confirmDelivery(uint256)": {
        "notice": "Confirmation from buyer on receiving item"
      },
      "createListings(uint256,string,string)": {
        "notice": "Create a listing for sale in the market place"
      },
      "fetchactivelistings()": {
        "notice": "Get all the active listings items in the market"
      },
      "fetchalllistings()": {
        "notice": "Get all the listings items in the market"
      },
      "getAccountBalance(address)": {
        "notice": "returns balance of account"
      },
      "requestBuy(uint256,string)": {
        "notice": "Request from buyer to beneficiary for item's purchase"
      },
      "sellItem(uint256,string)": {
        "notice": "Sale of item from beneficiary's side"
      }
    }
  }
}