{
  "contractName": "VickreyAuction2",
  "abi": [
    {
      "anonymous": false,
      "inputs": [
        {
          "indexed": false,
          "internalType": "uint256",
          "name": "Auction_id",
          "type": "uint256"
        },
        {
          "indexed": false,
          "internalType": "address",
          "name": "highestBidder",
          "type": "address"
        },
        {
          "indexed": false,
          "internalType": "uint256",
          "name": "highestBid",
          "type": "uint256"
        }
      ],
      "name": "AuctionEnded",
      "type": "event"
    },
    {
      "anonymous": false,
      "inputs": [
        {
          "indexed": false,
          "internalType": "uint256",
          "name": "Auction_id",
          "type": "uint256"
        },
        {
          "indexed": false,
          "internalType": "string",
          "name": "item_name",
          "type": "string"
        },
        {
          "indexed": false,
          "internalType": "string",
          "name": "item_description",
          "type": "string"
        }
      ],
      "name": "AuctionStarted",
      "type": "event"
    },
    {
      "anonymous": false,
      "inputs": [
        {
          "indexed": false,
          "internalType": "uint256",
          "name": "auction_id",
          "type": "uint256"
        },
        {
          "indexed": false,
          "internalType": "address",
          "name": "bidder",
          "type": "address"
        },
        {
          "indexed": false,
          "internalType": "uint256",
          "name": "balance",
          "type": "uint256"
        }
      ],
      "name": "BalanceRefunded",
      "type": "event"
    },
    {
      "anonymous": false,
      "inputs": [
        {
          "indexed": false,
          "internalType": "address",
          "name": "bidder",
          "type": "address"
        }
      ],
      "name": "BidMade",
      "type": "event"
    },
    {
      "anonymous": false,
      "inputs": [
        {
          "indexed": false,
          "internalType": "uint256",
          "name": "Auction_id",
          "type": "uint256"
        },
        {
          "indexed": false,
          "internalType": "address",
          "name": "bidder",
          "type": "address"
        }
      ],
      "name": "BidRevealFailed",
      "type": "event"
    },
    {
      "anonymous": false,
      "inputs": [
        {
          "indexed": false,
          "internalType": "uint256",
          "name": "Auction_id",
          "type": "uint256"
        },
        {
          "indexed": false,
          "internalType": "address",
          "name": "bidder",
          "type": "address"
        }
      ],
      "name": "BidRevealed",
      "type": "event"
    },
    {
      "anonymous": false,
      "inputs": [
        {
          "indexed": false,
          "internalType": "uint256",
          "name": "auction_id",
          "type": "uint256"
        },
        {
          "indexed": false,
          "internalType": "address",
          "name": "bidder",
          "type": "address"
        },
        {
          "indexed": false,
          "internalType": "uint256",
          "name": "bid_value",
          "type": "uint256"
        }
      ],
      "name": "BidderRefunded",
      "type": "event"
    },
    {
      "anonymous": false,
      "inputs": [
        {
          "indexed": false,
          "internalType": "uint256",
          "name": "Auction_id",
          "type": "uint256"
        }
      ],
      "name": "BiddingPeriodEnded",
      "type": "event"
    },
    {
      "anonymous": false,
      "inputs": [
        {
          "indexed": false,
          "internalType": "uint256",
          "name": "Auction_id",
          "type": "uint256"
        },
        {
          "indexed": false,
          "internalType": "uint256",
          "name": "bidding_end",
          "type": "uint256"
        }
      ],
      "name": "BiddingStarted",
      "type": "event"
    },
    {
      "anonymous": false,
      "inputs": [
        {
          "indexed": false,
          "internalType": "uint256",
          "name": "auction_id",
          "type": "uint256"
        },
        {
          "indexed": false,
          "internalType": "address",
          "name": "bidder",
          "type": "address"
        }
      ],
      "name": "DepositNotEnough",
      "type": "event"
    },
    {
      "anonymous": false,
      "inputs": [
        {
          "indexed": false,
          "internalType": "uint256",
          "name": "auction_id",
          "type": "uint256"
        }
      ],
      "name": "ItemUnsold",
      "type": "event"
    },
    {
      "anonymous": false,
      "inputs": [
        {
          "indexed": false,
          "internalType": "uint256",
          "name": "auction_id",
          "type": "uint256"
        },
        {
          "indexed": false,
          "internalType": "address",
          "name": "bidder",
          "type": "address"
        },
        {
          "indexed": false,
          "internalType": "uint256",
          "name": "bid_value",
          "type": "uint256"
        }
      ],
      "name": "NewHighestBid",
      "type": "event"
    },
    {
      "anonymous": false,
      "inputs": [
        {
          "indexed": false,
          "internalType": "uint256",
          "name": "Auction_id",
          "type": "uint256"
        }
      ],
      "name": "RevealPeriodEnded",
      "type": "event"
    },
    {
      "anonymous": false,
      "inputs": [
        {
          "indexed": false,
          "internalType": "uint256",
          "name": "Auction_id",
          "type": "uint256"
        },
        {
          "indexed": false,
          "internalType": "uint256",
          "name": "reveal_end",
          "type": "uint256"
        }
      ],
      "name": "RevealPeriodStarted",
      "type": "event"
    },
    {
      "anonymous": false,
      "inputs": [
        {
          "indexed": false,
          "internalType": "uint256",
          "name": "Auction_id",
          "type": "uint256"
        },
        {
          "indexed": false,
          "internalType": "address",
          "name": "winner",
          "type": "address"
        }
      ],
      "name": "WinnerChosen",
      "type": "event"
    },
    {
      "constant": true,
      "inputs": [
        {
          "internalType": "address",
          "name": "account",
          "type": "address"
        }
      ],
      "name": "getAccountBalance",
      "outputs": [
        {
          "internalType": "uint256",
          "name": "accountBalance",
          "type": "uint256"
        }
      ],
      "payable": false,
      "stateMutability": "view",
      "type": "function"
    },
    {
      "constant": false,
      "inputs": [
        {
          "internalType": "string",
          "name": "item_name",
          "type": "string"
        },
        {
          "internalType": "string",
          "name": "item_description",
          "type": "string"
        },
        {
          "internalType": "uint256",
          "name": "bidding_time",
          "type": "uint256"
        },
        {
          "internalType": "uint256",
          "name": "reveal_time",
          "type": "uint256"
        }
      ],
      "name": "auctionItem",
      "outputs": [],
      "payable": true,
      "stateMutability": "payable",
      "type": "function"
    },
    {
      "constant": true,
      "inputs": [],
      "name": "getactiveauctions",
      "outputs": [
        {
          "components": [
            {
              "internalType": "uint256",
              "name": "auction_id",
              "type": "uint256"
            },
            {
              "internalType": "address payable",
              "name": "beneficiary",
              "type": "address"
            },
            {
              "internalType": "uint256",
              "name": "biddingEnd",
              "type": "uint256"
            },
            {
              "internalType": "uint256",
              "name": "revealEnd",
              "type": "uint256"
            },
            {
              "internalType": "bool",
              "name": "ended",
              "type": "bool"
            },
            {
              "internalType": "string",
              "name": "item_name",
              "type": "string"
            },
            {
              "internalType": "string",
              "name": "item_description",
              "type": "string"
            }
          ],
          "internalType": "struct VickreyAuction2.auction_listings[]",
          "name": "",
          "type": "tuple[]"
        }
      ],
      "payable": false,
      "stateMutability": "view",
      "type": "function"
    },
    {
      "constant": false,
      "inputs": [
        {
          "internalType": "bytes32",
          "name": "blindedBid",
          "type": "bytes32"
        },
        {
          "internalType": "uint256",
          "name": "auction_id",
          "type": "uint256"
        }
      ],
      "name": "bid",
      "outputs": [],
      "payable": true,
      "stateMutability": "payable",
      "type": "function"
    },
    {
      "constant": false,
      "inputs": [
        {
          "internalType": "uint256",
          "name": "value",
          "type": "uint256"
        },
        {
          "internalType": "string",
          "name": "secret",
          "type": "string"
        },
        {
          "internalType": "uint256",
          "name": "auction_id",
          "type": "uint256"
        }
      ],
      "name": "reveal",
      "outputs": [],
      "payable": true,
      "stateMutability": "payable",
      "type": "function"
    },
    {
      "constant": false,
      "inputs": [
        {
          "internalType": "uint256",
          "name": "auction_id",
          "type": "uint256"
        }
      ],
      "name": "withdraw",
      "outputs": [],
      "payable": false,
      "stateMutability": "nonpayable",
      "type": "function"
    },
    {
      "constant": false,
      "inputs": [
        {
          "internalType": "uint256",
          "name": "auction_id",
          "type": "uint256"
        }
      ],
      "name": "auctionEnd",
      "outputs": [],
      "payable": false,
      "stateMutability": "nonpayable",
      "type": "function"
    }
  ],
  "bytecode": "0x60806040526000600155600060025534801561001a57600080fd5b506127a98061002a6000396000f3fe6080604052600436106100705760003560e01c806393423e9c1161004e57806393423e9c146100e357806396a18f8014610120578063cd772f5c1461014b578063e701cfc21461016757610070565b80632e1a7d4d1461007557806332246e9f1461009e5780634f3ae594146100c7575b600080fd5b34801561008157600080fd5b5061009c60048036036100979190810190611e36565b610183565b005b3480156100aa57600080fd5b506100c560048036036100c09190810190611e36565b610385565b005b6100e160048036036100dc9190810190611e5f565b610b05565b005b3480156100ef57600080fd5b5061010a60048036036101059190810190611d36565b610e6c565b6040516101179190612466565b60405180910390f35b34801561012c57600080fd5b50610135610e8d565b6040516101429190612344565b60405180910390f35b61016560048036036101609190810190611d5f565b611123565b005b610181600480360361017c9190810190611d9b565b6113e8565b005b806001151560008083815260200190815260200160002060040160009054906101000a900460ff161515146101ed576040517f08c379a00000000000000000000000000000000000000000000000000000000081526004016101e490612366565b60405180910390fd5b6000806000848152602001908152602001600020600c0160003373ffffffffffffffffffffffffffffffffffffffff1673ffffffffffffffffffffffffffffffffffffffff168152602001908152602001600020541115610381576000806000848152602001908152602001600020600c0160003373ffffffffffffffffffffffffffffffffffffffff1673ffffffffffffffffffffffffffffffffffffffff1681526020019081526020016000205490506000806000858152602001908152602001600020600c0160003373ffffffffffffffffffffffffffffffffffffffff1673ffffffffffffffffffffffffffffffffffffffff1681526020019081526020016000208190555060003390508073ffffffffffffffffffffffffffffffffffffffff166108fc839081150290604051600060405180830381858888f19350505050158015610342573d6000803e3d6000fd5b507fa01ed4ff1bfc084518bd795b4114da41c800c9ae1fc5e594cb505cb4c0c3fae1843384604051610376939291906124e1565b60405180910390a150505b5050565b600080828152602001908152602001600020600301548042116103dd576040517f08c379a00000000000000000000000000000000000000000000000000000000081526004016103d490612406565b60405180910390fd5b813373ffffffffffffffffffffffffffffffffffffffff1660008083815260200190815260200160002060010160009054906101000a900473ffffffffffffffffffffffffffffffffffffffff1673ffffffffffffffffffffffffffffffffffffffff1614610481576040517f08c379a0000000000000000000000000000000000000000000000000000000008152600401610478906123a6565b60405180910390fd5b826000151560008083815260200190815260200160002060040160009054906101000a900460ff161515146104eb576040517f08c379a00000000000000000000000000000000000000000000000000000000081526004016104e290612386565b60405180910390fd5b600073ffffffffffffffffffffffffffffffffffffffff1660008086815260200190815260200160002060070160019054906101000a900473ffffffffffffffffffffffffffffffffffffffff1673ffffffffffffffffffffffffffffffffffffffff161480156105715750600080600086815260200190815260200160002060080154145b1561061c577ff656db5d7eec16959704ab1442c4686390e8bdca6e2fd99d193f6871512359ea846040516105a59190612466565b60405180910390a17fd2aa34a4fdbbc6dff6a3e56f46e0f3ae2a31d7785ff3487aa5c95c642acea501846000806040516105e1939291906124aa565b60405180910390a1600160008086815260200190815260200160002060040160006101000a81548160ff021916908315150217905550610aff565b600073ffffffffffffffffffffffffffffffffffffffff16600080868152602001908152602001600020600a0160009054906101000a900473ffffffffffffffffffffffffffffffffffffffff1673ffffffffffffffffffffffffffffffffffffffff161480156106a25750600080600086815260200190815260200160002060090154145b1561088c577fd2aa34a4fdbbc6dff6a3e56f46e0f3ae2a31d7785ff3487aa5c95c642acea5018460008087815260200190815260200160002060070160019054906101000a900473ffffffffffffffffffffffffffffffffffffffff1660008088815260200190815260200160002060080154604051610724939291906124e1565b60405180910390a1600160008086815260200190815260200160002060040160006101000a81548160ff021916908315150217905550600160008086815260200190815260200160002060070160006101000a81548160ff02191690831515021790555060008085815260200190815260200160002060010160009054906101000a900473ffffffffffffffffffffffffffffffffffffffff1673ffffffffffffffffffffffffffffffffffffffff166108fc600080878152602001908152602001600020600801549081150290604051600060405180830381858888f19350505050158015610818573d6000803e3d6000fd5b507f3bc05d77c749538b04c637d624a0e50d28a1cf181657405d944d039de39d96518460008087815260200190815260200160002060070160019054906101000a900473ffffffffffffffffffffffffffffffffffffffff1660405161087f929190612481565b60405180910390a1610afe565b7fd2aa34a4fdbbc6dff6a3e56f46e0f3ae2a31d7785ff3487aa5c95c642acea50184600080878152602001908152602001600020600a0160009054906101000a900473ffffffffffffffffffffffffffffffffffffffff1660008088815260200190815260200160002060090154604051610909939291906124e1565b60405180910390a1600160008086815260200190815260200160002060040160006101000a81548160ff021916908315150217905550600160008086815260200190815260200160002060070160006101000a81548160ff02191690831515021790555060008085815260200190815260200160002060070160019054906101000a900473ffffffffffffffffffffffffffffffffffffffff1673ffffffffffffffffffffffffffffffffffffffff166108fc600080878152602001908152602001600020600801549081150290604051600060405180830381858888f193505050501580156109fd573d6000803e3d6000fd5b5060008085815260200190815260200160002060010160009054906101000a900473ffffffffffffffffffffffffffffffffffffffff1673ffffffffffffffffffffffffffffffffffffffff166108fc600080878152602001908152602001600020600901549081150290604051600060405180830381858888f19350505050158015610a8e573d6000803e3d6000fd5b507f3bc05d77c749538b04c637d624a0e50d28a1cf181657405d944d039de39d965184600080878152602001908152602001600020600a0160009054906101000a900473ffffffffffffffffffffffffffffffffffffffff16604051610af5929190612481565b60405180910390a15b5b50505050565b60008082815260200190815260200160002060020154804211610b5d576040517f08c379a0000000000000000000000000000000000000000000000000000000008152600401610b5490612406565b60405180910390fd5b60008083815260200190815260200160002060030154804210610bb5576040517f08c379a0000000000000000000000000000000000000000000000000000000008152600401610bac906123c6565b60405180910390fd5b8260011515600080838152602001908152602001600020600d0160003373ffffffffffffffffffffffffffffffffffffffff1673ffffffffffffffffffffffffffffffffffffffff16815260200190815260200160002060009054906101000a900460ff16151514610c5c576040517f08c379a0000000000000000000000000000000000000000000000000000000008152600401610c53906123e6565b60405180910390fd5b600080905060008090506000806000888152602001908152602001600020600b0160003373ffffffffffffffffffffffffffffffffffffffff1673ffffffffffffffffffffffffffffffffffffffff1681526020019081526020016000209050898989604051602001610cd193929190612518565b60405160208183030381529060405280519060200120816000015414610d2f577fad8c260aa7a48094cdeb8c07f33bcf4e3bb56893286c330706ca376c728e9f3e8733604051610d22929190612481565b60405180910390a1610dd2565b80600101548301925089816001015410610d9757610d4e87338c611761565b15610d595789830392505b7fcb1784faad642d48c787676118783766577faa10d9c69eb1fbb40c3baaac87d18733604051610d8a929190612481565b60405180910390a1610dd1565b7f2aef0deb49f8c134c725c0d4075973ab3c581f0d16cce112ab4ed4b26b9ddaa38733604051610dc8929190612481565b60405180910390a15b5b6000801b81600001819055507f0ce627ddf6b4fdb8de00ae62e2f2b8dee6a4226b75fccd3d6692329c8e0d2c1c873385604051610e11939291906124e1565b60405180910390a13373ffffffffffffffffffffffffffffffffffffffff166108fc849081150290604051600060405180830381858888f19350505050158015610e5f573d6000803e3d6000fd5b5050505050505050505050565b60008173ffffffffffffffffffffffffffffffffffffffff16319050919050565b606060008090506060600254604051908082528060200260200182016040528015610ed257816020015b610ebf611bb3565b815260200190600190039081610eb75790505b50905060008090505b60015481101561111a576000151560008083815260200190815260200160002060040160009054906101000a900460ff161515141561110757600080600083815260200190815260200160002090506040518060e00160405280826000015481526020018260010160009054906101000a900473ffffffffffffffffffffffffffffffffffffffff1673ffffffffffffffffffffffffffffffffffffffff16815260200182600201548152602001826003015481526020018260040160009054906101000a900460ff1615158152602001826005018054600181600116156101000203166002900480601f0160208091040260200160405190810160405280929190818152602001828054600181600116156101000203166002900480156110445780601f1061101957610100808354040283529160200191611044565b820191906000526020600020905b81548152906001019060200180831161102757829003601f168201915b50505050508152602001826006018054600181600116156101000203166002900480601f0160208091040260200160405190810160405280929190818152602001828054600181600116156101000203166002900480156110e65780601f106110bb576101008083540402835291602001916110e6565b820191906000526020600020905b8154815290600101906020018083116110c957829003601f168201915b50505050508152508385815181106110fa57fe5b6020026020010181905250505b6001830192508080600101915050610edb565b50809250505090565b6000808281526020019081526020016000206002015480421061117b576040517f08c379a0000000000000000000000000000000000000000000000000000000008152600401611172906123c6565b60405180910390fd5b8160008082815260200190815260200160002060010160009054906101000a900473ffffffffffffffffffffffffffffffffffffffff1673ffffffffffffffffffffffffffffffffffffffff163373ffffffffffffffffffffffffffffffffffffffff161415611220576040517f08c379a000000000000000000000000000000000000000000000000000000000815260040161121790612426565b60405180910390fd5b82600080828152602001908152602001600020600d0160003373ffffffffffffffffffffffffffffffffffffffff1673ffffffffffffffffffffffffffffffffffffffff16815260200190815260200160002060009054906101000a900460ff16156112c1576040517f08c379a00000000000000000000000000000000000000000000000000000000081526004016112b890612446565b60405180910390fd5b604051806040016040528086815260200134815250600080868152602001908152602001600020600b0160003373ffffffffffffffffffffffffffffffffffffffff1673ffffffffffffffffffffffffffffffffffffffff16815260200190815260200160002060008201518160000155602082015181600101559050506001600080868152602001908152602001600020600d0160003373ffffffffffffffffffffffffffffffffffffffff1673ffffffffffffffffffffffffffffffffffffffff16815260200190815260200160002060006101000a81548160ff0219169083151502179055507f4b6c7d33d8244d6b35f1a8d35f6d19860fea50d46740345c395123753dd782fa336040516113d99190612329565b60405180910390a15050505050565b6000600154905060018060008282540192505081905550600160026000828254019250508190555060008342019050600083820190506040518061018001604052808481526020013373ffffffffffffffffffffffffffffffffffffffff1681526020018381526020018281526020016000151581526020018a8a8080601f016020809104026020016040519081016040528093929190818152602001838380828437600081840152601f19601f82011690508083019250505050505050815260200188888080601f016020809104026020016040519081016040528093929190818152602001838380828437600081840152601f19601f820116905080830192505050505050508152602001600015158152602001600073ffffffffffffffffffffffffffffffffffffffff1681526020016000815260200160008152602001600073ffffffffffffffffffffffffffffffffffffffff168152506000808581526020019081526020016000206000820151816000015560208201518160010160006101000a81548173ffffffffffffffffffffffffffffffffffffffff021916908373ffffffffffffffffffffffffffffffffffffffff160217905550604082015181600201556060820151816003015560808201518160040160006101000a81548160ff02191690831515021790555060a08201518160050190805190602001906115f7929190611c08565b5060c0820151816006019080519060200190611614929190611c08565b5060e08201518160070160006101000a81548160ff0219169083151502179055506101008201518160070160016101000a81548173ffffffffffffffffffffffffffffffffffffffff021916908373ffffffffffffffffffffffffffffffffffffffff1602179055506101208201518160080155610140820151816009015561016082015181600a0160006101000a81548173ffffffffffffffffffffffffffffffffffffffff021916908373ffffffffffffffffffffffffffffffffffffffff1602179055509050507f58c55e05f36335d586220e73c744c2bee55b978dc632f7bae51fd53b68b967de838a8a8a8a60405161171595949392919061254a565b60405180910390a17f407f117d881ed92fbecf3649fb9568d7191c91329e6cef0cb5fc97916ef0cead838360405161174e929190612593565b60405180910390a1505050505050505050565b60008060008581526020019081526020016000206009015482116117885760009050611bac565b6000808581526020019081526020016000206009015482101580156117c25750600080858152602001908152602001600020600801548211155b1561194e57600073ffffffffffffffffffffffffffffffffffffffff16600080868152602001908152602001600020600a0160009054906101000a900473ffffffffffffffffffffffffffffffffffffffff1673ffffffffffffffffffffffffffffffffffffffff16146118db5760008085815260200190815260200160002060090154600080868152602001908152602001600020600c016000806000888152602001908152602001600020600a0160009054906101000a900473ffffffffffffffffffffffffffffffffffffffff1673ffffffffffffffffffffffffffffffffffffffff1673ffffffffffffffffffffffffffffffffffffffff168152602001908152602001600020600082825401925050819055505b816000808681526020019081526020016000206009018190555082600080868152602001908152602001600020600a0160006101000a81548173ffffffffffffffffffffffffffffffffffffffff021916908373ffffffffffffffffffffffffffffffffffffffff160217905550611ba7565b60008085815260200190815260200160002060080154821115611ba657600073ffffffffffffffffffffffffffffffffffffffff16600080868152602001908152602001600020600a0160009054906101000a900473ffffffffffffffffffffffffffffffffffffffff1673ffffffffffffffffffffffffffffffffffffffff1614611a7f5760008085815260200190815260200160002060090154600080868152602001908152602001600020600c016000806000888152602001908152602001600020600a0160009054906101000a900473ffffffffffffffffffffffffffffffffffffffff1673ffffffffffffffffffffffffffffffffffffffff1673ffffffffffffffffffffffffffffffffffffffff168152602001908152602001600020600082825401925050819055505b60008085815260200190815260200160002060070160019054906101000a900473ffffffffffffffffffffffffffffffffffffffff16600080868152602001908152602001600020600a0160006101000a81548173ffffffffffffffffffffffffffffffffffffffff021916908373ffffffffffffffffffffffffffffffffffffffff160217905550600080858152602001908152602001600020600801546000808681526020019081526020016000206009018190555081600080868152602001908152602001600020600801819055508260008086815260200190815260200160002060070160016101000a81548173ffffffffffffffffffffffffffffffffffffffff021916908373ffffffffffffffffffffffffffffffffffffffff1602179055505b5b600190505b9392505050565b6040518060e0016040528060008152602001600073ffffffffffffffffffffffffffffffffffffffff168152602001600081526020016000815260200160001515815260200160608152602001606081525090565b828054600181600116156101000203166002900490600052602060002090601f016020900481019282601f10611c4957805160ff1916838001178555611c77565b82800160010185558215611c77579182015b82811115611c76578251825591602001919060010190611c5b565b5b509050611c849190611c88565b5090565b611caa91905b80821115611ca6576000816000905550600101611c8e565b5090565b90565b600081359050611cbc81612721565b92915050565b600081359050611cd181612738565b92915050565b60008083601f840112611ce957600080fd5b8235905067ffffffffffffffff811115611d0257600080fd5b602083019150836001820283011115611d1a57600080fd5b9250929050565b600081359050611d308161274f565b92915050565b600060208284031215611d4857600080fd5b6000611d5684828501611cad565b91505092915050565b60008060408385031215611d7257600080fd5b6000611d8085828601611cc2565b9250506020611d9185828601611d21565b9150509250929050565b60008060008060008060808789031215611db457600080fd5b600087013567ffffffffffffffff811115611dce57600080fd5b611dda89828a01611cd7565b9650965050602087013567ffffffffffffffff811115611df957600080fd5b611e0589828a01611cd7565b94509450506040611e1889828a01611d21565b9250506060611e2989828a01611d21565b9150509295509295509295565b600060208284031215611e4857600080fd5b6000611e5684828501611d21565b91505092915050565b60008060008060608587031215611e7557600080fd5b6000611e8387828801611d21565b945050602085013567ffffffffffffffff811115611ea057600080fd5b611eac87828801611cd7565b93509350506040611ebf87828801611d21565b91505092959194509250565b6000611ed78383612268565b905092915050565b611ee881612686565b82525050565b611ef781612634565b82525050565b6000611f08826125cc565b611f1281856125ef565b935083602082028501611f24856125bc565b8060005b85811015611f605784840389528151611f418582611ecb565b9450611f4c836125e2565b925060208a01995050600181019050611f28565b50829750879550505050505092915050565b611f7b81612646565b82525050565b611f8a81612698565b82525050565b6000611f9c8385612611565b9350611fa98385846126ce565b611fb283612710565b840190509392505050565b6000611fc8826125d7565b611fd28185612600565b9350611fe28185602086016126dd565b611feb81612710565b840191505092915050565b6000612003602183612611565b91507f43616e742041736b20726566756e642c61756374696f6e206e6f7420656e646560008301527f64000000000000000000000000000000000000000000000000000000000000006020830152604082019050919050565b6000612069601583612611565b91507f41756374696f6e20616c726561647920656e64656400000000000000000000006000830152602082019050919050565b60006120a9602483612611565b91507f4f6e6c792042656e65666963696172792063616e20656e64207468652061756360008301527f74696f6e000000000000000000000000000000000000000000000000000000006020830152604082019050919050565b600061210f600a83612611565b91507f41667465722074696d65000000000000000000000000000000000000000000006000830152602082019050919050565b600061214f603083612611565b91507f4469646e277420706c6163652061206265742c6e6f20706f696e7420696e207260008301527f657665616c696e672074686520626964000000000000000000000000000000006020830152604082019050919050565b60006121b5600b83612611565b91507f6265666f72652074696d650000000000000000000000000000000000000000006000830152602082019050919050565b60006121f5601683612611565b91507f42656e65666963696172792063616e6e6f7420626964000000000000000000006000830152602082019050919050565b6000612235601f83612611565b91507f42696464657220416c726561647920706c6163656420746865697220626964006000830152602082019050919050565b600060e083016000830151612280600086018261230b565b5060208301516122936020860182611eee565b5060408301516122a6604086018261230b565b5060608301516122b9606086018261230b565b5060808301516122cc6080860182611f72565b5060a083015184820360a08601526122e48282611fbd565b91505060c083015184820360c08601526122fe8282611fbd565b9150508091505092915050565b6123148161267c565b82525050565b6123238161267c565b82525050565b600060208201905061233e6000830184611edf565b92915050565b6000602082019050818103600083015261235e8184611efd565b905092915050565b6000602082019050818103600083015261237f81611ff6565b9050919050565b6000602082019050818103600083015261239f8161205c565b9050919050565b600060208201905081810360008301526123bf8161209c565b9050919050565b600060208201905081810360008301526123df81612102565b9050919050565b600060208201905081810360008301526123ff81612142565b9050919050565b6000602082019050818103600083015261241f816121a8565b9050919050565b6000602082019050818103600083015261243f816121e8565b9050919050565b6000602082019050818103600083015261245f81612228565b9050919050565b600060208201905061247b600083018461231a565b92915050565b6000604082019050612496600083018561231a565b6124a36020830184611edf565b9392505050565b60006060820190506124bf600083018661231a565b6124cc6020830185611edf565b6124d96040830184611f81565b949350505050565b60006060820190506124f6600083018661231a565b6125036020830185611edf565b612510604083018461231a565b949350505050565b600060408201905061252d600083018661231a565b8181036020830152612540818486611f90565b9050949350505050565b600060608201905061255f600083018861231a565b8181036020830152612572818688611f90565b90508181036040830152612587818486611f90565b90509695505050505050565b60006040820190506125a8600083018561231a565b6125b5602083018461231a565b9392505050565b6000819050602082019050919050565b600081519050919050565b600081519050919050565b6000602082019050919050565b600082825260208201905092915050565b600082825260208201905092915050565b600082825260208201905092915050565b600061262d8261265c565b9050919050565b600061263f8261265c565b9050919050565b60008115159050919050565b6000819050919050565b600073ffffffffffffffffffffffffffffffffffffffff82169050919050565b6000819050919050565b6000612691826126aa565b9050919050565b60006126a38261267c565b9050919050565b60006126b5826126bc565b9050919050565b60006126c78261265c565b9050919050565b82818337600083830152505050565b60005b838110156126fb5780820151818401526020810190506126e0565b8381111561270a576000848401525b50505050565b6000601f19601f8301169050919050565b61272a81612622565b811461273557600080fd5b50565b61274181612652565b811461274c57600080fd5b50565b6127588161267c565b811461276357600080fd5b5056fea365627a7a72315820c9f38dbac2b7f2eb2267723d8db3f287e0990b7951ea5cbc7260b5cc02c364e96c6578706572696d656e74616cf564736f6c63430005100040",
  "source": "/// SPDX-License-Identifier: MIT\npragma solidity >=0.4.22 <0.9.0;\npragma experimental ABIEncoderV2;\n\n/// @title The contract for buying and selling items on a market\ncontract VickreyAuction2 {\n    // Important Structures\n\n    ///@dev stores the blinded bid\n    ///@param bidHash stores the bid hashed using the public pub_key\n    ///@param deposit stores the deposited amount\n    struct Bid {\n        bytes32 bidHash;\n        uint256 deposit;\n    }\n\n    /// @dev structure for each Auction item\n    /// @param auction_id unique id for the items\n    /// @param beneficiary the seller\n    /// @param biddingEnd time the bidding end\n    /// @param revealEnd time when reveal period is over\n    /// @param ended shows the auction ended\n    /// @param item_name shows name of the item\n    /// @param item_description description of the item\n    /// @param bids stores the list of bids indexed by address\n    /// @param sold bool to denote whether the item is sold or not\n    /// @param highestBidder address of the highest bidder\n    /// @param highestBid value of the highest bid\n    /// @param pendingReturns the value to return to each bidder\n    /// @param bidded the boolean to track which addresses have bidded.\n    /// @param secondHighestBidder the address of the second highest bidder\n    /// @param secondHighestBid the secondHighest Bid\n    struct auctions {\n        uint256 auction_id;\n        address payable beneficiary;\n        uint256 biddingEnd;\n        uint256 revealEnd;\n        bool ended;\n        string item_name;\n        string item_description;\n        bool sold;\n        address payable highestBidder;\n        uint256 highestBid;\n        uint256 secondHighestBid;\n        address payable secondHighestBidder;\n        mapping(address => Bid) bids;\n        // Allowed withdrawals of previous bids\n        mapping(address => uint256) pendingReturns;\n        mapping(address => bool) bidded;\n    }\n\n    /// @dev structure for each display active Auction Listings\n    /// @param auction_id unique id for the items\n    /// @param biddingEnd time the bidding end\n    /// @param revealEnd time when reveal period is over\n    /// @param ended shows the auction ended\n    /// @param item_name shows name of the item\n    /// @param item_description description of the item\n\n    struct auction_listings {\n        uint256 auction_id;\n        address payable beneficiary;\n        uint256 biddingEnd;\n        uint256 revealEnd;\n        bool ended;\n        string item_name;\n        string item_description;\n\n        //bool sold;\n        //address highestBidder;\n        //uint highestBid;\n\n        //mapping(address => Bid) bids;\n        // Allowed withdrawals of previous bids\n        //mapping(address => uint) pendingReturns;\n    }\n\n    // Errors that describe failures.\n\n    /// The function has been called too early.\n    /// Try again at `time`.\n    //error TooEarly(uint time);\n    /// The function has been called too late.\n    /// It cannot be called after `time`.\n    //error TooLate(uint time);\n    /// The function auctionEnd has already been called.\n    //error AuctionEndAlreadyCalled();\n\n    /// EVENTS\n\n    /// @dev this event is for when auction item is for when item for auction is listed\n    /// @param Auction_id id of the auction\n    /// @param item_name  name of the item to be Auction\n    /// @param item_description  description of the item to be auctioned\n    event AuctionStarted(\n        uint256 Auction_id,\n        string item_name,\n        string item_description\n    );\n\n    /// @dev this event to annouce auction started\n    /// @param Auction_id is the id of the auction\n    /// @param highestBidder is the address of the highest Bidder\n    /// @param highestBid is the value of the winning bid\n    event AuctionEnded(\n        uint256 Auction_id,\n        address highestBidder,\n        uint256 highestBid\n    );\n\n    ///@dev when an item goes unsold at the end of the auction\n    ///@param auction_id is the id of the auction\n    event ItemUnsold(uint256 auction_id);\n\n    /// @dev this event to annouce bidding started\n    /// @param Auction_id is the id of the auction\n    /// @param bidding_end is the time when bidding period ends\n    event BiddingStarted(uint256 Auction_id, uint256 bidding_end);\n\n    /// @dev this event to annouce bidding period ended\n    /// @param Auction_id is the id of the auction\n    event BiddingPeriodEnded(uint256 Auction_id);\n\n    /// @dev announcement of a new\n    /// @param bidder address of the bidder\n    event BidMade(address bidder);\n\n    ///@dev announcement to start revealing bids\n    /// @param Auction_id id of the auction item\n    /// @param reveal_end is the time when revealing period ends\n    event RevealPeriodStarted(uint256 Auction_id, uint256 reveal_end);\n\n    ///@dev annouce to end revealing period\n    /// @param Auction_id id of the auction\n    event RevealPeriodEnded(uint256 Auction_id);\n\n    ///@dev announce winner\n    /// @param Auction_id is the id of the auction\n    /// @param winner is the address of the winner\n    event WinnerChosen(uint256 Auction_id, address winner);\n\n    ///@dev bid revealed\n    ///@param Auction_id is the id of the auction\n    ///@param bidder is the address of the revealer\n    event BidRevealed(uint256 Auction_id, address bidder);\n\n    ///@dev bid revealed failed\n    ///@param Auction_id is the id of the auction\n    ///@param bidder is the address of the revealer\n    event BidRevealFailed(uint256 Auction_id, address bidder);\n\n    ///@dev event to notify Refunds of bids\n    ///@param auction_id is the id of the auction\n    ///@param bidder is the address of the revealer\n    ///@param bid_value  refers to whether the bid is succesfully revealed and refund done\n    event BidderRefunded(uint256 auction_id, address bidder, uint256 bid_value);\n\n    ///@dev event to notify Refunds of bids\n    ///@param auction_id is the id of the auction\n    ///@param bidder is the address of the revealer\n    ///@param balance  refers to whether the bid is succesfully revealed and refund done\n    event BalanceRefunded(uint256 auction_id, address bidder, uint256 balance);\n\n    ///@dev event to notify when the deposit is not enough\n    ///@param auction_id is the id of the auction\n    ///@param bidder is the bidder\n    event DepositNotEnough(uint256 auction_id, address bidder);\n\n    ///@dev to notify highest Bid has been modified\n    ///@param auction_id is the id of the auction\n    ///@param bidder is the bidder\n    ///@param bid_value refers to the bid\n    event NewHighestBid(uint256 auction_id, address bidder, uint256 bid_value);\n\n    /// @dev create a lists of all auctions\n    mapping(uint256 => auctions) private Auctions;\n\n    // variables for managing auctions\n    uint256 current_auction_id = 0;\n    uint256 activeauctions = 0;\n\n    //MODIFIERS\n\n    /// @notice Check whether a given condition is true\n    /// @param _condition condition statement to verify.\n    modifier condition(bool _condition) {\n        require(_condition);\n        _;\n    }\n\n    modifier onlyBefore(uint256 _time) {\n        require(block.timestamp < _time, \"After time\");\n        _;\n    }\n    modifier onlyAfter(uint256 _time) {\n        require(block.timestamp > _time, \"before time\");\n        _;\n    }\n\n    modifier validBidder(uint256 auction_id) {\n        require(\n            msg.sender != Auctions[auction_id].beneficiary,\n            \"Beneficiary cannot bid\"\n        );\n        _;\n    }\n    modifier newBidder(uint256 auction_id) {\n        require(\n            !Auctions[auction_id].bidded[msg.sender],\n            \"Bidder Already placed their bid\"\n        );\n        _;\n    }\n\n    modifier alreadyBidder(uint256 auction_id) {\n        require(\n            Auctions[auction_id].bidded[msg.sender] == true,\n            \"Didn't place a bet,no point in revealing the bid\"\n        );\n        _;\n    }\n\n    modifier onlyBeneficiary(uint256 auction_id) {\n        require(\n            Auctions[auction_id].beneficiary == msg.sender,\n            \"Only Beneficiary can end the auction\"\n        );\n        _;\n    }\n    modifier auctionActive(uint256 auction_id) {\n        require(Auctions[auction_id].ended == false, \"Auction already ended\");\n        _;\n    }\n    modifier auctionEnded(uint256 auction_id) {\n        require(\n            Auctions[auction_id].ended == true,\n            \"Cant Ask refund,auction not ended\"\n        );\n        _;\n    }\n\n    //functions\n\n    /// @notice returns balance of account\n    /// @param account Address of the account.\n    function getAccountBalance(address account)\n        public\n        view\n        returns (uint256 accountBalance)\n    {\n        accountBalance = account.balance;\n    }\n\n    /// @dev function to list the auction of a new item\n    /// @param item_name name of the item\n    /// @param item_description is the description of the item\n    /// @param bidding_time how long the bidding will go\n    /// @param reveal_time how long the reveal will go\n    function auctionItem(\n        string calldata item_name,\n        string calldata item_description,\n        uint256 bidding_time,\n        uint256 reveal_time\n    ) external payable {\n        uint256 auction_id = current_auction_id;\n        current_auction_id += 1;\n        activeauctions += 1;\n        uint256 bidding_end = block.timestamp + bidding_time;\n        uint256 reveal_end = bidding_end + reveal_time;\n\n        Auctions[auction_id] = auctions(\n            auction_id,\n            msg.sender,\n            bidding_end,\n            reveal_end,\n            false,\n            item_name,\n            item_description,\n            false,\n            address(0),\n            0,\n            0,\n            address(0)\n        );\n        emit AuctionStarted(auction_id, item_name, item_description);\n        emit BiddingStarted(auction_id, bidding_end);\n    }\n\n    // function to to get a list of all active auctions\n    /// @notice Get all the active auction listings items in the market\n    /// @return a list of active auction listings\n    function getactiveauctions()\n        external\n        view\n        returns (auction_listings[] memory)\n    {\n        uint256 currentIndex = 0;\n        auction_listings[] memory active_auctions = new auction_listings[](\n            activeauctions\n        );\n        for (uint256 i = 0; i < current_auction_id; i++) {\n            if (Auctions[i].ended == false) {\n                auctions storage currentauction = Auctions[i];\n                active_auctions[currentIndex] = auction_listings(\n                    currentauction.auction_id,\n                    currentauction.beneficiary,\n                    currentauction.biddingEnd,\n                    currentauction.revealEnd,\n                    currentauction.ended,\n                    currentauction.item_name,\n                    currentauction.item_description\n                );\n            }\n            currentIndex += 1;\n        }\n        return active_auctions;\n    }\n\n    // function that can be used to bid in an auction\n    /// @param blindedBid is the hashed version of bid\n    /// @param auction_id is the id of the auction\n    function bid(bytes32 blindedBid, uint256 auction_id)\n        external\n        payable\n        onlyBefore(Auctions[auction_id].biddingEnd)\n        validBidder(auction_id)\n        newBidder(auction_id)\n    {\n        Auctions[auction_id].bids[msg.sender] = Bid(blindedBid, msg.value);\n        Auctions[auction_id].bidded[msg.sender] = true;\n        emit BidMade(msg.sender);\n    }\n\n    /// @dev Reveal your blinded bids. You will get a refund for all\n    /// @dev correctly blinded invalid bids and for all bids except for\n    /// @dev the totally highest.\n    /// @param value value of the bid\n    /// @param secret again not sure\n    /// @param auction_id id of the auction\n    function reveal(\n        uint256 value,\n        //bool fake,\n        string calldata secret,\n        uint256 auction_id\n    )\n        external\n        payable\n        onlyAfter(Auctions[auction_id].biddingEnd)\n        onlyBefore(Auctions[auction_id].revealEnd)\n        alreadyBidder(auction_id)\n    {\n        uint256 refund = 0;\n        bool success = false;\n        //get the bid placed by the user\n        Bid storage bidToCheck = Auctions[auction_id].bids[msg.sender];\n\n        // improper revealing\n        if (bidToCheck.bidHash != keccak256(abi.encode(value, secret))) {\n            // Bid was not actually revealed.\n            // Do not refund deposit.\n            emit BidRevealFailed(auction_id, msg.sender);\n        } else {\n            refund += bidToCheck.deposit;\n            if (bidToCheck.deposit >= value) {\n                if (placeBid(auction_id, msg.sender, value)) refund -= value;\n                emit BidRevealed(auction_id, msg.sender);\n            } else emit DepositNotEnough(auction_id, msg.sender);\n        }\n        // Make it impossible for the sender to re-claim\n        // the same deposit.\n        bidToCheck.bidHash = bytes32(0);\n        emit BalanceRefunded(auction_id, msg.sender, refund);\n        msg.sender.transfer(refund);\n        //emit BidRevealed(auction_id,msg.sender,success);\n    }\n\n    // This is an \"internal\" function which means that it\n    // can only be called from the contract itself (or from\n    // derived contracts).\n    ///@dev the function is used accept bids by the owner\n    ///@param auction_id is the id of the auction\n    ///@param bidder is the address of the bidder\n    ///@param value is the value of the bid\n    function placeBid(\n        uint256 auction_id,\n        address payable bidder,\n        uint256 value\n    ) internal returns (bool success) {\n        if (value <= Auctions[auction_id].secondHighestBid) {\n            return false;\n        } else if (\n            value >= Auctions[auction_id].secondHighestBid &&\n            value <= Auctions[auction_id].highestBid\n        ) {\n            if (Auctions[auction_id].secondHighestBidder != address(0)) {\n                Auctions[auction_id].pendingReturns[\n                    Auctions[auction_id].secondHighestBidder\n                ] += Auctions[auction_id].secondHighestBid;\n            }\n            Auctions[auction_id].secondHighestBid = value;\n            Auctions[auction_id].secondHighestBidder = bidder;\n        } else if (value > Auctions[auction_id].highestBid) {\n            // Refund the previously highest bidder.\n            if (Auctions[auction_id].secondHighestBidder != address(0)) {\n                Auctions[auction_id].pendingReturns[\n                    Auctions[auction_id].secondHighestBidder\n                ] += Auctions[auction_id].secondHighestBid;\n            }\n            Auctions[auction_id].secondHighestBidder = Auctions[auction_id]\n                .highestBidder;\n            Auctions[auction_id].secondHighestBid = Auctions[auction_id]\n                .highestBid;\n            Auctions[auction_id].highestBid = value;\n            Auctions[auction_id].highestBidder = bidder;\n        }\n\n        return true;\n    }\n\n    ///@dev function to withdraw overbid/non-winning bids\n    ///@param auction_id is the id of the Auction\n    function withdraw(uint256 auction_id) external auctionEnded(auction_id) {\n        //emit BidderRefunded(auction_id,msg.sender, Auctions[auction_id].pendingReturns[msg.sender]);\n        if (Auctions[auction_id].pendingReturns[msg.sender] > 0) {\n            uint256 value = Auctions[auction_id].pendingReturns[msg.sender];\n            Auctions[auction_id].pendingReturns[msg.sender] = 0;\n            address payable payable_sender = msg.sender;\n            payable_sender.transfer(value);\n            emit BidderRefunded(auction_id, msg.sender, value);\n        }\n    }\n\n    ///@dev End the auction and send the highest bid to the beneficiary\n    ///@param auction_id is the id of the auction\n    ///@notice only beneficiary of the auction can call the function\n    function auctionEnd(uint256 auction_id)\n        external\n        onlyAfter(Auctions[auction_id].revealEnd)\n        onlyBeneficiary(auction_id)\n        auctionActive(auction_id)\n    {\n        //if (Auctions[auction_id].ended) revert AuctionEndAlreadyCalled();\n        if (\n            Auctions[auction_id].highestBidder == address(0) &&\n            Auctions[auction_id].highestBid == 0\n        ) {\n            emit ItemUnsold(auction_id);\n            emit AuctionEnded(auction_id, address(0), 0);\n            Auctions[auction_id].ended = true;\n        } else if (\n            Auctions[auction_id].secondHighestBidder == address(0) &&\n            Auctions[auction_id].secondHighestBid == 0\n        ) {\n            emit AuctionEnded(\n                auction_id,\n                Auctions[auction_id].highestBidder,\n                Auctions[auction_id].highestBid\n            );\n\n            Auctions[auction_id].ended = true;\n            Auctions[auction_id].sold = true;\n            Auctions[auction_id].beneficiary.transfer(\n                Auctions[auction_id].highestBid\n            );\n            emit WinnerChosen(auction_id, Auctions[auction_id].highestBidder);\n        } else {\n            emit AuctionEnded(\n                auction_id,\n                Auctions[auction_id].secondHighestBidder,\n                Auctions[auction_id].secondHighestBid\n            );\n            Auctions[auction_id].ended = true;\n            Auctions[auction_id].sold = true;\n            Auctions[auction_id].highestBidder.transfer(\n                Auctions[auction_id].highestBid\n            );\n            //highest.transfer(Auctions[auction_id].highestBid);\n            Auctions[auction_id].beneficiary.transfer(\n                Auctions[auction_id].secondHighestBid\n            );\n            emit WinnerChosen(\n                auction_id,\n                Auctions[auction_id].secondHighestBidder\n            );\n        }\n    }\n}\n",
  "sourcePath": "/home/rutvij/programming/Assignments/DTBC/Block-Chain-Collab/Assignments/2/contracts/VickreyAuction2.sol",
  "compiler": {
    "name": "solc",
    "version": "0.5.16+commit.9c3226ce.Emscripten.clang"
  },
  "schemaVersion": "3.4.3",
  "updatedAt": "2021-10-11T08:27:48.383Z",
  "networkType": "ethereum",
  "devdoc": {
    "methods": {
      "auctionEnd(uint256)": {
        "details": "End the auction and send the highest bid to the beneficiary",
        "params": {
          "auction_id": "is the id of the auction"
        }
      },
      "auctionItem(string,string,uint256,uint256)": {
        "details": "function to list the auction of a new item",
        "params": {
          "bidding_time": "how long the bidding will go",
          "item_description": "is the description of the item",
          "item_name": "name of the item",
          "reveal_time": "how long the reveal will go"
        }
      },
      "bid(bytes32,uint256)": {
        "params": {
          "auction_id": "is the id of the auction",
          "blindedBid": "is the hashed version of bid"
        }
      },
      "getAccountBalance(address)": {
        "params": {
          "account": "Address of the account."
        }
      },
      "getactiveauctions()": {
        "return": "a list of active auction listings"
      },
      "reveal(uint256,string,uint256)": {
        "details": "Reveal your blinded bids. You will get a refund for allcorrectly blinded invalid bids and for all bids except forthe totally highest.",
        "params": {
          "auction_id": "id of the auction",
          "secret": "again not sure",
          "value": "value of the bid"
        }
      },
      "withdraw(uint256)": {
        "details": "function to withdraw overbid/non-winning bids",
        "params": {
          "auction_id": "is the id of the Auction"
        }
      }
    },
    "title": "The contract for buying and selling items on a market"
  },
  "userdoc": {
    "methods": {
      "auctionEnd(uint256)": {
        "notice": "only beneficiary of the auction can call the function"
      },
      "getAccountBalance(address)": {
        "notice": "returns balance of account"
      },
      "getactiveauctions()": {
        "notice": "Get all the active auction listings items in the market"
      }
    }
  }
}