{
  "contractName": "VickreyAuction",
  "abi": [
    {
      "anonymous": false,
      "inputs": [
        {
          "indexed": false,
          "internalType": "uint256",
          "name": "Auction_id",
          "type": "uint256"
        },
        {
          "indexed": false,
          "internalType": "address",
          "name": "highestBidder",
          "type": "address"
        },
        {
          "indexed": false,
          "internalType": "uint256",
          "name": "highestBid",
          "type": "uint256"
        }
      ],
      "name": "AuctionEnded",
      "type": "event"
    },
    {
      "anonymous": false,
      "inputs": [
        {
          "indexed": false,
          "internalType": "uint256",
          "name": "Auction_id",
          "type": "uint256"
        },
        {
          "indexed": false,
          "internalType": "string",
          "name": "item_name",
          "type": "string"
        },
        {
          "indexed": false,
          "internalType": "string",
          "name": "item_description",
          "type": "string"
        }
      ],
      "name": "AuctionStarted",
      "type": "event"
    },
    {
      "anonymous": false,
      "inputs": [
        {
          "indexed": false,
          "internalType": "address",
          "name": "bidder",
          "type": "address"
        }
      ],
      "name": "BidMade",
      "type": "event"
    },
    {
      "anonymous": false,
      "inputs": [
        {
          "indexed": false,
          "internalType": "uint256",
          "name": "Auction_id",
          "type": "uint256"
        },
        {
          "indexed": false,
          "internalType": "address",
          "name": "bidder",
          "type": "address"
        },
        {
          "indexed": false,
          "internalType": "bool",
          "name": "success",
          "type": "bool"
        }
      ],
      "name": "BidRevealed",
      "type": "event"
    },
    {
      "anonymous": false,
      "inputs": [
        {
          "indexed": false,
          "internalType": "uint256",
          "name": "auction_id",
          "type": "uint256"
        },
        {
          "indexed": false,
          "internalType": "address",
          "name": "bidder",
          "type": "address"
        },
        {
          "indexed": false,
          "internalType": "uint256",
          "name": "bid_value",
          "type": "uint256"
        }
      ],
      "name": "BidderWithdrawn",
      "type": "event"
    },
    {
      "anonymous": false,
      "inputs": [
        {
          "indexed": false,
          "internalType": "uint256",
          "name": "Auction_id",
          "type": "uint256"
        }
      ],
      "name": "BiddingPeriodEnded",
      "type": "event"
    },
    {
      "anonymous": false,
      "inputs": [
        {
          "indexed": false,
          "internalType": "uint256",
          "name": "Auction_id",
          "type": "uint256"
        },
        {
          "indexed": false,
          "internalType": "uint256",
          "name": "bidding_end",
          "type": "uint256"
        }
      ],
      "name": "BiddingStarted",
      "type": "event"
    },
    {
      "anonymous": false,
      "inputs": [
        {
          "indexed": false,
          "internalType": "uint256",
          "name": "auction_id",
          "type": "uint256"
        }
      ],
      "name": "ItemUnsold",
      "type": "event"
    },
    {
      "anonymous": false,
      "inputs": [
        {
          "indexed": false,
          "internalType": "uint256",
          "name": "Auction_id",
          "type": "uint256"
        }
      ],
      "name": "RevealPeriodEnded",
      "type": "event"
    },
    {
      "anonymous": false,
      "inputs": [
        {
          "indexed": false,
          "internalType": "uint256",
          "name": "Auction_id",
          "type": "uint256"
        },
        {
          "indexed": false,
          "internalType": "uint256",
          "name": "reveal_end",
          "type": "uint256"
        }
      ],
      "name": "RevealPeriodStarted",
      "type": "event"
    },
    {
      "anonymous": false,
      "inputs": [
        {
          "indexed": false,
          "internalType": "uint256",
          "name": "Auction_id",
          "type": "uint256"
        },
        {
          "indexed": false,
          "internalType": "address",
          "name": "winner",
          "type": "address"
        }
      ],
      "name": "WinnerChosen",
      "type": "event"
    },
    {
      "constant": true,
      "inputs": [
        {
          "internalType": "address",
          "name": "account",
          "type": "address"
        }
      ],
      "name": "getAccountBalance",
      "outputs": [
        {
          "internalType": "uint256",
          "name": "accountBalance",
          "type": "uint256"
        }
      ],
      "payable": false,
      "stateMutability": "view",
      "type": "function"
    },
    {
      "constant": false,
      "inputs": [
        {
          "internalType": "string",
          "name": "item_name",
          "type": "string"
        },
        {
          "internalType": "string",
          "name": "item_description",
          "type": "string"
        },
        {
          "internalType": "uint256",
          "name": "bidding_time",
          "type": "uint256"
        },
        {
          "internalType": "uint256",
          "name": "reveal_time",
          "type": "uint256"
        }
      ],
      "name": "auctionItem",
      "outputs": [],
      "payable": true,
      "stateMutability": "payable",
      "type": "function"
    },
    {
      "constant": true,
      "inputs": [],
      "name": "getactiveauctions",
      "outputs": [
        {
          "components": [
            {
              "internalType": "uint256",
              "name": "auction_id",
              "type": "uint256"
            },
            {
              "internalType": "uint256",
              "name": "biddingEnd",
              "type": "uint256"
            },
            {
              "internalType": "uint256",
              "name": "revealEnd",
              "type": "uint256"
            },
            {
              "internalType": "bool",
              "name": "ended",
              "type": "bool"
            },
            {
              "internalType": "string",
              "name": "item_name",
              "type": "string"
            },
            {
              "internalType": "string",
              "name": "item_description",
              "type": "string"
            }
          ],
          "internalType": "struct VickreyAuction.auction_listings[]",
          "name": "",
          "type": "tuple[]"
        }
      ],
      "payable": false,
      "stateMutability": "view",
      "type": "function"
    },
    {
      "constant": false,
      "inputs": [
        {
          "internalType": "bytes32",
          "name": "blindedBid",
          "type": "bytes32"
        },
        {
          "internalType": "uint256",
          "name": "auction_id",
          "type": "uint256"
        }
      ],
      "name": "bid",
      "outputs": [],
      "payable": true,
      "stateMutability": "payable",
      "type": "function"
    },
    {
      "constant": false,
      "inputs": [
        {
          "internalType": "uint256",
          "name": "value",
          "type": "uint256"
        },
        {
          "internalType": "bool",
          "name": "fake",
          "type": "bool"
        },
        {
          "internalType": "bytes32",
          "name": "secret",
          "type": "bytes32"
        },
        {
          "internalType": "uint256",
          "name": "auction_id",
          "type": "uint256"
        }
      ],
      "name": "reveal",
      "outputs": [],
      "payable": true,
      "stateMutability": "payable",
      "type": "function"
    },
    {
      "constant": false,
      "inputs": [
        {
          "internalType": "uint256",
          "name": "auction_id",
          "type": "uint256"
        }
      ],
      "name": "withdraw",
      "outputs": [],
      "payable": false,
      "stateMutability": "nonpayable",
      "type": "function"
    },
    {
      "constant": false,
      "inputs": [
        {
          "internalType": "uint256",
          "name": "auction_id",
          "type": "uint256"
        }
      ],
      "name": "auctionEnd",
      "outputs": [],
      "payable": false,
      "stateMutability": "nonpayable",
      "type": "function"
    }
  ],
  "bytecode": "0x60806040526000600155600060025534801561001a57600080fd5b506124c98061002a6000396000f3fe6080604052600436106100705760003560e01c806393423e9c1161004e57806393423e9c146100e357806396a18f8014610120578063cd772f5c1461014b578063e701cfc21461016757610070565b80632e1a7d4d1461007557806332246e9f1461009e5780637ca76c13146100c7575b600080fd5b34801561008157600080fd5b5061009c60048036036100979190810190611be7565b610183565b005b3480156100aa57600080fd5b506100c560048036036100c09190810190611be7565b61036c565b005b6100e160048036036100dc9190810190611c10565b610ab6565b005b3480156100ef57600080fd5b5061010a60048036036101059190810190611ae7565b610d06565b6040516101179190612137565b60405180910390f35b34801561012c57600080fd5b50610135610d27565b6040516101429190612075565b60405180910390f35b61016560048036036101609190810190611b10565b610f7d565b005b610181600480360361017c9190810190611b4c565b6111a1565b005b7fa21665dee3e8f950ddb1a6edf8ceb3ab4091b8f332c3e4ffd803bfc0f6089c478133600080858152602001908152602001600020600c0160003373ffffffffffffffffffffffffffffffffffffffff1673ffffffffffffffffffffffffffffffffffffffff16815260200190815260200160002054604051610208939291906121e9565b60405180910390a16000806000838152602001908152602001600020600c0160003373ffffffffffffffffffffffffffffffffffffffff1673ffffffffffffffffffffffffffffffffffffffff168152602001908152602001600020541115610369576000806000838152602001908152602001600020600c0160003373ffffffffffffffffffffffffffffffffffffffff1673ffffffffffffffffffffffffffffffffffffffff1681526020019081526020016000205490506000806000848152602001908152602001600020600c0160003373ffffffffffffffffffffffffffffffffffffffff1673ffffffffffffffffffffffffffffffffffffffff1681526020019081526020016000208190555060003390508073ffffffffffffffffffffffffffffffffffffffff166108fc839081150290604051600060405180830381858888f19350505050158015610365573d6000803e3d6000fd5b5050505b50565b6000808281526020019081526020016000206003015480421161038e57600080fd5b813373ffffffffffffffffffffffffffffffffffffffff1660008083815260200190815260200160002060010160009054906101000a900473ffffffffffffffffffffffffffffffffffffffff1673ffffffffffffffffffffffffffffffffffffffff1614610432576040517f08c379a0000000000000000000000000000000000000000000000000000000008152600401610429906120b7565b60405180910390fd5b826000151560008083815260200190815260200160002060040160009054906101000a900460ff1615151461049c576040517f08c379a000000000000000000000000000000000000000000000000000000000815260040161049390612097565b60405180910390fd5b600073ffffffffffffffffffffffffffffffffffffffff1660008086815260200190815260200160002060070160019054906101000a900473ffffffffffffffffffffffffffffffffffffffff1673ffffffffffffffffffffffffffffffffffffffff161480156105225750600080600086815260200190815260200160002060080154145b156105cd577ff656db5d7eec16959704ab1442c4686390e8bdca6e2fd99d193f6871512359ea846040516105569190612137565b60405180910390a17fd2aa34a4fdbbc6dff6a3e56f46e0f3ae2a31d7785ff3487aa5c95c642acea50184600080604051610592939291906121b2565b60405180910390a1600160008086815260200190815260200160002060040160006101000a81548160ff021916908315150217905550610ab0565b600073ffffffffffffffffffffffffffffffffffffffff16600080868152602001908152602001600020600a0160009054906101000a900473ffffffffffffffffffffffffffffffffffffffff1673ffffffffffffffffffffffffffffffffffffffff161480156106535750600080600086815260200190815260200160002060090154145b1561083d577fd2aa34a4fdbbc6dff6a3e56f46e0f3ae2a31d7785ff3487aa5c95c642acea5018460008087815260200190815260200160002060070160019054906101000a900473ffffffffffffffffffffffffffffffffffffffff16600080888152602001908152602001600020600801546040516106d5939291906121e9565b60405180910390a1600160008086815260200190815260200160002060040160006101000a81548160ff021916908315150217905550600160008086815260200190815260200160002060070160006101000a81548160ff02191690831515021790555060008085815260200190815260200160002060010160009054906101000a900473ffffffffffffffffffffffffffffffffffffffff1673ffffffffffffffffffffffffffffffffffffffff166108fc600080878152602001908152602001600020600801549081150290604051600060405180830381858888f193505050501580156107c9573d6000803e3d6000fd5b507f3bc05d77c749538b04c637d624a0e50d28a1cf181657405d944d039de39d96518460008087815260200190815260200160002060070160019054906101000a900473ffffffffffffffffffffffffffffffffffffffff16604051610830929190612152565b60405180910390a1610aaf565b7fd2aa34a4fdbbc6dff6a3e56f46e0f3ae2a31d7785ff3487aa5c95c642acea50184600080878152602001908152602001600020600a0160009054906101000a900473ffffffffffffffffffffffffffffffffffffffff16600080888152602001908152602001600020600901546040516108ba939291906121e9565b60405180910390a1600160008086815260200190815260200160002060040160006101000a81548160ff021916908315150217905550600160008086815260200190815260200160002060070160006101000a81548160ff02191690831515021790555060008085815260200190815260200160002060070160019054906101000a900473ffffffffffffffffffffffffffffffffffffffff1673ffffffffffffffffffffffffffffffffffffffff166108fc600080878152602001908152602001600020600801549081150290604051600060405180830381858888f193505050501580156109ae573d6000803e3d6000fd5b5060008085815260200190815260200160002060010160009054906101000a900473ffffffffffffffffffffffffffffffffffffffff1673ffffffffffffffffffffffffffffffffffffffff166108fc600080878152602001908152602001600020600901549081150290604051600060405180830381858888f19350505050158015610a3f573d6000803e3d6000fd5b507f3bc05d77c749538b04c637d624a0e50d28a1cf181657405d944d039de39d965184600080878152602001908152602001600020600a0160009054906101000a900473ffffffffffffffffffffffffffffffffffffffff16604051610aa6929190612152565b60405180910390a15b5b50505050565b60008082815260200190815260200160002060020154804211610ad857600080fd5b60008083815260200190815260200160002060030154804210610afa57600080fd5b82600080828152602001908152602001600020600d0160003373ffffffffffffffffffffffffffffffffffffffff1673ffffffffffffffffffffffffffffffffffffffff16815260200190815260200160002060009054906101000a900460ff16610b9a576040517f08c379a0000000000000000000000000000000000000000000000000000000008152600401610b91906120d7565b60405180910390fd5b600080905060008090506000806000888152602001908152602001600020600b0160003373ffffffffffffffffffffffffffffffffffffffff1673ffffffffffffffffffffffffffffffffffffffff1681526020019081526020016000209050898989604051602001610c0f9392919061201d565b60405160208183030381529060405280519060200120816000015414610c3457610c6c565b80600101548301925088158015610c4f575089816001015410155b15610c6b57610c5f87338c61151a565b15610c6a5789830392505b5b5b6000801b81600001819055503373ffffffffffffffffffffffffffffffffffffffff166108fc849081150290604051600060405180830381858888f19350505050158015610cbe573d6000803e3d6000fd5b507f8cbfb4cacb5be70c75e59a460b41748f6ba90769a5a3e78bfe83f90b12d69935873384604051610cf29392919061217b565b60405180910390a150505050505050505050565b60008173ffffffffffffffffffffffffffffffffffffffff16319050919050565b606060008090506060600254604051908082528060200260200182016040528015610d6c57816020015b610d5961196c565b815260200190600190039081610d515790505b50905060008090505b600154811015610f74576000151560008083815260200190815260200160002060040160009054906101000a900460ff1615151415610f6157600080600083815260200190815260200160002090506040518060c001604052808260000154815260200182600201548152602001826003015481526020018260040160009054906101000a900460ff1615158152602001826005018054600181600116156101000203166002900480601f016020809104026020016040519081016040528092919081815260200182805460018160011615610100020316600290048015610e9e5780601f10610e7357610100808354040283529160200191610e9e565b820191906000526020600020905b815481529060010190602001808311610e8157829003601f168201915b50505050508152602001826006018054600181600116156101000203166002900480601f016020809104026020016040519081016040528092919081815260200182805460018160011615610100020316600290048015610f405780601f10610f1557610100808354040283529160200191610f40565b820191906000526020600020905b815481529060010190602001808311610f2357829003601f168201915b5050505050815250838581518110610f5457fe5b6020026020010181905250505b6001830192508080600101915050610d75565b50809250505090565b60008082815260200190815260200160002060020154804210610f9f57600080fd5b8160008082815260200190815260200160002060010160009054906101000a900473ffffffffffffffffffffffffffffffffffffffff1673ffffffffffffffffffffffffffffffffffffffff163373ffffffffffffffffffffffffffffffffffffffff161415611044576040517f08c379a000000000000000000000000000000000000000000000000000000000815260040161103b906120f7565b60405180910390fd5b82600080828152602001908152602001600020600d0160003373ffffffffffffffffffffffffffffffffffffffff1673ffffffffffffffffffffffffffffffffffffffff16815260200190815260200160002060009054906101000a900460ff16156110e5576040517f08c379a00000000000000000000000000000000000000000000000000000000081526004016110dc90612117565b60405180910390fd5b604051806040016040528086815260200134815250600080868152602001908152602001600020600b0160003373ffffffffffffffffffffffffffffffffffffffff1673ffffffffffffffffffffffffffffffffffffffff16815260200190815260200160002060008201518160000155602082015181600101559050507f4b6c7d33d8244d6b35f1a8d35f6d19860fea50d46740345c395123753dd782fa33604051611192919061205a565b60405180910390a15050505050565b6000600154905060018060008282540192505081905550600160026000828254019250508190555060008342019050600083820190506040518061018001604052808481526020013373ffffffffffffffffffffffffffffffffffffffff1681526020018381526020018281526020016000151581526020018a8a8080601f016020809104026020016040519081016040528093929190818152602001838380828437600081840152601f19601f82011690508083019250505050505050815260200188888080601f016020809104026020016040519081016040528093929190818152602001838380828437600081840152601f19601f820116905080830192505050505050508152602001600015158152602001600073ffffffffffffffffffffffffffffffffffffffff1681526020016000815260200160008152602001600073ffffffffffffffffffffffffffffffffffffffff168152506000808581526020019081526020016000206000820151816000015560208201518160010160006101000a81548173ffffffffffffffffffffffffffffffffffffffff021916908373ffffffffffffffffffffffffffffffffffffffff160217905550604082015181600201556060820151816003015560808201518160040160006101000a81548160ff02191690831515021790555060a08201518160050190805190602001906113b09291906119a4565b5060c08201518160060190805190602001906113cd9291906119a4565b5060e08201518160070160006101000a81548160ff0219169083151502179055506101008201518160070160016101000a81548173ffffffffffffffffffffffffffffffffffffffff021916908373ffffffffffffffffffffffffffffffffffffffff1602179055506101208201518160080155610140820151816009015561016082015181600a0160006101000a81548173ffffffffffffffffffffffffffffffffffffffff021916908373ffffffffffffffffffffffffffffffffffffffff1602179055509050507f58c55e05f36335d586220e73c744c2bee55b978dc632f7bae51fd53b68b967de838a8a8a8a6040516114ce959493929190612220565b60405180910390a17f407f117d881ed92fbecf3649fb9568d7191c91329e6cef0cb5fc97916ef0cead8383604051611507929190612269565b60405180910390a1505050505050505050565b60008060008581526020019081526020016000206009015482116115415760009050611965565b60008085815260200190815260200160002060090154821015801561157b5750600080858152602001908152602001600020600801548211155b1561170757600073ffffffffffffffffffffffffffffffffffffffff16600080868152602001908152602001600020600a0160009054906101000a900473ffffffffffffffffffffffffffffffffffffffff1673ffffffffffffffffffffffffffffffffffffffff16146116945760008085815260200190815260200160002060090154600080868152602001908152602001600020600c016000806000888152602001908152602001600020600a0160009054906101000a900473ffffffffffffffffffffffffffffffffffffffff1673ffffffffffffffffffffffffffffffffffffffff1673ffffffffffffffffffffffffffffffffffffffff168152602001908152602001600020600082825401925050819055505b816000808681526020019081526020016000206009018190555082600080868152602001908152602001600020600a0160006101000a81548173ffffffffffffffffffffffffffffffffffffffff021916908373ffffffffffffffffffffffffffffffffffffffff160217905550611960565b6000808581526020019081526020016000206008015482111561195f57600073ffffffffffffffffffffffffffffffffffffffff16600080868152602001908152602001600020600a0160009054906101000a900473ffffffffffffffffffffffffffffffffffffffff1673ffffffffffffffffffffffffffffffffffffffff16146118385760008085815260200190815260200160002060090154600080868152602001908152602001600020600c016000806000888152602001908152602001600020600a0160009054906101000a900473ffffffffffffffffffffffffffffffffffffffff1673ffffffffffffffffffffffffffffffffffffffff1673ffffffffffffffffffffffffffffffffffffffff168152602001908152602001600020600082825401925050819055505b60008085815260200190815260200160002060070160019054906101000a900473ffffffffffffffffffffffffffffffffffffffff16600080868152602001908152602001600020600a0160006101000a81548173ffffffffffffffffffffffffffffffffffffffff021916908373ffffffffffffffffffffffffffffffffffffffff160217905550600080858152602001908152602001600020600801546000808681526020019081526020016000206009018190555081600080868152602001908152602001600020600801819055508260008086815260200190815260200160002060070160016101000a81548173ffffffffffffffffffffffffffffffffffffffff021916908373ffffffffffffffffffffffffffffffffffffffff1602179055505b5b600190505b9392505050565b6040518060c0016040528060008152602001600081526020016000815260200160001515815260200160608152602001606081525090565b828054600181600116156101000203166002900490600052602060002090601f016020900481019282601f106119e557805160ff1916838001178555611a13565b82800160010185558215611a13579182015b82811115611a125782518255916020019190600101906119f7565b5b509050611a209190611a24565b5090565b611a4691905b80821115611a42576000816000905550600101611a2a565b5090565b90565b600081359050611a588161242a565b92915050565b600081359050611a6d81612441565b92915050565b600081359050611a8281612458565b92915050565b60008083601f840112611a9a57600080fd5b8235905067ffffffffffffffff811115611ab357600080fd5b602083019150836001820283011115611acb57600080fd5b9250929050565b600081359050611ae18161246f565b92915050565b600060208284031215611af957600080fd5b6000611b0784828501611a49565b91505092915050565b60008060408385031215611b2357600080fd5b6000611b3185828601611a73565b9250506020611b4285828601611ad2565b9150509250929050565b60008060008060008060808789031215611b6557600080fd5b600087013567ffffffffffffffff811115611b7f57600080fd5b611b8b89828a01611a88565b9650965050602087013567ffffffffffffffff811115611baa57600080fd5b611bb689828a01611a88565b94509450506040611bc989828a01611ad2565b9250506060611bda89828a01611ad2565b9150509295509295509295565b600060208284031215611bf957600080fd5b6000611c0784828501611ad2565b91505092915050565b60008060008060808587031215611c2657600080fd5b6000611c3487828801611ad2565b9450506020611c4587828801611a5e565b9350506040611c5687828801611a73565b9250506060611c6787828801611ad2565b91505092959194509250565b6000611c7f8383611f58565b905092915050565b611c908161234a565b82525050565b6000611ca1826122a2565b611cab81856122c5565b935083602082028501611cbd85612292565b8060005b85811015611cf95784840389528151611cda8582611c73565b9450611ce5836122b8565b925060208a01995050600181019050611cc1565b50829750879550505050505092915050565b611d148161230a565b82525050565b611d238161230a565b82525050565b611d3a611d358261230a565b6123d4565b82525050565b611d51611d4c82612316565b6123e6565b82525050565b611d608161235c565b82525050565b6000611d7283856122e7565b9350611d7f838584612392565b611d888361240c565b840190509392505050565b6000611d9e826122ad565b611da881856122d6565b9350611db88185602086016123a1565b611dc18161240c565b840191505092915050565b6000611dd96015836122e7565b91507f41756374696f6e20616c726561647920656e64656400000000000000000000006000830152602082019050919050565b6000611e196024836122e7565b91507f4f6e6c792042656e65666963696172792063616e20656e64207468652061756360008301527f74696f6e000000000000000000000000000000000000000000000000000000006020830152604082019050919050565b6000611e7f6030836122e7565b91507f4469646e277420706c6163652061206265742c6e6f20706f696e7420696e207260008301527f657665616c696e672074686520626964000000000000000000000000000000006020830152604082019050919050565b6000611ee56016836122e7565b91507f42656e65666963696172792063616e6e6f7420626964000000000000000000006000830152602082019050919050565b6000611f25601f836122e7565b91507f42696464657220416c726561647920706c6163656420746865697220626964006000830152602082019050919050565b600060c083016000830151611f706000860182611fe8565b506020830151611f836020860182611fe8565b506040830151611f966040860182611fe8565b506060830151611fa96060860182611d0b565b5060808301518482036080860152611fc18282611d93565b91505060a083015184820360a0860152611fdb8282611d93565b9150508091505092915050565b611ff181612340565b82525050565b61200081612340565b82525050565b61201761201282612340565b6123f0565b82525050565b60006120298286612006565b6020820191506120398285611d29565b6001820191506120498284611d40565b602082019150819050949350505050565b600060208201905061206f6000830184611c87565b92915050565b6000602082019050818103600083015261208f8184611c96565b905092915050565b600060208201905081810360008301526120b081611dcc565b9050919050565b600060208201905081810360008301526120d081611e0c565b9050919050565b600060208201905081810360008301526120f081611e72565b9050919050565b6000602082019050818103600083015261211081611ed8565b9050919050565b6000602082019050818103600083015261213081611f18565b9050919050565b600060208201905061214c6000830184611ff7565b92915050565b60006040820190506121676000830185611ff7565b6121746020830184611c87565b9392505050565b60006060820190506121906000830186611ff7565b61219d6020830185611c87565b6121aa6040830184611d1a565b949350505050565b60006060820190506121c76000830186611ff7565b6121d46020830185611c87565b6121e16040830184611d57565b949350505050565b60006060820190506121fe6000830186611ff7565b61220b6020830185611c87565b6122186040830184611ff7565b949350505050565b60006060820190506122356000830188611ff7565b8181036020830152612248818688611d66565b9050818103604083015261225d818486611d66565b90509695505050505050565b600060408201905061227e6000830185611ff7565b61228b6020830184611ff7565b9392505050565b6000819050602082019050919050565b600081519050919050565b600081519050919050565b6000602082019050919050565b600082825260208201905092915050565b600082825260208201905092915050565b600082825260208201905092915050565b600061230382612320565b9050919050565b60008115159050919050565b6000819050919050565b600073ffffffffffffffffffffffffffffffffffffffff82169050919050565b6000819050919050565b60006123558261236e565b9050919050565b600061236782612340565b9050919050565b600061237982612380565b9050919050565b600061238b82612320565b9050919050565b82818337600083830152505050565b60005b838110156123bf5780820151818401526020810190506123a4565b838111156123ce576000848401525b50505050565b60006123df826123fa565b9050919050565b6000819050919050565b6000819050919050565b60006124058261241d565b9050919050565b6000601f19601f8301169050919050565b60008160f81b9050919050565b612433816122f8565b811461243e57600080fd5b50565b61244a8161230a565b811461245557600080fd5b50565b61246181612316565b811461246c57600080fd5b50565b61247881612340565b811461248357600080fd5b5056fea365627a7a7231582097082eb10bd40c9854a1d345d170e297cca0300e33cc438839c30c3b5f53e44d6c6578706572696d656e74616cf564736f6c63430005100040",
  "source": "/// SPDX-License-Identifier: MIT\npragma solidity >=0.4.22 <0.9.0;\npragma experimental ABIEncoderV2;\n\n\n/// @title The contract for buying and selling items on a market\ncontract VickreyAuction {\n\n    // Important Structures\n    \n    ///@dev stores the blinded bid\n    ///@param bidHash stores the bid hashed using the public pub_key\n    ///@param deposit stores the deposited amount\n    struct Bid {\n        bytes32 bidHash;\n        uint256 deposit;\n    }\n\n    /// @dev structure for each Auction item\n    /// @param auction_id unique id for the items\n    /// @param beneficiary the seller\n    /// @param biddingEnd time the bidding end\n    /// @param revealEnd time when reveal period is over\n    /// @param ended shows the auction ended\n    /// @param item_name shows name of the item\n    /// @param item_description description of the item\n    /// @param bids stores the list of bids indexed by address\n    /// @param sold bool to denote whether the item is sold or not\n    /// @param highestBidder address of the highest bidder\n    /// @param highestBid value of the highest bid\n    /// @param pendingReturns the value to return to each bidder\n    /// @param bidded the boolean to track which addresses have bidded.\n    /// @param secondHighestBidder the address of the second highest bidder\n    /// @param secondHighestBid the secondHighest Bid\n    struct auctions {\n        uint256 auction_id;\n        address payable beneficiary;\n        uint256 biddingEnd;\n        uint256 revealEnd;\n        bool ended;\n        string item_name;\n        string item_description;\n        \n        bool sold; \n        address payable highestBidder;\n        uint256 highestBid;\n        uint256 secondHighestBid;\n        address payable secondHighestBidder;\n\n        mapping(address => Bid) bids;\n    // Allowed withdrawals of previous bids\n        mapping(address => uint) pendingReturns;\n        mapping(address => bool) bidded;\n\n\n    }\n\n\n    /// @dev structure for each display active Auction Listings \n    /// @param auction_id unique id for the items\n    /// @param biddingEnd time the bidding end\n    /// @param revealEnd time when reveal period is over\n    /// @param ended shows the auction ended\n    /// @param item_name shows name of the item\n    /// @param item_description description of the item\n    \n    \n    struct auction_listings {\n        uint256 auction_id;\n        //address payable beneficiary;\n        uint256 biddingEnd;\n        uint256 revealEnd;\n        bool ended;\n        string item_name;\n        string item_description;\n        \n        //bool sold; \n        //address highestBidder;\n        //uint highestBid;\n\n        //mapping(address => Bid) bids;\n    // Allowed withdrawals of previous bids\n        //mapping(address => uint) pendingReturns;\n\n\n    }\n\n\n    // Errors that describe failures.\n\n    /// The function has been called too early.\n    /// Try again at `time`.\n   // error TooEarly(uint time);\n    /// The function has been called too late.\n    /// It cannot be called after `time`.\n   // error TooLate(uint time);\n    /// The function auctionEnd has already been called.\n    //error AuctionEndAlreadyCalled();\n\n\n    /// EVENTS\n\n    /// @dev this event is for when auction item is for when item for auction is listed\n    /// @param Auction_id id of the auction \n    /// @param item_name  name of the item to be Auction\n    /// @param item_description  description of the item to be auctioned\n    event AuctionStarted(uint256 Auction_id,string item_name,string item_description);\n\n    // @dev this event to annouce auction started\n    /// @param Auction_id is the id of the auction \n    /// @param highestBidder is the address of the highest Bidder\n    /// @param highestBid is the value of the winning bid\n    event AuctionEnded(uint256 Auction_id,address highestBidder,uint256 highestBid);\n\n    /// @dev this event to annouce bidding started\n    /// @param Auction_id is the id of the auction \n    /// @param bidding_end is the time when bidding period ends\n    event BiddingStarted(uint256 Auction_id,uint256 bidding_end);\n\n     /// @dev this event to annouce bidding period ended\n    /// @param Auction_id is the id of the auction \n    event BiddingPeriodEnded(uint256 Auction_id);\n\n     /// @dev announcement of a new \n     /// @param bidder address of the bidder\n    event BidMade(address bidder);\n\n    ///@dev announcement to start revealing bids\n    /// @param Auction_id id of the auction item\n    /// @param reveal_end is the time when revealing period ends\n    event RevealPeriodStarted(uint256 Auction_id,uint256 reveal_end);\n\n    ///@dev annouce to end revealing period\n    /// @param Auction_id id of the auction\n    event RevealPeriodEnded(uint256 Auction_id);\n\n    ///@dev announce winner\n    /// @param Auction_id is the id of the auction\n    /// @param winner is the address of the winner\n    event WinnerChosen(uint256 Auction_id,address winner);\n\n    ///@dev bid revealed \n    ///@param Auction_id is the id of the auction\n    ///@param bidder is the address of the revealer\n    ///@param success refers to whether the bid is succesfully revealed and refund done\n    event BidRevealed(uint256 Auction_id,address bidder,bool success);\n\n    ///@dev event to notify withdrawal of bids  \n    ///@param auction_id is the id of the auction\n    ///@param bidder is the address of the revealer\n    ///@param bid_value  refers to whether the bid is succesfully revealed and refund done\n    event BidderWithdrawn(uint256 auction_id,address bidder,uint256 bid_value);\n\n\n    ///@dev when an item goes unsold at the end of the auction\n    ///@param auction_id is the id of the auction\n    event ItemUnsold(uint256 auction_id);\n\n    /// @dev create a lists of all auctions\n    mapping(uint256 => auctions) private Auctions;\n\n        // variables for managing auctions\n    uint256 current_auction_id = 0;\n    uint256 activeauctions = 0;\n\n\n    //MODIFIERS\n\n    /// @notice Check whether a given condition is true\n    /// @param _condition condition statement to verify.\n    modifier condition(bool _condition) {\n        require(_condition);\n        _;\n    }\n\n\n    modifier onlyBefore(uint256 _time) {\n        require(block.timestamp < _time);\n        _;\n    }\n    modifier onlyAfter(uint256 _time) {\n        require(block.timestamp > _time);\n        _;\n    }\n\n\n    modifier validBidder(uint256 auction_id) {\n        require(msg.sender != Auctions[auction_id].beneficiary, \"Beneficiary cannot bid\");\n        _;\n    } modifier newBidder(uint256 auction_id) {\n        require(!Auctions[auction_id].bidded[msg.sender], \"Bidder Already placed their bid\");\n        _;\n    }\n\n    modifier alreadyBidder(uint256 auction_id) {\n        require(Auctions[auction_id].bidded[msg.sender], \"Didn't place a bet,no point in revealing the bid\");\n        _;\n    }\n    \n\n    modifier onlyBeneficiary(uint256 auction_id){\n        require(Auctions[auction_id].beneficiary == msg.sender, \"Only Beneficiary can end the auction\");\n        _;\n    }\n\n    modifier auctionActive(uint256 auction_id){\n        require(Auctions[auction_id].ended == false, \"Auction already ended\");\n        _;\n    }\n    \n\n\n\n\n\n    //functions\n\n\n    /// @notice returns balance of account\n    /// @param account Address of the account.\n    function getAccountBalance(address account)\n        public\n        view\n        returns (uint256 accountBalance)\n    {\n        accountBalance = account.balance;\n    }\n\n\n\n    /// @dev function to list the auction of a new item \n    /// @param item_name name of the item\n    /// @param item_description is the description of the item\n    /// @param bidding_time how long the bidding will go\n    /// @param reveal_time how long the reveal will go \n    function auctionItem(\n        string calldata item_name,\n        string calldata item_description,\n        uint256 bidding_time,\n        uint256 reveal_time) external payable {\n            uint256 auction_id = current_auction_id;\n            current_auction_id += 1;\n            activeauctions += 1;\n            uint256 bidding_end = block.timestamp + bidding_time;\n            uint256 reveal_end = bidding_end + reveal_time;\n\n            Auctions[auction_id] = auctions(\n                auction_id,\n                msg.sender,\n                bidding_end,\n                reveal_end,\n                false,\n                item_name,\n                item_description,\n                false,\n                address(0),\n                0,\n                0,\n                address(0)      \n            );\n        emit AuctionStarted(auction_id,item_name,item_description);\n        emit BiddingStarted(auction_id, bidding_end);\n\n\n        }\n    \n    \n    // function to to get a list of all active auctions\n    /// @notice Get all the active auction listings items in the market\n    /// @return a list of active auction listings\n    function getactiveauctions() external view returns (auction_listings[] memory) {\n        uint256 currentIndex = 0;\n        auction_listings[] memory active_auctions = new auction_listings[](activeauctions);\n        for (uint256 i = 0; i < current_auction_id; i++){\n            if(Auctions[i].ended == false){\n                auctions storage currentauction = Auctions[i];\n                active_auctions[currentIndex] = auction_listings(\n                    currentauction.auction_id,\n                    currentauction.biddingEnd,\n                    currentauction.revealEnd,\n                    currentauction.ended,\n                    currentauction.item_name,\n                    currentauction.item_description\n                );\n            }\n            currentIndex += 1;\n        }\n        return active_auctions;\n\n    }\n\n    // function that can be used to bid in an auction\n    /// @param blindedBid is the hashed version of bid \n    /// @param auction_id is the id of the auction\n    function bid(bytes32 blindedBid,uint256 auction_id)\n\n        external\n        payable\n        onlyBefore(Auctions[auction_id].biddingEnd)\n        validBidder(auction_id)\n        newBidder(auction_id)\n    {\n        Auctions[auction_id].bids[msg.sender] = Bid(\n            blindedBid,\n            msg.value\n\n        );\n        emit BidMade(msg.sender);\n\n    }\n\n    /// @dev Reveal your blinded bids. You will get a refund for all\n    /// @dev correctly blinded invalid bids and for all bids except for\n    /// @dev the totally highest.\n    /// @param value value of the bid\n    /// @param fake not sure what fake is for \n    /// @param secret again not sure \n    /// @param auction_id id of the auction\n    function reveal(\n        uint256 value,\n        bool fake,\n        bytes32 secret,\n        uint256 auction_id\n    )\n        external\n        payable \n        onlyAfter(Auctions[auction_id].biddingEnd)\n        onlyBefore(Auctions[auction_id].revealEnd)\n        alreadyBidder(auction_id)\n    {\n        \n\n        uint256 refund = 0 ;\n        bool success = false;\n            //get the bid placed by the user \n            Bid storage bidToCheck = Auctions[auction_id].bids[msg.sender];\n\n            // improper revealing \n            if (bidToCheck.bidHash != keccak256(abi.encodePacked(value, fake, secret))) {\n                // Bid was not actually revealed.\n                // Do not refund deposit.\n            \n            }\n            else\n            {\n            refund += bidToCheck.deposit;\n            if (!fake && bidToCheck.deposit >= value) {\n                if (placeBid(auction_id,msg.sender, value))\n                    refund -= value;\n            }\n            }\n            // Make it impossible for the sender to re-claim\n            // the same deposit.\n            bidToCheck.bidHash = bytes32(0);\n        \n        msg.sender.transfer(refund);\n        emit BidRevealed(auction_id,msg.sender,success);\n    }\n\n    \n\n     // This is an \"internal\" function which means that it\n    // can only be called from the contract itself (or from\n    // derived contracts).\n    ///@dev the function is used accept bids by the owner\n    ///@param auction_id is the id of the auction \n    ///@param bidder is the address of the bidder\n    ///@param value is the value of the bid\n    function placeBid(uint256 auction_id,address payable bidder, uint value) internal\n            returns (bool success)\n    {\n        if (value <= Auctions[auction_id].secondHighestBid) {\n            return false;\n        }\n        else if (value >= Auctions[auction_id].secondHighestBid && value <= Auctions[auction_id].highestBid) {\n            if(Auctions[auction_id].secondHighestBidder != address(0)) {\n                Auctions[auction_id].pendingReturns[Auctions[auction_id].secondHighestBidder] += Auctions[auction_id].secondHighestBid;\n            \n            }\n            Auctions[auction_id].secondHighestBid = value;\n            Auctions[auction_id].secondHighestBidder = bidder;\n\n        }\n        else if (value > Auctions[auction_id].highestBid)  {\n\n            // Refund the previously highest bidder.\n            if(Auctions[auction_id].secondHighestBidder != address(0)){\n                Auctions[auction_id].pendingReturns[Auctions[auction_id].secondHighestBidder] += Auctions[auction_id].secondHighestBid;\n                }\n            Auctions[auction_id].secondHighestBidder = Auctions[auction_id].highestBidder;\n            Auctions[auction_id].secondHighestBid = Auctions[auction_id].highestBid;\n            Auctions[auction_id].highestBid = value;\n            Auctions[auction_id].highestBidder = bidder;\n        }\n        \n        return true;\n    }\n\n\n    ///@dev function to withdraw overbid/non-winning bids\n    ///@param auction_id is the id of the Auction\n    function withdraw(uint256 auction_id) \n    external\n     {\n        emit BidderWithdrawn(auction_id,msg.sender, Auctions[auction_id].pendingReturns[msg.sender]);\n        if (Auctions[auction_id].pendingReturns[msg.sender] > 0) {\n            uint256 value = Auctions[auction_id].pendingReturns[msg.sender];\n            Auctions[auction_id].pendingReturns[msg.sender] = 0;\n            address payable payable_sender = msg.sender;\n            payable_sender.transfer(value);\n        }\n    }\n\n\n    ///@dev End the auction and send the highest bid to the beneficiary\n    ///@param auction_id is the id of the auction\n    ///@notice only beneficiary of the auction can call the function\n    function auctionEnd(uint256 auction_id)\n        external\n        onlyAfter(Auctions[auction_id].revealEnd)\n        onlyBeneficiary(auction_id)\n        auctionActive(auction_id)\n    {\n        //if (Auctions[auction_id].ended) revert AuctionEndAlreadyCalled();\n        if(Auctions[auction_id].highestBidder == address(0) && Auctions[auction_id].highestBid == 0){\n            emit ItemUnsold(auction_id);\n            emit AuctionEnded(auction_id,address(0),0);\n            Auctions[auction_id].ended = true;\n        }\n        else if(Auctions[auction_id].secondHighestBidder == address(0) && Auctions[auction_id].secondHighestBid == 0){\n            emit AuctionEnded(auction_id,Auctions[auction_id].highestBidder, Auctions[auction_id].highestBid);\n            \n            Auctions[auction_id].ended = true;\n            Auctions[auction_id].sold = true;\n            Auctions[auction_id].beneficiary.transfer(Auctions[auction_id].highestBid);\n            emit WinnerChosen(auction_id,Auctions[auction_id].highestBidder);\n        }\n        else\n        {\n            emit AuctionEnded(auction_id,Auctions[auction_id].secondHighestBidder, Auctions[auction_id].secondHighestBid);\n            Auctions[auction_id].ended = true;\n            Auctions[auction_id].sold = true;\n            Auctions[auction_id].highestBidder.transfer(Auctions[auction_id].highestBid);\n            //highest.transfer(Auctions[auction_id].highestBid);\n            Auctions[auction_id].beneficiary.transfer(Auctions[auction_id].secondHighestBid);\n            emit WinnerChosen(auction_id,Auctions[auction_id].secondHighestBidder);\n            \n\n\n        }\n    }\n\n\n    }\n\n\n\n    \n        \n",
  "sourcePath": "/home/rutvij/programming/Assignments/DTBC/Block-Chain-Collab/Assignments/2/contracts/VickreyAuction2.sol",
  "compiler": {
    "name": "solc",
    "version": "0.5.16+commit.9c3226ce.Emscripten.clang"
  },
  "schemaVersion": "3.4.3",
  "updatedAt": "2021-10-10T06:54:32.104Z",
  "devdoc": {
    "methods": {
      "auctionEnd(uint256)": {
        "details": "End the auction and send the highest bid to the beneficiary",
        "params": {
          "auction_id": "is the id of the auction"
        }
      },
      "auctionItem(string,string,uint256,uint256)": {
        "details": "function to list the auction of a new item ",
        "params": {
          "bidding_time": "how long the bidding will go",
          "item_description": "is the description of the item",
          "item_name": "name of the item",
          "reveal_time": "how long the reveal will go "
        }
      },
      "bid(bytes32,uint256)": {
        "params": {
          "auction_id": "is the id of the auction",
          "blindedBid": "is the hashed version of bid "
        }
      },
      "getAccountBalance(address)": {
        "params": {
          "account": "Address of the account."
        }
      },
      "getactiveauctions()": {
        "return": "a list of active auction listings"
      },
      "reveal(uint256,bool,bytes32,uint256)": {
        "details": "Reveal your blinded bids. You will get a refund for allcorrectly blinded invalid bids and for all bids except forthe totally highest.",
        "params": {
          "auction_id": "id of the auction",
          "fake": "not sure what fake is for ",
          "secret": "again not sure ",
          "value": "value of the bid"
        }
      },
      "withdraw(uint256)": {
        "details": "function to withdraw overbid/non-winning bids",
        "params": {
          "auction_id": "is the id of the Auction"
        }
      }
    },
    "title": "The contract for buying and selling items on a market"
  },
  "userdoc": {
    "methods": {
      "auctionEnd(uint256)": {
        "notice": "only beneficiary of the auction can call the function"
      },
      "getAccountBalance(address)": {
        "notice": "returns balance of account"
      },
      "getactiveauctions()": {
        "notice": "Get all the active auction listings items in the market"
      }
    }
  }
}