{
  "contractName": "VikreyAuction",
  "abi": [
    {
      "anonymous": false,
      "inputs": [
        {
          "indexed": false,
          "internalType": "uint256",
          "name": "Auction_id",
          "type": "uint256"
        },
        {
          "indexed": false,
          "internalType": "address",
          "name": "highestBidder",
          "type": "address"
        },
        {
          "indexed": false,
          "internalType": "uint256",
          "name": "highestBid",
          "type": "uint256"
        }
      ],
      "name": "AuctionEnded",
      "type": "event"
    },
    {
      "anonymous": false,
      "inputs": [
        {
          "indexed": false,
          "internalType": "uint256",
          "name": "Auction_id",
          "type": "uint256"
        },
        {
          "indexed": false,
          "internalType": "string",
          "name": "item_name",
          "type": "string"
        },
        {
          "indexed": false,
          "internalType": "string",
          "name": "item_description",
          "type": "string"
        }
      ],
      "name": "AuctionStarted",
      "type": "event"
    },
    {
      "anonymous": false,
      "inputs": [
        {
          "indexed": false,
          "internalType": "uint256",
          "name": "auction_id",
          "type": "uint256"
        },
        {
          "indexed": false,
          "internalType": "address",
          "name": "bidder",
          "type": "address"
        },
        {
          "indexed": false,
          "internalType": "uint256",
          "name": "balance",
          "type": "uint256"
        }
      ],
      "name": "BalanceRefunded",
      "type": "event"
    },
    {
      "anonymous": false,
      "inputs": [
        {
          "indexed": false,
          "internalType": "address",
          "name": "bidder",
          "type": "address"
        }
      ],
      "name": "BidMade",
      "type": "event"
    },
    {
      "anonymous": false,
      "inputs": [
        {
          "indexed": false,
          "internalType": "uint256",
          "name": "Auction_id",
          "type": "uint256"
        },
        {
          "indexed": false,
          "internalType": "address",
          "name": "bidder",
          "type": "address"
        }
      ],
      "name": "BidRevealFailed",
      "type": "event"
    },
    {
      "anonymous": false,
      "inputs": [
        {
          "indexed": false,
          "internalType": "uint256",
          "name": "Auction_id",
          "type": "uint256"
        },
        {
          "indexed": false,
          "internalType": "address",
          "name": "bidder",
          "type": "address"
        }
      ],
      "name": "BidRevealed",
      "type": "event"
    },
    {
      "anonymous": false,
      "inputs": [
        {
          "indexed": false,
          "internalType": "uint256",
          "name": "auction_id",
          "type": "uint256"
        },
        {
          "indexed": false,
          "internalType": "address",
          "name": "bidder",
          "type": "address"
        },
        {
          "indexed": false,
          "internalType": "uint256",
          "name": "bid_value",
          "type": "uint256"
        }
      ],
      "name": "BidderRefunded",
      "type": "event"
    },
    {
      "anonymous": false,
      "inputs": [
        {
          "indexed": false,
          "internalType": "uint256",
          "name": "Auction_id",
          "type": "uint256"
        }
      ],
      "name": "BiddingPeriodEnded",
      "type": "event"
    },
    {
      "anonymous": false,
      "inputs": [
        {
          "indexed": false,
          "internalType": "uint256",
          "name": "Auction_id",
          "type": "uint256"
        },
        {
          "indexed": false,
          "internalType": "uint256",
          "name": "bidding_end",
          "type": "uint256"
        }
      ],
      "name": "BiddingStarted",
      "type": "event"
    },
    {
      "anonymous": false,
      "inputs": [
        {
          "indexed": false,
          "internalType": "uint256",
          "name": "auction_id",
          "type": "uint256"
        },
        {
          "indexed": false,
          "internalType": "address",
          "name": "bidder",
          "type": "address"
        }
      ],
      "name": "DepositNotEnough",
      "type": "event"
    },
    {
      "anonymous": false,
      "inputs": [
        {
          "indexed": false,
          "internalType": "uint256",
          "name": "auction_id",
          "type": "uint256"
        }
      ],
      "name": "ItemUnsold",
      "type": "event"
    },
    {
      "anonymous": false,
      "inputs": [
        {
          "indexed": false,
          "internalType": "uint256",
          "name": "auction_id",
          "type": "uint256"
        },
        {
          "indexed": false,
          "internalType": "address",
          "name": "bidder",
          "type": "address"
        },
        {
          "indexed": false,
          "internalType": "uint256",
          "name": "bid_value",
          "type": "uint256"
        }
      ],
      "name": "NewHighestBid",
      "type": "event"
    },
    {
      "anonymous": false,
      "inputs": [
        {
          "indexed": false,
          "internalType": "uint256",
          "name": "Auction_id",
          "type": "uint256"
        }
      ],
      "name": "RevealPeriodEnded",
      "type": "event"
    },
    {
      "anonymous": false,
      "inputs": [
        {
          "indexed": false,
          "internalType": "uint256",
          "name": "Auction_id",
          "type": "uint256"
        },
        {
          "indexed": false,
          "internalType": "uint256",
          "name": "reveal_end",
          "type": "uint256"
        }
      ],
      "name": "RevealPeriodStarted",
      "type": "event"
    },
    {
      "anonymous": false,
      "inputs": [
        {
          "indexed": false,
          "internalType": "uint256",
          "name": "Auction_id",
          "type": "uint256"
        },
        {
          "indexed": false,
          "internalType": "address",
          "name": "winner",
          "type": "address"
        },
        {
          "indexed": false,
          "internalType": "string",
          "name": "pubkey",
          "type": "string"
        },
        {
          "indexed": false,
          "internalType": "uint256",
          "name": "winning_bid",
          "type": "uint256"
        }
      ],
      "name": "WinnerChosen",
      "type": "event"
    },
    {
      "anonymous": false,
      "inputs": [
        {
          "indexed": false,
          "internalType": "uint256",
          "name": "auction_id",
          "type": "uint256"
        }
      ],
      "name": "deliveryComplete",
      "type": "event"
    },
    {
      "anonymous": false,
      "inputs": [
        {
          "indexed": false,
          "internalType": "uint256",
          "name": "auction_id",
          "type": "uint256"
        },
        {
          "indexed": false,
          "internalType": "string",
          "name": "H",
          "type": "string"
        }
      ],
      "name": "encryptedKey",
      "type": "event"
    },
    {
      "constant": true,
      "inputs": [
        {
          "internalType": "address",
          "name": "account",
          "type": "address"
        }
      ],
      "name": "getAccountBalance",
      "outputs": [
        {
          "internalType": "uint256",
          "name": "accountBalance",
          "type": "uint256"
        }
      ],
      "payable": false,
      "stateMutability": "view",
      "type": "function"
    },
    {
      "constant": false,
      "inputs": [
        {
          "internalType": "string",
          "name": "item_name",
          "type": "string"
        },
        {
          "internalType": "string",
          "name": "item_description",
          "type": "string"
        },
        {
          "internalType": "uint256",
          "name": "bidding_time",
          "type": "uint256"
        },
        {
          "internalType": "uint256",
          "name": "reveal_time",
          "type": "uint256"
        }
      ],
      "name": "auctionItem",
      "outputs": [],
      "payable": true,
      "stateMutability": "payable",
      "type": "function"
    },
    {
      "constant": true,
      "inputs": [],
      "name": "getactiveauctions",
      "outputs": [
        {
          "components": [
            {
              "internalType": "uint256",
              "name": "auction_id",
              "type": "uint256"
            },
            {
              "internalType": "address payable",
              "name": "beneficiary",
              "type": "address"
            },
            {
              "internalType": "uint256",
              "name": "biddingEnd",
              "type": "uint256"
            },
            {
              "internalType": "uint256",
              "name": "revealEnd",
              "type": "uint256"
            },
            {
              "internalType": "bool",
              "name": "ended",
              "type": "bool"
            },
            {
              "internalType": "string",
              "name": "item_name",
              "type": "string"
            },
            {
              "internalType": "string",
              "name": "item_description",
              "type": "string"
            },
            {
              "internalType": "bool",
              "name": "bidplaced",
              "type": "bool"
            },
            {
              "internalType": "bool",
              "name": "revealed",
              "type": "bool"
            }
          ],
          "internalType": "struct VikreyAuction.auction_active_listings[]",
          "name": "",
          "type": "tuple[]"
        }
      ],
      "payable": false,
      "stateMutability": "view",
      "type": "function"
    },
    {
      "constant": true,
      "inputs": [],
      "name": "getallauctions",
      "outputs": [
        {
          "components": [
            {
              "internalType": "uint256",
              "name": "auction_id",
              "type": "uint256"
            },
            {
              "internalType": "address payable",
              "name": "beneficiary",
              "type": "address"
            },
            {
              "internalType": "address payable",
              "name": "winner",
              "type": "address"
            },
            {
              "internalType": "uint256",
              "name": "biddingEnd",
              "type": "uint256"
            },
            {
              "internalType": "uint256",
              "name": "revealEnd",
              "type": "uint256"
            },
            {
              "internalType": "bool",
              "name": "ended",
              "type": "bool"
            },
            {
              "internalType": "bool",
              "name": "sold",
              "type": "bool"
            },
            {
              "internalType": "string",
              "name": "item_name",
              "type": "string"
            },
            {
              "internalType": "string",
              "name": "item_description",
              "type": "string"
            },
            {
              "internalType": "bool",
              "name": "bidplaced",
              "type": "bool"
            },
            {
              "internalType": "bool",
              "name": "revealed",
              "type": "bool"
            },
            {
              "internalType": "uint256",
              "name": "finalBid",
              "type": "uint256"
            },
            {
              "internalType": "string",
              "name": "pubkey",
              "type": "string"
            },
            {
              "internalType": "string",
              "name": "H",
              "type": "string"
            }
          ],
          "internalType": "struct VikreyAuction.auction_all_listings[]",
          "name": "",
          "type": "tuple[]"
        }
      ],
      "payable": false,
      "stateMutability": "view",
      "type": "function"
    },
    {
      "constant": false,
      "inputs": [
        {
          "internalType": "bytes32",
          "name": "blindedBid",
          "type": "bytes32"
        },
        {
          "internalType": "uint256",
          "name": "auction_id",
          "type": "uint256"
        },
        {
          "internalType": "string",
          "name": "pubkey",
          "type": "string"
        }
      ],
      "name": "bid",
      "outputs": [],
      "payable": true,
      "stateMutability": "payable",
      "type": "function"
    },
    {
      "constant": false,
      "inputs": [
        {
          "internalType": "uint256",
          "name": "value",
          "type": "uint256"
        },
        {
          "internalType": "string",
          "name": "secret",
          "type": "string"
        },
        {
          "internalType": "uint256",
          "name": "auction_id",
          "type": "uint256"
        }
      ],
      "name": "reveal",
      "outputs": [],
      "payable": true,
      "stateMutability": "payable",
      "type": "function"
    },
    {
      "constant": false,
      "inputs": [
        {
          "internalType": "uint256",
          "name": "auction_id",
          "type": "uint256"
        }
      ],
      "name": "auctionEnd",
      "outputs": [],
      "payable": false,
      "stateMutability": "nonpayable",
      "type": "function"
    },
    {
      "constant": false,
      "inputs": [
        {
          "internalType": "uint256",
          "name": "auction_id",
          "type": "uint256"
        },
        {
          "internalType": "string",
          "name": "H",
          "type": "string"
        }
      ],
      "name": "sellItem",
      "outputs": [],
      "payable": true,
      "stateMutability": "payable",
      "type": "function"
    },
    {
      "constant": false,
      "inputs": [
        {
          "internalType": "uint256",
          "name": "auction_id",
          "type": "uint256"
        }
      ],
      "name": "confirmDelivery",
      "outputs": [],
      "payable": true,
      "stateMutability": "payable",
      "type": "function"
    }
  ],
  "bytecode": "0x60806040526000600155600060025534801561001a57600080fd5b50613cfb8061002a6000396000f3fe6080604052600436106100865760003560e01c806393423e9c1161005957806393423e9c1461011757806396a18f8014610154578063b5e360371461017f578063e701cfc21461019b578063fd84cb97146101b757610086565b80630754aebb1461008b57806332246e9f146100b65780634f3ae594146100df57806384febc4b146100fb575b600080fd5b34801561009757600080fd5b506100a06101d3565b6040516100ad919061379c565b60405180910390f35b3480156100c257600080fd5b506100dd60048036036100d89190810190612e84565b610752565b005b6100f960048036036100f49190810190612f05565b6110d3565b005b61011560048036036101109190810190612ead565b61156a565b005b34801561012357600080fd5b5061013e60048036036101399190810190612d54565b61177f565b60405161014b919061391e565b60405180910390f35b34801561016057600080fd5b506101696117a0565b604051610176919061377a565b60405180910390f35b61019960048036036101949190810190612d7d565b611ae3565b005b6101b560048036036101b09190810190612de9565b611e52565b005b6101d160048036036101cc9190810190612e84565b612264565b005b60608060015460405190808252806020026020018201604052801561021257816020015b6101ff6129ce565b8152602001906001900390816101f75790505b50905060008090505b60015481101561074a57600080600083815260200190815260200160002090506060604051806020016040528060008152509050600073ffffffffffffffffffffffffffffffffffffffff168260070160019054906101000a900473ffffffffffffffffffffffffffffffffffffffff1673ffffffffffffffffffffffffffffffffffffffff16146103a8578160120160008360070160019054906101000a900473ffffffffffffffffffffffffffffffffffffffff1673ffffffffffffffffffffffffffffffffffffffff1673ffffffffffffffffffffffffffffffffffffffff1681526020019081526020016000208054600181600116156101000203166002900480601f0160208091040260200160405190810160405280929190818152602001828054600181600116156101000203166002900480156103a05780601f10610375576101008083540402835291602001916103a0565b820191906000526020600020905b81548152906001019060200180831161038357829003601f168201915b505050505090505b604051806101c00160405280836000015481526020018360010160009054906101000a900473ffffffffffffffffffffffffffffffffffffffff1673ffffffffffffffffffffffffffffffffffffffff1681526020018360070160019054906101000a900473ffffffffffffffffffffffffffffffffffffffff1673ffffffffffffffffffffffffffffffffffffffff16815260200183600201548152602001836003015481526020018360040160009054906101000a900460ff16151581526020018360070160009054906101000a900460ff1615158152602001836005018054600181600116156101000203166002900480601f01602080910402602001604051908101604052809291908181526020018280546001816001161561010002031660029004801561051c5780601f106104f15761010080835404028352916020019161051c565b820191906000526020600020905b8154815290600101906020018083116104ff57829003601f168201915b50505050508152602001836006018054600181600116156101000203166002900480601f0160208091040260200160405190810160405280929190818152602001828054600181600116156101000203166002900480156105be5780601f10610593576101008083540402835291602001916105be565b820191906000526020600020905b8154815290600101906020018083116105a157829003601f168201915b505050505081526020018360100160003373ffffffffffffffffffffffffffffffffffffffff1673ffffffffffffffffffffffffffffffffffffffff16815260200190815260200160002060009054906101000a900460ff16151581526020018360110160003373ffffffffffffffffffffffffffffffffffffffff1673ffffffffffffffffffffffffffffffffffffffff16815260200190815260200160002060009054906101000a900460ff161515815260200183600c0154815260200182815260200183600d018054600181600116156101000203166002900480601f01602080910402602001604051908101604052809291908181526020018280546001816001161561010002031660029004801561071c5780601f106106f15761010080835404028352916020019161071c565b820191906000526020600020905b8154815290600101906020018083116106ff57829003601f168201915b505050505081525084848151811061073057fe5b60200260200101819052505050808060010191505061021b565b508091505090565b600080828152602001908152602001600020600301548042116107aa576040517f08c379a00000000000000000000000000000000000000000000000000000000081526004016107a1906138be565b60405180910390fd5b813373ffffffffffffffffffffffffffffffffffffffff1660008083815260200190815260200160002060010160009054906101000a900473ffffffffffffffffffffffffffffffffffffffff1673ffffffffffffffffffffffffffffffffffffffff161461084e576040517f08c379a00000000000000000000000000000000000000000000000000000000081526004016108459061383e565b60405180910390fd5b826000151560008083815260200190815260200160002060040160009054906101000a900460ff161515146108b8576040517f08c379a00000000000000000000000000000000000000000000000000000000081526004016108af906137fe565b60405180910390fd5b8360015481106108fd576040517f08c379a00000000000000000000000000000000000000000000000000000000081526004016108f49061381e565b60405180910390fd5b6000809050600073ffffffffffffffffffffffffffffffffffffffff1660008088815260200190815260200160002060070160019054906101000a900473ffffffffffffffffffffffffffffffffffffffff1673ffffffffffffffffffffffffffffffffffffffff161480156109885750600080600088815260200190815260200160002060080154145b15610a44577ff656db5d7eec16959704ab1442c4686390e8bdca6e2fd99d193f6871512359ea866040516109bc919061391e565b60405180910390a17fd2aa34a4fdbbc6dff6a3e56f46e0f3ae2a31d7785ff3487aa5c95c642acea501866000806040516109f893929190613962565b60405180910390a1600160008088815260200190815260200160002060040160006101000a81548160ff02191690831515021790555060016002600082825403925050819055506110cb565b6000806000888152602001908152602001600020600901541415610cf0577fd2aa34a4fdbbc6dff6a3e56f46e0f3ae2a31d7785ff3487aa5c95c642acea5018660008089815260200190815260200160002060070160019054906101000a900473ffffffffffffffffffffffffffffffffffffffff166000808a815260200190815260200160002060080154604051610adf939291906139e5565b60405180910390a160008087815260200190815260200160002060070160019054906101000a900473ffffffffffffffffffffffffffffffffffffffff16600080888152602001908152602001600020600b0160006101000a81548173ffffffffffffffffffffffffffffffffffffffff021916908373ffffffffffffffffffffffffffffffffffffffff16021790555060008087815260200190815260200160002060080154600080888152602001908152602001600020600c0181905550600160008088815260200190815260200160002060040160006101000a81548160ff02191690831515021790555060016002600082825403925050819055507f9fa608827c3c4a8327a334f831d3ac579446f5314638ac0108bbaa17441e16a48660008089815260200190815260200160002060070160019054906101000a900473ffffffffffffffffffffffffffffffffffffffff166000808a815260200190815260200160002060120160008060008c8152602001908152602001600020600b0160009054906101000a900473ffffffffffffffffffffffffffffffffffffffff1673ffffffffffffffffffffffffffffffffffffffff1673ffffffffffffffffffffffffffffffffffffffff1681526020019081526020016000206000808b8152602001908152602001600020600c0154604051610ce39493929190613999565b60405180910390a16110ca565b7fd2aa34a4fdbbc6dff6a3e56f46e0f3ae2a31d7785ff3487aa5c95c642acea5018660008089815260200190815260200160002060070160019054906101000a900473ffffffffffffffffffffffffffffffffffffffff166000808a815260200190815260200160002060090154604051610d6d939291906139e5565b60405180910390a160008087815260200190815260200160002060070160019054906101000a900473ffffffffffffffffffffffffffffffffffffffff16600080888152602001908152602001600020600b0160006101000a81548173ffffffffffffffffffffffffffffffffffffffff021916908373ffffffffffffffffffffffffffffffffffffffff16021790555060008087815260200190815260200160002060090154600080888152602001908152602001600020600c0181905550600160008088815260200190815260200160002060040160006101000a81548160ff02191690831515021790555060016002600082825403925050819055506000806000888152602001908152602001600020600901546000808981526020019081526020016000206008015403600202905080600080898152602001908152602001600020600f0160008060008b815260200190815260200160002060070160019054906101000a900473ffffffffffffffffffffffffffffffffffffffff1673ffffffffffffffffffffffffffffffffffffffff1673ffffffffffffffffffffffffffffffffffffffff1681526020019081526020016000206000828254019250508190555060008090505b600080898152602001908152602001600020600a0180549050811015610fba57610faf886000808b8152602001908152602001600020600a018381548110610f7f57fe5b9060005260206000200160009054906101000a900473ffffffffffffffffffffffffffffffffffffffff166125cb565b806001019050610f3b565b507f9fa608827c3c4a8327a334f831d3ac579446f5314638ac0108bbaa17441e16a4876000808a8152602001908152602001600020600b0160009054906101000a900473ffffffffffffffffffffffffffffffffffffffff166000808b815260200190815260200160002060120160008060008d8152602001908152602001600020600b0160009054906101000a900473ffffffffffffffffffffffffffffffffffffffff1673ffffffffffffffffffffffffffffffffffffffff1673ffffffffffffffffffffffffffffffffffffffff1681526020019081526020016000206000808c8152602001908152602001600020600c01546040516110c09493929190613999565b60405180910390a1505b5b505050505050565b6000808281526020019081526020016000206002015480421161112b576040517f08c379a0000000000000000000000000000000000000000000000000000000008152600401611122906138be565b60405180910390fd5b60008083815260200190815260200160002060030154804210611183576040517f08c379a000000000000000000000000000000000000000000000000000000000815260040161117a9061385e565b60405180910390fd5b826001151560008083815260200190815260200160002060100160003373ffffffffffffffffffffffffffffffffffffffff1673ffffffffffffffffffffffffffffffffffffffff16815260200190815260200160002060009054906101000a900460ff1615151461122a576040517f08c379a00000000000000000000000000000000000000000000000000000000081526004016112219061387e565b60405180910390fd5b83600154811061126f576040517f08c379a00000000000000000000000000000000000000000000000000000000081526004016112669061381e565b60405180910390fd5b600080905060008090506000806000898152602001908152602001600020600e0160003373ffffffffffffffffffffffffffffffffffffffff1673ffffffffffffffffffffffffffffffffffffffff16815260200190815260200160002090508a8a8a6040516020016112e493929190613a1c565b60405160208183030381529060405280519060200120816000015414611342577fad8c260aa7a48094cdeb8c07f33bcf4e3bb56893286c330706ca376c728e9f3e8833604051611335929190613939565b60405180910390a161155d565b6000801b8160000181905550600080898152602001908152602001600020600a013390806001815401808255809150509060018203906000526020600020016000909192909190916101000a81548173ffffffffffffffffffffffffffffffffffffffff021916908373ffffffffffffffffffffffffffffffffffffffff1602179055505060016000808a815260200190815260200160002060110160003373ffffffffffffffffffffffffffffffffffffffff1673ffffffffffffffffffffffffffffffffffffffff16815260200190815260200160002060006101000a81548160ff0219169083151502179055508060010154830192508a6002028160010154106114a05761145488338d6127ce565b15611462578a600202830392505b7fcb1784faad642d48c787676118783766577faa10d9c69eb1fbb40c3baaac87d18833604051611493929190613939565b60405180910390a16114da565b7f2aef0deb49f8c134c725c0d4075973ab3c581f0d16cce112ab4ed4b26b9ddaa388336040516114d1929190613939565b60405180910390a15b7f0ce627ddf6b4fdb8de00ae62e2f2b8dee6a4226b75fccd3d6692329c8e0d2c1c88338560405161150d939291906139e5565b60405180910390a13373ffffffffffffffffffffffffffffffffffffffff166108fc849081150290604051600060405180830381858888f1935050505015801561155b573d6000803e3d6000fd5b505b5050505050505050505050565b8260015481106115af576040517f08c379a00000000000000000000000000000000000000000000000000000000081526004016115a69061381e565b60405180910390fd5b836001151560008083815260200190815260200160002060040160009054906101000a900460ff16151514611619576040517f08c379a0000000000000000000000000000000000000000000000000000000008152600401611610906137de565b60405180910390fd5b843373ffffffffffffffffffffffffffffffffffffffff1660008083815260200190815260200160002060010160009054906101000a900473ffffffffffffffffffffffffffffffffffffffff1673ffffffffffffffffffffffffffffffffffffffff16146116bd576040517f08c379a00000000000000000000000000000000000000000000000000000000081526004016116b49061383e565b60405180910390fd5b600080878152602001908152602001600020600c01546002023414611717576040517f08c379a000000000000000000000000000000000000000000000000000000000815260040161170e906137be565b60405180910390fd5b8484600080898152602001908152602001600020600d01919061173b929190612a71565b507f45bd963234a41bc8d75b2e2caf57f0987f5d405e1d4bbf09b919faeff927937c86868660405161176f93929190613a1c565b60405180910390a1505050505050565b60008173ffffffffffffffffffffffffffffffffffffffff16319050919050565b6060600080905060606002546040519080825280602002602001820160405280156117e557816020015b6117d2612af1565b8152602001906001900390816117ca5790505b50905060008090505b600154811015611ada576000151560008083815260200190815260200160002060040160009054906101000a900460ff1615151415611acd5760008060008381526020019081526020016000209050604051806101200160405280826000015481526020018260010160009054906101000a900473ffffffffffffffffffffffffffffffffffffffff1673ffffffffffffffffffffffffffffffffffffffff16815260200182600201548152602001826003015481526020018260040160009054906101000a900460ff1615158152602001826005018054600181600116156101000203166002900480601f0160208091040260200160405190810160405280929190818152602001828054600181600116156101000203166002900480156119585780601f1061192d57610100808354040283529160200191611958565b820191906000526020600020905b81548152906001019060200180831161193b57829003601f168201915b50505050508152602001826006018054600181600116156101000203166002900480601f0160208091040260200160405190810160405280929190818152602001828054600181600116156101000203166002900480156119fa5780601f106119cf576101008083540402835291602001916119fa565b820191906000526020600020905b8154815290600101906020018083116119dd57829003601f168201915b505050505081526020018260100160003373ffffffffffffffffffffffffffffffffffffffff1673ffffffffffffffffffffffffffffffffffffffff16815260200190815260200160002060009054906101000a900460ff16151581526020018260110160003373ffffffffffffffffffffffffffffffffffffffff1673ffffffffffffffffffffffffffffffffffffffff16815260200190815260200160002060009054906101000a900460ff161515815250838581518110611aba57fe5b6020026020010181905250600184019350505b80806001019150506117ee565b50809250505090565b60008084815260200190815260200160002060020154804210611b3b576040517f08c379a0000000000000000000000000000000000000000000000000000000008152600401611b329061385e565b60405180910390fd5b8360008082815260200190815260200160002060010160009054906101000a900473ffffffffffffffffffffffffffffffffffffffff1673ffffffffffffffffffffffffffffffffffffffff163373ffffffffffffffffffffffffffffffffffffffff161415611be0576040517f08c379a0000000000000000000000000000000000000000000000000000000008152600401611bd7906138de565b60405180910390fd5b8460008082815260200190815260200160002060100160003373ffffffffffffffffffffffffffffffffffffffff1673ffffffffffffffffffffffffffffffffffffffff16815260200190815260200160002060009054906101000a900460ff1615611c81576040517f08c379a0000000000000000000000000000000000000000000000000000000008152600401611c78906138fe565b60405180910390fd5b856001548110611cc6576040517f08c379a0000000000000000000000000000000000000000000000000000000008152600401611cbd9061381e565b60405180910390fd5b604051806040016040528089815260200134815250600080898152602001908152602001600020600e0160003373ffffffffffffffffffffffffffffffffffffffff1673ffffffffffffffffffffffffffffffffffffffff1681526020019081526020016000206000820151816000015560208201518160010155905050600160008089815260200190815260200160002060100160003373ffffffffffffffffffffffffffffffffffffffff1673ffffffffffffffffffffffffffffffffffffffff16815260200190815260200160002060006101000a81548160ff02191690831515021790555085856000808a815260200190815260200160002060120160003373ffffffffffffffffffffffffffffffffffffffff1673ffffffffffffffffffffffffffffffffffffffff1681526020019081526020016000209190611e10929190612a71565b507f4b6c7d33d8244d6b35f1a8d35f6d19860fea50d46740345c395123753dd782fa33604051611e40919061375f565b60405180910390a15050505050505050565b600060015490506001806000828254019250508190555060016002600082825401925050819055506000834201905060008382019050604051806101e001604052808481526020013373ffffffffffffffffffffffffffffffffffffffff1681526020018381526020018281526020016000151581526020018a8a8080601f016020809104026020016040519081016040528093929190818152602001838380828437600081840152601f19601f82011690508083019250505050505050815260200188888080601f016020809104026020016040519081016040528093929190818152602001838380828437600081840152601f19601f820116905080830192505050505050508152602001600015158152602001600073ffffffffffffffffffffffffffffffffffffffff16815260200160008152602001600081526020016000604051908082528060200260200182016040528015611fc35781602001602082028038833980820191505090505b508152602001600073ffffffffffffffffffffffffffffffffffffffff16815260200160008152602001604051806020016040528060008152508152506000808581526020019081526020016000206000820151816000015560208201518160010160006101000a81548173ffffffffffffffffffffffffffffffffffffffff021916908373ffffffffffffffffffffffffffffffffffffffff160217905550604082015181600201556060820151816003015560808201518160040160006101000a81548160ff02191690831515021790555060a08201518160050190805190602001906120b3929190612b59565b5060c08201518160060190805190602001906120d0929190612b59565b5060e08201518160070160006101000a81548160ff0219169083151502179055506101008201518160070160016101000a81548173ffffffffffffffffffffffffffffffffffffffff021916908373ffffffffffffffffffffffffffffffffffffffff1602179055506101208201518160080155610140820151816009015561016082015181600a01908051906020019061216c929190612bd9565b5061018082015181600b0160006101000a81548173ffffffffffffffffffffffffffffffffffffffff021916908373ffffffffffffffffffffffffffffffffffffffff1602179055506101a082015181600c01556101c082015181600d0190805190602001906121dd929190612b59565b509050507f58c55e05f36335d586220e73c744c2bee55b978dc632f7bae51fd53b68b967de838a8a8a8a604051612218959493929190613a4e565b60405180910390a17f407f117d881ed92fbecf3649fb9568d7191c91329e6cef0cb5fc97916ef0cead8383604051612251929190613a97565b60405180910390a1505050505050505050565b8060015481106122a9576040517f08c379a00000000000000000000000000000000000000000000000000000000081526004016122a09061381e565b60405180910390fd5b81600080828152602001908152602001600020600b0160009054906101000a900473ffffffffffffffffffffffffffffffffffffffff1673ffffffffffffffffffffffffffffffffffffffff163373ffffffffffffffffffffffffffffffffffffffff161461234d576040517f08c379a00000000000000000000000000000000000000000000000000000000081526004016123449061389e565b60405180910390fd5b826001151560008083815260200190815260200160002060040160009054906101000a900460ff161515146123b7576040517f08c379a00000000000000000000000000000000000000000000000000000000081526004016123ae906137de565b60405180910390fd5b6000806000868152602001908152602001600020600c0154905060008160030290506000806000888152602001908152602001600020600f0160008060008a8152602001908152602001600020600b0160009054906101000a900473ffffffffffffffffffffffffffffffffffffffff1673ffffffffffffffffffffffffffffffffffffffff1673ffffffffffffffffffffffffffffffffffffffff16815260200190815260200160002081905550600160008088815260200190815260200160002060070160006101000a81548160ff02191690831515021790555060008087815260200190815260200160002060010160009054906101000a900473ffffffffffffffffffffffffffffffffffffffff1673ffffffffffffffffffffffffffffffffffffffff166108fc829081150290604051600060405180830381858888f1935050505015801561250f573d6000803e3d6000fd5b50600080878152602001908152602001600020600b0160009054906101000a900473ffffffffffffffffffffffffffffffffffffffff1673ffffffffffffffffffffffffffffffffffffffff166108fc839081150290604051600060405180830381858888f1935050505015801561258b573d6000803e3d6000fd5b507f6cbc019d5c94717baad0acdfa06c66c2a314a9f71c5486a1034adb0f07a57e65866040516125bb919061391e565b60405180910390a1505050505050565b816001151560008083815260200190815260200160002060040160009054906101000a900460ff16151514612635576040517f08c379a000000000000000000000000000000000000000000000000000000000815260040161262c906137de565b60405180910390fd5b6000806000858152602001908152602001600020600f0160008473ffffffffffffffffffffffffffffffffffffffff1673ffffffffffffffffffffffffffffffffffffffff1681526020019081526020016000205411156127c9576000806000858152602001908152602001600020600f0160008473ffffffffffffffffffffffffffffffffffffffff1673ffffffffffffffffffffffffffffffffffffffff1681526020019081526020016000205490506000806000868152602001908152602001600020600f0160008573ffffffffffffffffffffffffffffffffffffffff1673ffffffffffffffffffffffffffffffffffffffff1681526020019081526020016000208190555060008390508073ffffffffffffffffffffffffffffffffffffffff166108fc839081150290604051600060405180830381858888f1935050505015801561278a573d6000803e3d6000fd5b507fa01ed4ff1bfc084518bd795b4114da41c800c9ae1fc5e594cb505cb4c0c3fae18585846040516127be939291906139e5565b60405180910390a150505b505050565b60008060008581526020019081526020016000206009015482116127f557600090506129c7565b600080858152602001908152602001600020600901548211801561282e5750600080858152602001908152602001600020600801548211155b15612856578160008086815260200190815260200160002060090181905550600090506129c7565b600080858152602001908152602001600020600801548211156129c6576000808581526020019081526020016000206008015460008086815260200190815260200160002060090181905550816000808681526020019081526020016000206008018190555060008085815260200190815260200160002060090154600202600080868152602001908152602001600020600f01600080600088815260200190815260200160002060070160019054906101000a900473ffffffffffffffffffffffffffffffffffffffff1673ffffffffffffffffffffffffffffffffffffffff1673ffffffffffffffffffffffffffffffffffffffff168152602001908152602001600020600082825401925050819055508260008086815260200190815260200160002060070160016101000a81548173ffffffffffffffffffffffffffffffffffffffff021916908373ffffffffffffffffffffffffffffffffffffffff160217905550600190506129c7565b5b9392505050565b604051806101c0016040528060008152602001600073ffffffffffffffffffffffffffffffffffffffff168152602001600073ffffffffffffffffffffffffffffffffffffffff168152602001600081526020016000815260200160001515815260200160001515815260200160608152602001606081526020016000151581526020016000151581526020016000815260200160608152602001606081525090565b828054600181600116156101000203166002900490600052602060002090601f016020900481019282601f10612ab257803560ff1916838001178555612ae0565b82800160010185558215612ae0579182015b82811115612adf578235825591602001919060010190612ac4565b5b509050612aed9190612c63565b5090565b60405180610120016040528060008152602001600073ffffffffffffffffffffffffffffffffffffffff168152602001600081526020016000815260200160001515815260200160608152602001606081526020016000151581526020016000151581525090565b828054600181600116156101000203166002900490600052602060002090601f016020900481019282601f10612b9a57805160ff1916838001178555612bc8565b82800160010185558215612bc8579182015b82811115612bc7578251825591602001919060010190612bac565b5b509050612bd59190612c63565b5090565b828054828255906000526020600020908101928215612c52579160200282015b82811115612c515782518260006101000a81548173ffffffffffffffffffffffffffffffffffffffff021916908373ffffffffffffffffffffffffffffffffffffffff16021790555091602001919060010190612bf9565b5b509050612c5f9190612c88565b5090565b612c8591905b80821115612c81576000816000905550600101612c69565b5090565b90565b612cc891905b80821115612cc457600081816101000a81549073ffffffffffffffffffffffffffffffffffffffff021916905550600101612c8e565b5090565b90565b600081359050612cda81613c73565b92915050565b600081359050612cef81613c8a565b92915050565b60008083601f840112612d0757600080fd5b8235905067ffffffffffffffff811115612d2057600080fd5b602083019150836001820283011115612d3857600080fd5b9250929050565b600081359050612d4e81613ca1565b92915050565b600060208284031215612d6657600080fd5b6000612d7484828501612ccb565b91505092915050565b60008060008060608587031215612d9357600080fd5b6000612da187828801612ce0565b9450506020612db287828801612d3f565b935050604085013567ffffffffffffffff811115612dcf57600080fd5b612ddb87828801612cf5565b925092505092959194509250565b60008060008060008060808789031215612e0257600080fd5b600087013567ffffffffffffffff811115612e1c57600080fd5b612e2889828a01612cf5565b9650965050602087013567ffffffffffffffff811115612e4757600080fd5b612e5389828a01612cf5565b94509450506040612e6689828a01612d3f565b9250506060612e7789828a01612d3f565b9150509295509295509295565b600060208284031215612e9657600080fd5b6000612ea484828501612d3f565b91505092915050565b600080600060408486031215612ec257600080fd5b6000612ed086828701612d3f565b935050602084013567ffffffffffffffff811115612eed57600080fd5b612ef986828701612cf5565b92509250509250925092565b60008060008060608587031215612f1b57600080fd5b6000612f2987828801612d3f565b945050602085013567ffffffffffffffff811115612f4657600080fd5b612f5287828801612cf5565b93509350506040612f6587828801612d3f565b91505092959194509250565b6000612f7d8383613532565b905092915050565b6000612f9183836135fe565b905092915050565b612fa281613bd8565b82525050565b612fb181613b86565b82525050565b6000612fc282613af5565b612fcc8185613b30565b935083602082028501612fde85613ac0565b8060005b8581101561301a5784840389528151612ffb8582612f71565b945061300683613b16565b925060208a01995050600181019050612fe2565b50829750879550505050505092915050565b600061303782613b00565b6130418185613b41565b93508360208202850161305385613ad0565b8060005b8581101561308f57848403895281516130708582612f85565b945061307b83613b23565b925060208a01995050600181019050613057565b50829750879550505050505092915050565b6130aa81613b98565b82525050565b6130b981613bea565b82525050565b60006130cb8385613b63565b93506130d8838584613c20565b6130e183613c62565b840190509392505050565b60006130f782613b0b565b6131018185613b52565b9350613111818560208601613c2f565b61311a81613c62565b840191505092915050565b6000815460018116600081146131425760018114613168576131ac565b607f60028304166131538187613b63565b955060ff1983168652602086019350506131ac565b600282046131768187613b63565b955061318185613ae0565b60005b828110156131a357815481890152600182019150602081019050613184565b80880195505050505b505092915050565b60006131c1602c83613b63565b91507f596f752068617665206e6f74207061696420726967687420746865207365637560008301527f72697479206465706f73697400000000000000000000000000000000000000006020830152604082019050919050565b6000613227602183613b63565b91507f43616e742041736b20726566756e642c61756374696f6e206e6f7420656e646560008301527f64000000000000000000000000000000000000000000000000000000000000006020830152604082019050919050565b600061328d601583613b63565b91507f41756374696f6e20616c726561647920656e64656400000000000000000000006000830152602082019050919050565b60006132cd602183613b63565b91507f41756374696f6e2049642070726f766964656420646f65736e2774206578697360008301527f74000000000000000000000000000000000000000000000000000000000000006020830152604082019050919050565b6000613333602483613b63565b91507f4f6e6c792042656e65666963696172792063616e20656e64207468652061756360008301527f74696f6e000000000000000000000000000000000000000000000000000000006020830152604082019050919050565b6000613399600a83613b63565b91507f41667465722074696d65000000000000000000000000000000000000000000006000830152602082019050919050565b60006133d9603083613b63565b91507f4469646e277420706c6163652061206265742c6e6f20706f696e7420696e207260008301527f657665616c696e672074686520626964000000000000000000000000000000006020830152604082019050919050565b600061343f602083613b63565b91507f4f6e6c792057696e6e65722063616e20636f6e6669726d2070757263686173656000830152602082019050919050565b600061347f600b83613b63565b91507f6265666f72652074696d650000000000000000000000000000000000000000006000830152602082019050919050565b60006134bf601683613b63565b91507f42656e65666963696172792063616e6e6f7420626964000000000000000000006000830152602082019050919050565b60006134ff601f83613b63565b91507f42696464657220416c726561647920706c6163656420746865697220626964006000830152602082019050919050565b60006101208301600083015161354b6000860182613741565b50602083015161355e6020860182612fa8565b5060408301516135716040860182613741565b5060608301516135846060860182613741565b50608083015161359760808601826130a1565b5060a083015184820360a08601526135af82826130ec565b91505060c083015184820360c08601526135c982826130ec565b91505060e08301516135de60e08601826130a1565b506101008301516135f36101008601826130a1565b508091505092915050565b60006101c0830160008301516136176000860182613741565b50602083015161362a6020860182612fa8565b50604083015161363d6040860182612fa8565b5060608301516136506060860182613741565b5060808301516136636080860182613741565b5060a083015161367660a08601826130a1565b5060c083015161368960c08601826130a1565b5060e083015184820360e08601526136a182826130ec565b9150506101008301518482036101008601526136bd82826130ec565b9150506101208301516136d46101208601826130a1565b506101408301516136e96101408601826130a1565b506101608301516136fe610160860182613741565b5061018083015184820361018086015261371882826130ec565b9150506101a08301518482036101a086015261373482826130ec565b9150508091505092915050565b61374a81613bce565b82525050565b61375981613bce565b82525050565b60006020820190506137746000830184612f99565b92915050565b600060208201905081810360008301526137948184612fb7565b905092915050565b600060208201905081810360008301526137b6818461302c565b905092915050565b600060208201905081810360008301526137d7816131b4565b9050919050565b600060208201905081810360008301526137f78161321a565b9050919050565b6000602082019050818103600083015261381781613280565b9050919050565b60006020820190508181036000830152613837816132c0565b9050919050565b6000602082019050818103600083015261385781613326565b9050919050565b600060208201905081810360008301526138778161338c565b9050919050565b60006020820190508181036000830152613897816133cc565b9050919050565b600060208201905081810360008301526138b781613432565b9050919050565b600060208201905081810360008301526138d781613472565b9050919050565b600060208201905081810360008301526138f7816134b2565b9050919050565b60006020820190508181036000830152613917816134f2565b9050919050565b60006020820190506139336000830184613750565b92915050565b600060408201905061394e6000830185613750565b61395b6020830184612f99565b9392505050565b60006060820190506139776000830186613750565b6139846020830185612f99565b61399160408301846130b0565b949350505050565b60006080820190506139ae6000830187613750565b6139bb6020830186612f99565b81810360408301526139cd8185613125565b90506139dc6060830184613750565b95945050505050565b60006060820190506139fa6000830186613750565b613a076020830185612f99565b613a146040830184613750565b949350505050565b6000604082019050613a316000830186613750565b8181036020830152613a448184866130bf565b9050949350505050565b6000606082019050613a636000830188613750565b8181036020830152613a768186886130bf565b90508181036040830152613a8b8184866130bf565b90509695505050505050565b6000604082019050613aac6000830185613750565b613ab96020830184613750565b9392505050565b6000819050602082019050919050565b6000819050602082019050919050565b60008190508160005260206000209050919050565b600081519050919050565b600081519050919050565b600081519050919050565b6000602082019050919050565b6000602082019050919050565b600082825260208201905092915050565b600082825260208201905092915050565b600082825260208201905092915050565b600082825260208201905092915050565b6000613b7f82613bae565b9050919050565b6000613b9182613bae565b9050919050565b60008115159050919050565b6000819050919050565b600073ffffffffffffffffffffffffffffffffffffffff82169050919050565b6000819050919050565b6000613be382613bfc565b9050919050565b6000613bf582613bce565b9050919050565b6000613c0782613c0e565b9050919050565b6000613c1982613bae565b9050919050565b82818337600083830152505050565b60005b83811015613c4d578082015181840152602081019050613c32565b83811115613c5c576000848401525b50505050565b6000601f19601f8301169050919050565b613c7c81613b74565b8114613c8757600080fd5b50565b613c9381613ba4565b8114613c9e57600080fd5b50565b613caa81613bce565b8114613cb557600080fd5b5056fea365627a7a72315820e5a34bd2b2a7773d527826a19507ab2d59a96a7c70511c4583225b906036d0866c6578706572696d656e74616cf564736f6c63430005100040",
  "source": "/// SPDX-License-Identifier: MIT\npragma solidity >=0.4.22 <0.9.0;\npragma experimental ABIEncoderV2;\n\n/// @title The contract for buying and selling items on a market\ncontract VikreyAuction {\n    // Important Structures\n\n    ///@dev stores the blinded bid\n    ///@param bidHash stores the bid hashed using the public pub_key\n    ///@param deposit stores the deposited amount\n    struct Bid {\n        bytes32 bidHash;\n        uint256 deposit;\n    }\n\n    /// @dev structure for each Auction item\n    /// @param auction_id unique id for the items\n    /// @param beneficiary the seller\n    /// @param biddingEnd time the bidding end\n    /// @param revealEnd time when reveal period is over\n    /// @param ended shows the auction ended\n    /// @param item_name shows name of the item\n    /// @param item_description description of the item\n    /// @param bids stores the list of bids indexed by address\n    /// @param sold bool to denote whether the item is sold or not\n    /// @param highestBidder address of the highest bidder\n    /// @param highestBid value of the highest bid\n    /// @param pendingReturns the value to return to each bidder\n    /// @param bidded the boolean to track which addresses have bidded.\n    /// @param revealed the boolean to track which addresses have revealed.\n    /// @param secondHighestBidder the address of the second highest bidder\n    /// @param secondHighestBid the secondHighest Bid\n    /// @param revealedBidders the array to store bidders who reveal their bid to return their due after auction is over\n    /// @param pubkey stores the pubkeys of the bidders sent over with the bids\n    /// @param H secret string to sell item encrypted with buyer's public key\n    struct auctions {\n        uint256 auction_id;\n        address payable beneficiary;\n        uint256 biddingEnd;\n        uint256 revealEnd;\n        bool ended;\n        string item_name;\n        string item_description;\n        bool sold;\n        address payable highestBidder;\n        uint256 highestBid;\n        uint256 secondHighestBid;\n        address payable[] revealedBidders;\n        address payable winner;\n        uint256 winningBid;\n        string H;\n        //address payable secondHighestBidder;\n        mapping(address => Bid) bids;\n        // Allowed withdrawals of previous bids\n        mapping(address => uint256) pendingReturns;\n        mapping(address => bool) bidded;\n        mapping(address => bool) revealed;\n        mapping(address => string) pubkey;\n    }\n\n    /// @dev structure for each display active Auction Listings\n    /// @param auction_id unique id for the items\n    /// @param beneficiary address of the owner of item to be auctioned\n    /// @param biddingEnd time the bidding end\n    /// @param revealEnd time when reveal period is over\n    /// @param ended shows the auction ended\n    /// @param item_name shows name of the item\n    /// @param item_description description of the item\n    /// @param bidplaced bool to tell whether the person calling the function bidded or not\n    /// @param revealed bool to tell whether the person calling the revealed their bid or not\n    struct auction_active_listings {\n        uint256 auction_id;\n        address payable beneficiary;\n        uint256 biddingEnd;\n        uint256 revealEnd;\n        bool ended;\n        string item_name;\n        string item_description;\n        bool bidplaced;\n        bool revealed;\n    }\n\n    /// @dev structure for each display Auction Listings\n    /// @param auction_id unique id for the items\n    /// @param beneficiary address of the owner of item to be auctioned\n    /// @param winner address of the winner of the auction\n    /// @param biddingEnd time the bidding end\n    /// @param revealEnd time when reveal period is over\n    /// @param ended shows the auction ended\n    /// @param item_name shows name of the item\n    /// @param item_description description of the item\n    /// @param bidplaced bool to tell whether the person calling the function bidded or not\n    /// @param revealed bool to tell whether the person calling the revealed their bid or not\n    /// @param finalBid the final price at which the item was sold\n    /// @param pubkey public key of the winner\n    /// @param H secret string to sell item encrypted with buyer's public key\n    struct auction_all_listings {\n        uint256 auction_id;\n        address payable beneficiary;\n        address payable winner;\n        uint256 biddingEnd;\n        uint256 revealEnd;\n        bool ended;\n        bool sold;\n        string item_name;\n        string item_description;\n        bool bidplaced;\n        bool revealed;\n        uint256 finalBid;\n        string pubkey;\n        string H;\n    }\n\n    // Errors that describe failures.\n\n    /// The function has been called too early.\n    /// Try again at `time`.\n    //error TooEarly(uint time);\n    /// The function has been called too late.\n    /// It cannot be called after `time`.\n    //error TooLate(uint time);\n    /// The function auctionEnd has already been called.\n    //error AuctionEndAlreadyCalled();\n\n    /// EVENTS\n\n    /// @dev this event is for when auction item is for when item for auction is listed\n    /// @param Auction_id id of the auction\n    /// @param item_name  name of the item to be Auction\n    /// @param item_description  description of the item to be auctioned\n    event AuctionStarted(\n        uint256 Auction_id,\n        string item_name,\n        string item_description\n    );\n\n    /// @dev this event to annouce auction started\n    /// @param Auction_id is the id of the auction\n    /// @param highestBidder is the address of the highest Bidder\n    /// @param highestBid is the value of the winning bid\n    event AuctionEnded(\n        uint256 Auction_id,\n        address highestBidder,\n        uint256 highestBid\n    );\n\n    ///@dev when an item goes unsold at the end of the auction\n    ///@param auction_id is the id of the auction\n    event ItemUnsold(uint256 auction_id);\n\n    /// @dev this event to annouce bidding started\n    /// @param Auction_id is the id of the auction\n    /// @param bidding_end is the time when bidding period ends\n    event BiddingStarted(uint256 Auction_id, uint256 bidding_end);\n\n    /// @dev this event to annouce bidding period ended\n    /// @param Auction_id is the id of the auction\n    event BiddingPeriodEnded(uint256 Auction_id);\n\n    /// @dev announcement of a new\n    /// @param bidder address of the bidder\n    event BidMade(address bidder);\n\n    ///@dev announcement to start revealing bids\n    /// @param Auction_id id of the auction item\n    /// @param reveal_end is the time when revealing period ends\n    event RevealPeriodStarted(uint256 Auction_id, uint256 reveal_end);\n\n    ///@dev annouce to end revealing period\n    /// @param Auction_id id of the auction\n    event RevealPeriodEnded(uint256 Auction_id);\n\n    ///@dev announce winner\n    /// @param Auction_id is the id of the auction\n    /// @param winner is the address of the winner\n    event WinnerChosen(\n        uint256 Auction_id,\n        address winner,\n        string pubkey,\n        uint256 winning_bid\n    );\n\n    ///@dev bid revealed\n    ///@param Auction_id is the id of the auction\n    ///@param bidder is the address of the revealer\n    event BidRevealed(uint256 Auction_id, address bidder);\n\n    ///@dev bid revealed failed\n    ///@param Auction_id is the id of the auction\n    ///@param bidder is the address of the revealer\n    event BidRevealFailed(uint256 Auction_id, address bidder);\n\n    ///@dev event to notify Refunds of bids\n    ///@param auction_id is the id of the auction\n    ///@param bidder is the address of the revealer\n    ///@param bid_value  refers to whether the bid is succesfully revealed and refund done\n    event BidderRefunded(uint256 auction_id, address bidder, uint256 bid_value);\n\n    ///@dev event to notify Refunds of bids\n    ///@param auction_id is the id of the auction\n    ///@param bidder is the address of the revealer\n    ///@param balance  refers to whether the bid is succesfully revealed and refund done\n    event BalanceRefunded(uint256 auction_id, address bidder, uint256 balance);\n\n    ///@dev event to notify when the deposit is not enough\n    ///@param auction_id is the id of the auction\n    ///@param bidder is the bidder\n    event DepositNotEnough(uint256 auction_id, address bidder);\n\n    ///@dev to notify highest Bid has been modified\n    ///@param auction_id is the id of the auction\n    ///@param bidder is the bidder\n    ///@param bid_value refers to the bid\n    event NewHighestBid(uint256 auction_id, address bidder, uint256 bid_value);\n\n    ///@dev event to send the hashed Item\n    ///@param auction_id is the id of the auction\n    ///@param H is the hashed passwords\n    event encryptedKey(uint256 auction_id, string H);\n\n    ///@dev to confirm delivery\n    ///@param auction_id is the id of the auction\n    event deliveryComplete(uint256 auction_id);\n\n    /// @dev create a lists of all auctions\n    mapping(uint256 => auctions) private Auctions;\n\n    // variables for managing auctions\n    uint256 current_auction_id = 0;\n    uint256 activeauctions = 0;\n\n    //MODIFIERS\n\n    /// @notice Check whether a given condition is true\n    /// @param _condition condition statement to verify.\n    modifier condition(bool _condition) {\n        require(_condition);\n        _;\n    }\n\n    modifier onlyBefore(uint256 _time) {\n        // string memory str = \"After time\" + block.timestamp;\n        require(block.timestamp < _time, \"After time\");\n        _;\n    }\n    modifier onlyAfter(uint256 _time) {\n        require(block.timestamp > _time, \"before time\");\n        _;\n    }\n\n    modifier validBidder(uint256 auction_id) {\n        require(\n            msg.sender != Auctions[auction_id].beneficiary,\n            \"Beneficiary cannot bid\"\n        );\n        _;\n    }\n    modifier newBidder(uint256 auction_id) {\n        require(\n            !Auctions[auction_id].bidded[msg.sender],\n            \"Bidder Already placed their bid\"\n        );\n        _;\n    }\n\n    modifier alreadyBidder(uint256 auction_id) {\n        require(\n            Auctions[auction_id].bidded[msg.sender] == true,\n            \"Didn't place a bet,no point in revealing the bid\"\n        );\n        _;\n    }\n\n    modifier onlyBeneficiary(uint256 auction_id) {\n        require(\n            Auctions[auction_id].beneficiary == msg.sender,\n            \"Only Beneficiary can end the auction\"\n        );\n        _;\n    }\n    modifier auctionActive(uint256 auction_id) {\n        require(Auctions[auction_id].ended == false, \"Auction already ended\");\n        _;\n    }\n    modifier auctionEnded(uint256 auction_id) {\n        require(\n            Auctions[auction_id].ended == true,\n            \"Cant Ask refund,auction not ended\"\n        );\n        _;\n    }\n\n    //functions\n    modifier validAuctionId(uint256 auction_id) {\n        require(\n            auction_id < current_auction_id,\n            \"Auction Id provided doesn't exist\"\n        );\n        _;\n    }\n    modifier onlyWinner(uint256 auction_id) {\n        require(\n            msg.sender == Auctions[auction_id].winner,\n            \"Only Winner can confirm purchase\"\n        );\n        _;\n    }\n\n    /// @notice returns balance of account\n    /// @param account Address of the account.\n    function getAccountBalance(address account)\n        public\n        view\n        returns (uint256 accountBalance)\n    {\n        accountBalance = account.balance;\n    }\n\n    /// @dev function to list the auction of a new item\n    /// @param item_name name of the item\n    /// @param item_description is the description of the item\n    /// @param bidding_time how long the bidding will go\n    /// @param reveal_time how long the reveal will go\n    function auctionItem(\n        string calldata item_name,\n        string calldata item_description,\n        uint256 bidding_time,\n        uint256 reveal_time\n    ) external payable {\n        uint256 auction_id = current_auction_id;\n        current_auction_id += 1;\n        activeauctions += 1;\n        uint256 bidding_end = block.timestamp + bidding_time;\n        uint256 reveal_end = bidding_end + reveal_time;\n\n        Auctions[auction_id] = auctions(\n            auction_id,\n            msg.sender,\n            bidding_end,\n            reveal_end,\n            false,\n            item_name,\n            item_description,\n            false,\n            address(0),\n            0,\n            0,\n            new address payable[](0),\n            address(0),\n            0,\n            \"\"\n        );\n        emit AuctionStarted(auction_id, item_name, item_description);\n        emit BiddingStarted(auction_id, bidding_end);\n    }\n\n    // function to to get a list of all active auctions\n    /// @notice Get all the active auction listings items in the market\n    /// @return a list of active auction listings\n    function getactiveauctions()\n        external\n        view\n        returns (auction_active_listings[] memory)\n    {\n        uint256 currentIndex = 0;\n        auction_active_listings[]\n            memory active_auctions = new auction_active_listings[](\n                activeauctions\n            );\n        for (uint256 i = 0; i < current_auction_id; i++) {\n            if (Auctions[i].ended == false) {\n                auctions storage currentauction = Auctions[i];\n                active_auctions[currentIndex] = auction_active_listings(\n                    currentauction.auction_id,\n                    currentauction.beneficiary,\n                    currentauction.biddingEnd,\n                    currentauction.revealEnd,\n                    currentauction.ended,\n                    currentauction.item_name,\n                    currentauction.item_description,\n                    currentauction.bidded[msg.sender],\n                    currentauction.revealed[msg.sender]\n                );\n                currentIndex += 1;\n            }\n        }\n        return active_auctions;\n    }\n\n    // function to to get a list of all auctions\n    /// @notice Get all the auction listings items in the market\n    /// @return a list of all auction listings\n    function getallauctions()\n        external\n        view\n        returns (auction_all_listings[] memory)\n    {\n        auction_all_listings[] memory all_auctions = new auction_all_listings[](\n            current_auction_id\n        );\n        for (uint256 i = 0; i < current_auction_id; i++) {\n            auctions storage currentauction = Auctions[i];\n            string memory pubkey = \"\";\n            if (currentauction.highestBidder != address(0))\n                pubkey = currentauction.pubkey[currentauction.highestBidder];\n            all_auctions[i] = auction_all_listings(\n                currentauction.auction_id,\n                currentauction.beneficiary,\n                currentauction.highestBidder,\n                currentauction.biddingEnd,\n                currentauction.revealEnd,\n                currentauction.ended,\n                currentauction.sold,\n                currentauction.item_name,\n                currentauction.item_description,\n                currentauction.bidded[msg.sender],\n                currentauction.revealed[msg.sender],\n                currentauction.winningBid,\n                pubkey,\n                currentauction.H\n            );\n        }\n        return all_auctions;\n    }\n\n    // function that can be used to bid in an auction\n    /// @param blindedBid is the hashed version of bid\n    /// @param auction_id is the id of the auction\n    ///@param pubkey is the public key of the bidder\n    function bid(\n        bytes32 blindedBid,\n        uint256 auction_id,\n        string calldata pubkey\n    )\n        external\n        payable\n        onlyBefore(Auctions[auction_id].biddingEnd)\n        validBidder(auction_id)\n        newBidder(auction_id)\n        validAuctionId(auction_id)\n    {\n        Auctions[auction_id].bids[msg.sender] = Bid(blindedBid, msg.value);\n        Auctions[auction_id].bidded[msg.sender] = true;\n        Auctions[auction_id].pubkey[msg.sender] = pubkey;\n        emit BidMade(msg.sender);\n    }\n\n    /// @dev Reveal your blinded bids. You will get a refund for all\n    /// @dev correctly blinded invalid bids and for all bids except for\n    /// @dev the totally highest.\n    /// @param value value of the bid\n    /// @param secret again not sure\n    /// @param auction_id id of the auction\n    function reveal(\n        uint256 value,\n        //bool fake,\n        string calldata secret,\n        uint256 auction_id\n    )\n        external\n        payable\n        onlyAfter(Auctions[auction_id].biddingEnd)\n        onlyBefore(Auctions[auction_id].revealEnd)\n        alreadyBidder(auction_id)\n        validAuctionId(auction_id)\n    {\n        uint256 refund = 0;\n        bool success = false;\n        //get the bid placed by the user\n        Bid storage bidToCheck = Auctions[auction_id].bids[msg.sender];\n\n        // improper revealing\n        if (bidToCheck.bidHash != keccak256(abi.encode(value, secret))) {\n            // Bid was not actually revealed.\n            // Do not refund deposit.\n            emit BidRevealFailed(auction_id, msg.sender);\n        } else {\n            // Make it impossible for the sender to re-claim\n            bidToCheck.bidHash = bytes32(0);\n\n            Auctions[auction_id].revealedBidders.push(msg.sender);\n            Auctions[auction_id].revealed[msg.sender] = true;\n            refund += bidToCheck.deposit;\n            if (bidToCheck.deposit >= 2 * value) {\n                if (placeBid(auction_id, msg.sender, value))\n                    refund -= 2 * value;\n                emit BidRevealed(auction_id, msg.sender);\n            } else emit DepositNotEnough(auction_id, msg.sender);\n            // the same deposit.\n            emit BalanceRefunded(auction_id, msg.sender, refund);\n            msg.sender.transfer(refund);\n        }\n    }\n\n    // This is an \"internal\" function which means that it\n    // can only be called from the contract itself (or from\n    // derived contracts).\n    ///@dev the function is used accept bids by the owner\n    ///@param auction_id is the id of the auction\n    ///@param bidder is the address of the bidder\n    ///@param value is the value of the bid\n    function placeBid(\n        uint256 auction_id,\n        address payable bidder,\n        uint256 value\n    ) internal returns (bool success) {\n        if (value <= Auctions[auction_id].secondHighestBid) {\n            return false;\n        } else if (\n            value > Auctions[auction_id].secondHighestBid &&\n            value <= Auctions[auction_id].highestBid\n        ) {\n            /*if (Auctions[auction_id].secondHighestBidder != address(0)) {\n                Auctions[auction_id].pendingReturns[\n                    Auctions[auction_id].secondHighestBidder\n                ] += Auctions[auction_id].secondHighestBid;\n            }*/\n            Auctions[auction_id].secondHighestBid = value;\n            return false;\n            //  Auctions[auction_id].secondHighestBidder = bidder;\n        } else if (value > Auctions[auction_id].highestBid) {\n            // Refund the previously highest bidder.\n            /*if (Auctions[auction_id].secondHighestBidder != address(0)) {\n                Auctions[auction_id].pendingReturns[\n                    Auctions[auction_id].secondHighestBidder\n                ] += Auctions[auction_id].secondHighestBid;\n            }\n            Auctions[auction_id].secondHighestBidder = Auctions[auction_id]\n                .highestBidder;\n            Auctions[auction_id].secondHighestBid = Auctions[auction_id]\n                .highestBid;\n            Auctions[auction_id].highestBid = value;\n            Auctions[auction_id].highestBidder = bidder;*/\n            Auctions[auction_id].secondHighestBid = Auctions[auction_id]\n                .highestBid;\n            Auctions[auction_id].highestBid = value;\n            Auctions[auction_id].pendingReturns[\n                Auctions[auction_id].highestBidder\n            ] += 2 * Auctions[auction_id].secondHighestBid;\n\n            Auctions[auction_id].highestBidder = bidder;\n            return true;\n\n            //Auctions[auction_id].pendAuctionsingReturns[]\n        }\n\n        //return true;\n    }\n\n    ///@dev function to withdraw overbid/non-winning bids\n    ///@param auction_id is the id of the Auction\n    ///@param bidder is the address of the bidder whose payment is pending\n    function withdraw(uint256 auction_id, address payable bidder)\n        internal\n        auctionEnded(auction_id)\n    {\n        //emit BidderRefunded(auction_id,msg.sender, Auctions[auction_id].pendingReturns[msg.sender]);\n        if (Auctions[auction_id].pendingReturns[bidder] > 0) {\n            uint256 value = Auctions[auction_id].pendingReturns[bidder];\n            Auctions[auction_id].pendingReturns[bidder] = 0;\n            address payable payable_sender = bidder;\n            payable_sender.transfer(value);\n            emit BidderRefunded(auction_id, bidder, value);\n        }\n    }\n\n    ///@dev End the auction and send the highest bid to the beneficiary\n    ///@param auction_id is the id of the auction\n    ///@notice only beneficiary of the auction can call the function\n    function auctionEnd(uint256 auction_id)\n        external\n        onlyAfter(Auctions[auction_id].revealEnd)\n        onlyBeneficiary(auction_id)\n        auctionActive(auction_id)\n        validAuctionId(auction_id)\n    {\n        //if (Auctions[auction_id].ended) revert AuctionEndAlreadyCalled();\n        uint256 final_price = 0;\n        if (\n            Auctions[auction_id].highestBidder == address(0) &&\n            Auctions[auction_id].highestBid == 0\n        ) {\n            emit ItemUnsold(auction_id);\n            emit AuctionEnded(auction_id, address(0), 0);\n            Auctions[auction_id].ended = true;\n            activeauctions -= 1;\n        } else if (\n            // Auctions[auction_id].secondHighestBidder == address(0) &&\n            Auctions[auction_id].secondHighestBid == 0\n        ) {\n            emit AuctionEnded(\n                auction_id,\n                Auctions[auction_id].highestBidder,\n                Auctions[auction_id].highestBid\n            );\n            Auctions[auction_id].winner = Auctions[auction_id].highestBidder;\n            Auctions[auction_id].winningBid = Auctions[auction_id].highestBid;\n            Auctions[auction_id].ended = true;\n            activeauctions -= 1;\n            //Auctions[auction_id].beneficiary.transfer(\n            //    Auctions[auction_id].highestBid\n            //);\n            emit WinnerChosen(\n                auction_id,\n                Auctions[auction_id].highestBidder,\n                Auctions[auction_id].pubkey[Auctions[auction_id].winner],\n                Auctions[auction_id].winningBid\n            );\n        } else {\n            emit AuctionEnded(\n                auction_id,\n                Auctions[auction_id].highestBidder,\n                Auctions[auction_id].secondHighestBid\n            );\n            Auctions[auction_id].winner = Auctions[auction_id].highestBidder;\n            Auctions[auction_id].winningBid = Auctions[auction_id]\n                .secondHighestBid;\n            Auctions[auction_id].ended = true;\n            activeauctions -= 1;\n            uint256 difference = 2 *\n                (Auctions[auction_id].highestBid -\n                    Auctions[auction_id].secondHighestBid);\n            Auctions[auction_id].pendingReturns[\n                Auctions[auction_id].highestBidder\n            ] += difference;\n            //highest.transfer(Auctions[auction_id].highestBid);\n            for (\n                uint256 i = 0;\n                i < Auctions[auction_id].revealedBidders.length;\n                ++i\n            ) {\n                withdraw(auction_id, Auctions[auction_id].revealedBidders[i]);\n            }\n            // Auctions[auction_id].beneficiary.transfer(\n            //  Auctions[auction_id].secondHighestBid\n            //  );\n            emit WinnerChosen(\n                auction_id,\n                Auctions[auction_id].winner,\n                Auctions[auction_id].pubkey[Auctions[auction_id].winner],\n                Auctions[auction_id].winningBid\n            );\n        }\n    }\n\n    /// @dev Sale of item from seller's side\n    /// @dev Transaction from the seller\n    /// @param auction_id is the id of the item being sold_\n    /// @param H is the unique string for the item\n    /// @dev assume the seller is fair,will provide the right item\n    function sellItem(uint256 auction_id, string calldata H)\n        external\n        payable\n        validAuctionId(auction_id)\n        auctionEnded(auction_id)\n        onlyBeneficiary(auction_id)\n    {\n        require(\n            msg.value == 2 * Auctions[auction_id].winningBid,\n            \"You have not paid right the security deposit\"\n        );\n        Auctions[auction_id].H = H;\n\n        emit encryptedKey(auction_id, H);\n        //  Auctions[auction_id].beneficiary.transfer(Auctions[auction_id].winningBid);\n    }\n\n    /// @dev Confirmation of delivery\n    /// @dev Transaction from the winner\n    /// @param auction_id is the id of the item being sold_\n    function confirmDelivery(uint256 auction_id)\n        external\n        payable\n        validAuctionId(auction_id)\n        onlyWinner(auction_id)\n        auctionEnded(auction_id)\n    {\n        /// Refund the seller\n        uint256 amt = Auctions[auction_id].winningBid;\n        uint256 prof = 3 * amt;\n        // emit deliveryComplete(auction_id);\n        Auctions[auction_id].pendingReturns[Auctions[auction_id].winner] = 0;\n        Auctions[auction_id].sold = true;\n\n        Auctions[auction_id].beneficiary.transfer(prof);\n        Auctions[auction_id].winner.transfer(amt);\n\n        emit deliveryComplete(auction_id);\n    }\n}\n",
  "sourcePath": "/home/rutvij/programming/Assignments/DTBC/Block-Chain-Collab/Assignments/2/contracts/VikreyAuction.sol",
  "compiler": {
    "name": "solc",
    "version": "0.5.16+commit.9c3226ce.Emscripten.clang"
  },
  "schemaVersion": "3.4.3",
  "updatedAt": "2021-10-15T14:49:38.560Z",
  "networkType": "ethereum",
  "devdoc": {
    "methods": {
      "auctionEnd(uint256)": {
        "details": "End the auction and send the highest bid to the beneficiary",
        "params": {
          "auction_id": "is the id of the auction"
        }
      },
      "auctionItem(string,string,uint256,uint256)": {
        "details": "function to list the auction of a new item",
        "params": {
          "bidding_time": "how long the bidding will go",
          "item_description": "is the description of the item",
          "item_name": "name of the item",
          "reveal_time": "how long the reveal will go"
        }
      },
      "bid(bytes32,uint256,string)": {
        "params": {
          "auction_id": "is the id of the auction",
          "blindedBid": "is the hashed version of bid",
          "pubkey": "is the public key of the bidder"
        }
      },
      "confirmDelivery(uint256)": {
        "details": "Confirmation of deliveryTransaction from the winner",
        "params": {
          "auction_id": "is the id of the item being sold_"
        }
      },
      "getAccountBalance(address)": {
        "params": {
          "account": "Address of the account."
        }
      },
      "getactiveauctions()": {
        "return": "a list of active auction listings"
      },
      "getallauctions()": {
        "return": "a list of all auction listings"
      },
      "reveal(uint256,string,uint256)": {
        "details": "Reveal your blinded bids. You will get a refund for allcorrectly blinded invalid bids and for all bids except forthe totally highest.",
        "params": {
          "auction_id": "id of the auction",
          "secret": "again not sure",
          "value": "value of the bid"
        }
      },
      "sellItem(uint256,string)": {
        "details": "Sale of item from seller's sideTransaction from the sellerassume the seller is fair,will provide the right item",
        "params": {
          "H": "is the unique string for the item",
          "auction_id": "is the id of the item being sold_"
        }
      }
    },
    "title": "The contract for buying and selling items on a market"
  },
  "userdoc": {
    "methods": {
      "auctionEnd(uint256)": {
        "notice": "only beneficiary of the auction can call the function"
      },
      "getAccountBalance(address)": {
        "notice": "returns balance of account"
      },
      "getactiveauctions()": {
        "notice": "Get all the active auction listings items in the market"
      },
      "getallauctions()": {
        "notice": "Get all the auction listings items in the market"
      }
    }
  }
}