{
  "contractName": "VikreyAuction2",
  "abi": [
    {
      "inputs": [
        {
          "internalType": "uint256",
          "name": "_listing_id",
          "type": "uint256"
        },
        {
          "internalType": "uint256",
          "name": "bidding_time",
          "type": "uint256"
        },
        {
          "internalType": "uint256",
          "name": "reveal_time",
          "type": "uint256"
        },
        {
          "internalType": "address payable",
          "name": "_beneficiary",
          "type": "address"
        }
      ],
      "payable": false,
      "stateMutability": "nonpayable",
      "type": "constructor"
    },
    {
      "anonymous": false,
      "inputs": [
        {
          "indexed": false,
          "internalType": "address",
          "name": "winner",
          "type": "address"
        },
        {
          "indexed": false,
          "internalType": "uint256",
          "name": "secondHighestBid",
          "type": "uint256"
        }
      ],
      "name": "AuctionEnded",
      "type": "event"
    },
    {
      "anonymous": false,
      "inputs": [
        {
          "indexed": false,
          "internalType": "address",
          "name": "bidder",
          "type": "address"
        },
        {
          "indexed": false,
          "internalType": "uint256",
          "name": "deposit",
          "type": "uint256"
        }
      ],
      "name": "BidForItem",
      "type": "event"
    },
    {
      "anonymous": false,
      "inputs": [
        {
          "indexed": false,
          "internalType": "address",
          "name": "bidder",
          "type": "address"
        },
        {
          "indexed": false,
          "internalType": "bytes32",
          "name": "bidHash",
          "type": "bytes32"
        }
      ],
      "name": "BidRevealFailed",
      "type": "event"
    },
    {
      "anonymous": false,
      "inputs": [
        {
          "indexed": false,
          "internalType": "address",
          "name": "bidder",
          "type": "address"
        },
        {
          "indexed": false,
          "internalType": "uint256",
          "name": "value",
          "type": "uint256"
        }
      ],
      "name": "BidderWithdrawn",
      "type": "event"
    },
    {
      "anonymous": false,
      "inputs": [
        {
          "indexed": false,
          "internalType": "address",
          "name": "bidder",
          "type": "address"
        },
        {
          "indexed": false,
          "internalType": "uint256",
          "name": "value",
          "type": "uint256"
        }
      ],
      "name": "InvalidBidRevealed",
      "type": "event"
    },
    {
      "anonymous": false,
      "inputs": [
        {
          "indexed": false,
          "internalType": "address",
          "name": "bidder",
          "type": "address"
        },
        {
          "indexed": false,
          "internalType": "uint256",
          "name": "value",
          "type": "uint256"
        }
      ],
      "name": "ValidBidRevealed",
      "type": "event"
    },
    {
      "constant": true,
      "inputs": [],
      "name": "beneficiary",
      "outputs": [
        {
          "internalType": "address payable",
          "name": "",
          "type": "address"
        }
      ],
      "payable": false,
      "stateMutability": "view",
      "type": "function"
    },
    {
      "constant": true,
      "inputs": [
        {
          "internalType": "address",
          "name": "",
          "type": "address"
        }
      ],
      "name": "bidAlready",
      "outputs": [
        {
          "internalType": "bool",
          "name": "",
          "type": "bool"
        }
      ],
      "payable": false,
      "stateMutability": "view",
      "type": "function"
    },
    {
      "constant": true,
      "inputs": [],
      "name": "biddingEnd",
      "outputs": [
        {
          "internalType": "uint256",
          "name": "",
          "type": "uint256"
        }
      ],
      "payable": false,
      "stateMutability": "view",
      "type": "function"
    },
    {
      "constant": true,
      "inputs": [
        {
          "internalType": "address",
          "name": "",
          "type": "address"
        }
      ],
      "name": "bids",
      "outputs": [
        {
          "internalType": "bytes32",
          "name": "bidHash",
          "type": "bytes32"
        },
        {
          "internalType": "uint256",
          "name": "deposit",
          "type": "uint256"
        }
      ],
      "payable": false,
      "stateMutability": "view",
      "type": "function"
    },
    {
      "constant": true,
      "inputs": [],
      "name": "ended",
      "outputs": [
        {
          "internalType": "bool",
          "name": "",
          "type": "bool"
        }
      ],
      "payable": false,
      "stateMutability": "view",
      "type": "function"
    },
    {
      "constant": true,
      "inputs": [],
      "name": "highestBid",
      "outputs": [
        {
          "internalType": "uint256",
          "name": "",
          "type": "uint256"
        }
      ],
      "payable": false,
      "stateMutability": "view",
      "type": "function"
    },
    {
      "constant": true,
      "inputs": [],
      "name": "revealEnd",
      "outputs": [
        {
          "internalType": "uint256",
          "name": "",
          "type": "uint256"
        }
      ],
      "payable": false,
      "stateMutability": "view",
      "type": "function"
    },
    {
      "constant": true,
      "inputs": [],
      "name": "secondHighestBid",
      "outputs": [
        {
          "internalType": "uint256",
          "name": "",
          "type": "uint256"
        }
      ],
      "payable": false,
      "stateMutability": "view",
      "type": "function"
    },
    {
      "constant": true,
      "inputs": [],
      "name": "winner",
      "outputs": [
        {
          "internalType": "address payable",
          "name": "",
          "type": "address"
        }
      ],
      "payable": false,
      "stateMutability": "view",
      "type": "function"
    },
    {
      "constant": false,
      "inputs": [
        {
          "internalType": "bytes32",
          "name": "bid_hash",
          "type": "bytes32"
        }
      ],
      "name": "bid",
      "outputs": [],
      "payable": true,
      "stateMutability": "payable",
      "type": "function"
    },
    {
      "constant": true,
      "inputs": [
        {
          "internalType": "uint256",
          "name": "value",
          "type": "uint256"
        },
        {
          "internalType": "string",
          "name": "secret",
          "type": "string"
        }
      ],
      "name": "showHash",
      "outputs": [
        {
          "internalType": "bytes32",
          "name": "H",
          "type": "bytes32"
        }
      ],
      "payable": false,
      "stateMutability": "pure",
      "type": "function"
    },
    {
      "constant": true,
      "inputs": [
        {
          "internalType": "uint256",
          "name": "value",
          "type": "uint256"
        },
        {
          "internalType": "string",
          "name": "secret",
          "type": "string"
        },
        {
          "internalType": "bytes32",
          "name": "H",
          "type": "bytes32"
        }
      ],
      "name": "checkHash",
      "outputs": [],
      "payable": false,
      "stateMutability": "pure",
      "type": "function"
    },
    {
      "constant": false,
      "inputs": [
        {
          "internalType": "uint256",
          "name": "value",
          "type": "uint256"
        },
        {
          "internalType": "string",
          "name": "secret",
          "type": "string"
        }
      ],
      "name": "reveal",
      "outputs": [],
      "payable": false,
      "stateMutability": "nonpayable",
      "type": "function"
    },
    {
      "constant": false,
      "inputs": [],
      "name": "withdraw",
      "outputs": [],
      "payable": false,
      "stateMutability": "nonpayable",
      "type": "function"
    },
    {
      "constant": false,
      "inputs": [],
      "name": "endAuction",
      "outputs": [],
      "payable": false,
      "stateMutability": "nonpayable",
      "type": "function"
    }
  ],
  "bytecode": "0x60806040523480156200001157600080fd5b5060405162001a3f38038062001a3f8339818101604052620000379190810190620000ca565b836002819055508242016003819055508160035401600481905550806000806101000a81548173ffffffffffffffffffffffffffffffffffffffff021916908373ffffffffffffffffffffffffffffffffffffffff16021790555050505050620001a8565b600081519050620000ad8162000174565b92915050565b600081519050620000c4816200018e565b92915050565b60008060008060808587031215620000e157600080fd5b6000620000f187828801620000b3565b94505060206200010487828801620000b3565b93505060406200011787828801620000b3565b92505060606200012a878288016200009c565b91505092959194509250565b600062000143826200014a565b9050919050565b600073ffffffffffffffffffffffffffffffffffffffff82169050919050565b6000819050919050565b6200017f8162000136565b81146200018b57600080fd5b50565b62000199816200016a565b8114620001a557600080fd5b50565b61188780620001b86000396000f3fe6080604052600436106100e85760003560e01c8063957bb1e01161008a578063dfbf53ae11610059578063dfbf53ae146102c6578063f08e1436146102f1578063f7d276d11461032e578063fe67a54b14610357576100e8565b8063957bb1e014610229578063a6e6647714610245578063acb902f614610270578063d57bde791461029b576100e8565b806338af3eed116100c657806338af3eed1461017e5780633ccfd60b146101a9578063423b217f146101c057806362ea82db146101eb576100e8565b806312fa6feb146100ed578063194712bb146101185780632fa4548b14610155575b600080fd5b3480156100f957600080fd5b5061010261036e565b60405161010f91906114fe565b60405180910390f35b34801561012457600080fd5b5061013f600480360361013a9190810190611122565b610381565b60405161014c9190611519565b60405180910390f35b34801561016157600080fd5b5061017c60048036036101779190810190611122565b6103b4565b005b34801561018a57600080fd5b506101936107dc565b6040516101a09190611491565b60405180910390f35b3480156101b557600080fd5b506101be610801565b005b3480156101cc57600080fd5b506101d561099b565b6040516101e2919061163d565b60405180910390f35b3480156101f757600080fd5b50610212600480360361020d91908101906110d0565b6109a1565b604051610220929190611534565b60405180910390f35b610243600480360361023e91908101906110f9565b6109c5565b005b34801561025157600080fd5b5061025a610c27565b604051610267919061163d565b60405180910390f35b34801561027c57600080fd5b50610285610c2d565b604051610292919061163d565b60405180910390f35b3480156102a757600080fd5b506102b0610c33565b6040516102bd919061163d565b60405180910390f35b3480156102d257600080fd5b506102db610c39565b6040516102e89190611491565b60405180910390f35b3480156102fd57600080fd5b50610318600480360361031391908101906110d0565b610c5f565b60405161032591906114fe565b60405180910390f35b34801561033a57600080fd5b5061035560048036036103509190810190611176565b610c7f565b005b34801561036357600080fd5b5061036c610cee565b005b600760009054906101000a900460ff1681565b60008282604051602001610396929190611658565b60405160208183030381529060405280519060200120905092915050565b6003548042116103f9576040517f08c379a00000000000000000000000000000000000000000000000000000000081526004016103f0906115bd565b60405180910390fd5b60045480421061043e576040517f08c379a0000000000000000000000000000000000000000000000000000000008152600401610435906115dd565b60405180910390fd5b600960003373ffffffffffffffffffffffffffffffffffffffff1673ffffffffffffffffffffffffffffffffffffffff16815260200190815260200160002060009054906101000a900460ff166104ca576040517f08c379a00000000000000000000000000000000000000000000000000000000081526004016104c19061157d565b60405180910390fd5b6104d5338585610e68565b1561075a577f4a36ee3bc80f133b4da427fa41d6b27aa4abd704cf52587772a1be9db04cb116338560405161050b9291906114d5565b60405180910390a1600033905084600860003373ffffffffffffffffffffffffffffffffffffffff1673ffffffffffffffffffffffffffffffffffffffff16815260200190815260200160002060010154106106915761056b8186610ef1565b15610602578073ffffffffffffffffffffffffffffffffffffffff166108fc600654600860003373ffffffffffffffffffffffffffffffffffffffff1673ffffffffffffffffffffffffffffffffffffffff16815260200190815260200160002060010154039081150290604051600060405180830381858888f193505050501580156105fc573d6000803e3d6000fd5b5061068c565b8073ffffffffffffffffffffffffffffffffffffffff166108fc600860003373ffffffffffffffffffffffffffffffffffffffff1673ffffffffffffffffffffffffffffffffffffffff168152602001908152602001600020600101549081150290604051600060405180830381858888f1935050505015801561068a573d6000803e3d6000fd5b505b610754565b7f205bd8046fca7345fba3d74f05e743a4e118cee42857cd7de99f5b743078071c33866040516106c29291906114d5565b60405180910390a18073ffffffffffffffffffffffffffffffffffffffff166108fc600860003373ffffffffffffffffffffffffffffffffffffffff1673ffffffffffffffffffffffffffffffffffffffff168152602001908152602001600020600101549081150290604051600060405180830381858888f19350505050158015610752573d6000803e3d6000fd5b505b506107d6565b7fddb6770740716608b5da9c55dddfddd09404a556e4c13632881ec2571b6cb4b033600860003373ffffffffffffffffffffffffffffffffffffffff1673ffffffffffffffffffffffffffffffffffffffff168152602001908152602001600020600001546040516107cd9291906114ac565b60405180910390a15b50505050565b6000809054906101000a900473ffffffffffffffffffffffffffffffffffffffff1681565b7fe973d061cea1da07d390d324e85053969565b89e4e3b1487bef9461d022a9e4e33600a60003373ffffffffffffffffffffffffffffffffffffffff1673ffffffffffffffffffffffffffffffffffffffff168152602001908152602001600020546040516108719291906114d5565b60405180910390a16000600a60003373ffffffffffffffffffffffffffffffffffffffff1673ffffffffffffffffffffffffffffffffffffffff168152602001908152602001600020541115610999576000600a60003373ffffffffffffffffffffffffffffffffffffffff1673ffffffffffffffffffffffffffffffffffffffff1681526020019081526020016000205490506000600a60003373ffffffffffffffffffffffffffffffffffffffff1673ffffffffffffffffffffffffffffffffffffffff1681526020019081526020016000208190555060003390508073ffffffffffffffffffffffffffffffffffffffff166108fc839081150290604051600060405180830381858888f19350505050158015610995573d6000803e3d6000fd5b5050505b565b60035481565b60086020528060005260406000206000915090508060000154908060010154905082565b600354804210610a0a576040517f08c379a0000000000000000000000000000000000000000000000000000000008152600401610a01906115dd565b60405180910390fd5b600960003373ffffffffffffffffffffffffffffffffffffffff1673ffffffffffffffffffffffffffffffffffffffff16815260200190815260200160002060009054906101000a900460ff1615610a97576040517f08c379a0000000000000000000000000000000000000000000000000000000008152600401610a8e9061161d565b60405180910390fd5b6000809054906101000a900473ffffffffffffffffffffffffffffffffffffffff1673ffffffffffffffffffffffffffffffffffffffff163373ffffffffffffffffffffffffffffffffffffffff161415610b27576040517f08c379a0000000000000000000000000000000000000000000000000000000008152600401610b1e906115fd565b60405180910390fd5b604051806040016040528083815260200134815250600860003373ffffffffffffffffffffffffffffffffffffffff1673ffffffffffffffffffffffffffffffffffffffff16815260200190815260200160002060008201518160000155602082015181600101559050506001600960003373ffffffffffffffffffffffffffffffffffffffff1673ffffffffffffffffffffffffffffffffffffffff16815260200190815260200160002060006101000a81548160ff0219169083151502179055507fc6e8a93d591909fcc03a2165cacf7275424ee4df6a31c153c22313bfeaed82b73334604051610c1b9291906114d5565b60405180910390a15050565b60045481565b60065481565b60055481565b600160009054906101000a900473ffffffffffffffffffffffffffffffffffffffff1681565b60096020528060005260406000206000915054906101000a900460ff1681565b808383604051602001610c93929190611469565b6040516020818303038152906040528051906020012014610ce9576040517f08c379a0000000000000000000000000000000000000000000000000000000008152600401610ce09061155d565b60405180910390fd5b505050565b600454804211610d33576040517f08c379a0000000000000000000000000000000000000000000000000000000008152600401610d2a906115bd565b60405180910390fd5b600760009054906101000a900460ff1615610d83576040517f08c379a0000000000000000000000000000000000000000000000000000000008152600401610d7a9061159d565b60405180910390fd5b7fdaec4582d5d9595688c8c98545fdd1c696d41c6aeaeb636737e84ed2f5c00eda600160009054906101000a900473ffffffffffffffffffffffffffffffffffffffff16600654604051610dd89291906114d5565b60405180910390a16001600760006101000a81548160ff0219169083151502179055506000809054906101000a900473ffffffffffffffffffffffffffffffffffffffff1673ffffffffffffffffffffffffffffffffffffffff166108fc6006549081150290604051600060405180830381858888f19350505050158015610e64573d6000803e3d6000fd5b5050565b60008282604051602001610e7d929190611658565b60405160208183030381529060405280519060200120600860008673ffffffffffffffffffffffffffffffffffffffff1673ffffffffffffffffffffffffffffffffffffffff168152602001908152602001600020600001541415610ee55760019050610eea565b600090505b9392505050565b60006005548211610f055760009050611037565b600073ffffffffffffffffffffffffffffffffffffffff16600160009054906101000a900473ffffffffffffffffffffffffffffffffffffffff1673ffffffffffffffffffffffffffffffffffffffff161415610f6f578160058190555081600681905550610ff1565b600654600a6000600160009054906101000a900473ffffffffffffffffffffffffffffffffffffffff1673ffffffffffffffffffffffffffffffffffffffff1673ffffffffffffffffffffffffffffffffffffffff16815260200190815260200160002060008282540192505081905550600554600681905550816005819055505b82600160006101000a81548173ffffffffffffffffffffffffffffffffffffffff021916908373ffffffffffffffffffffffffffffffffffffffff160217905550600190505b92915050565b60008135905061104c816117ff565b92915050565b60008135905061106181611816565b92915050565b600082601f83011261107857600080fd5b813561108b611086826116b5565b611688565b915080825260208301602083018583830111156110a757600080fd5b6110b28382846117a2565b50505092915050565b6000813590506110ca8161182d565b92915050565b6000602082840312156110e257600080fd5b60006110f08482850161103d565b91505092915050565b60006020828403121561110b57600080fd5b600061111984828501611052565b91505092915050565b6000806040838503121561113557600080fd5b6000611143858286016110bb565b925050602083013567ffffffffffffffff81111561116057600080fd5b61116c85828601611067565b9150509250929050565b60008060006060848603121561118b57600080fd5b6000611199868287016110bb565b935050602084013567ffffffffffffffff8111156111b657600080fd5b6111c286828701611067565b92505060406111d386828701611052565b9150509250925092565b6111e68161176c565b82525050565b6111f58161171a565b82525050565b6112048161172c565b82525050565b61121381611738565b82525050565b6000611224826116e1565b61122e81856116ec565b935061123e8185602086016117b1565b611247816117ee565b840191505092915050565b600061125d826116e1565b61126781856116fd565b93506112778185602086016117b1565b80840191505092915050565b60006112906013836116ec565b91507f4861736820646f6573206e6f74206d61746368000000000000000000000000006000830152602082019050919050565b60006112d0601b836116ec565b91507f5468697320706572736f6e206973206e6f7420612062696464657200000000006000830152602082019050919050565b60006113106019836116ec565b91507f41756374696f6e2068617320416c726561647920456e646564000000000000006000830152602082019050919050565b60006113506009836116ec565b91507f546f6f204561726c7900000000000000000000000000000000000000000000006000830152602082019050919050565b60006113906008836116ec565b91507f546f6f204c6174650000000000000000000000000000000000000000000000006000830152602082019050919050565b60006113d06016836116ec565b91507f42656e65666963696172792063616e6e6f7420626964000000000000000000006000830152602082019050919050565b6000611410601f836116ec565b91507f42696464657220416c726561647920706c6163656420746865697220626964006000830152602082019050919050565b61144c81611762565b82525050565b61146361145e82611762565b6117e4565b82525050565b60006114758285611452565b6020820191506114858284611252565b91508190509392505050565b60006020820190506114a660008301846111ec565b92915050565b60006040820190506114c160008301856111dd565b6114ce602083018461120a565b9392505050565b60006040820190506114ea60008301856111dd565b6114f76020830184611443565b9392505050565b600060208201905061151360008301846111fb565b92915050565b600060208201905061152e600083018461120a565b92915050565b6000604082019050611549600083018561120a565b6115566020830184611443565b9392505050565b6000602082019050818103600083015261157681611283565b9050919050565b60006020820190508181036000830152611596816112c3565b9050919050565b600060208201905081810360008301526115b681611303565b9050919050565b600060208201905081810360008301526115d681611343565b9050919050565b600060208201905081810360008301526115f681611383565b9050919050565b60006020820190508181036000830152611616816113c3565b9050919050565b6000602082019050818103600083015261163681611403565b9050919050565b60006020820190506116526000830184611443565b92915050565b600060408201905061166d6000830185611443565b818103602083015261167f8184611219565b90509392505050565b6000604051905081810181811067ffffffffffffffff821117156116ab57600080fd5b8060405250919050565b600067ffffffffffffffff8211156116cc57600080fd5b601f19601f8301169050602081019050919050565b600081519050919050565b600082825260208201905092915050565b600081905092915050565b600061171382611742565b9050919050565b600061172582611742565b9050919050565b60008115159050919050565b6000819050919050565b600073ffffffffffffffffffffffffffffffffffffffff82169050919050565b6000819050919050565b60006117778261177e565b9050919050565b600061178982611790565b9050919050565b600061179b82611742565b9050919050565b82818337600083830152505050565b60005b838110156117cf5780820151818401526020810190506117b4565b838111156117de576000848401525b50505050565b6000819050919050565b6000601f19601f8301169050919050565b61180881611708565b811461181357600080fd5b50565b61181f81611738565b811461182a57600080fd5b50565b61183681611762565b811461184157600080fd5b5056fea365627a7a72315820ed2bc5bf95b3f4d31fc9e9cb8245b3c80779e0b4f37bd458637ba69e8533dda06c6578706572696d656e74616cf564736f6c63430005100040",
  "source": "/// SPDX-License-Identifier: MIT\npragma solidity >=0.4.22 <0.9.0;\npragma experimental ABIEncoderV2;\n\n/// @title The contract for buying and selling items on a market\ncontract VikreyAuction2 {\n    address payable public beneficiary;\n    address payable public winner;\n    uint256 listing_id;\n    uint256 public biddingEnd;\n    uint256 public revealEnd;\n    uint256 public highestBid;\n    uint256 public secondHighestBid;\n    bool public ended;\n\n    struct Bid {\n        bytes32 bidHash;\n        uint256 deposit;\n    }\n\n    mapping(address => Bid) public bids;\n    mapping(address => bool) public bidAlready;\n    mapping(address => uint256) pendingReturns;\n\n    event AuctionEnded(address winner, uint256 secondHighestBid);\n    event BidForItem(address bidder, uint256 deposit);\n    event BidRevealFailed(address bidder, bytes32 bidHash);\n    event ValidBidRevealed(address bidder, uint256 value);\n    event InvalidBidRevealed(address bidder, uint256 value);\n    event BidderWithdrawn(address bidder, uint256 value);\n\n    // error TooEarly(uint256 time);\n    // error TooLate(uint256 time);\n    // error AuctionAlreadyEnded();\n    // error AlreadyBid(address bidder);\n\n    modifier beforeTime(uint256 time) {\n        // if (block.timestamp >= time) {\n        //     revert TooLate(time);\n        // }\n        require(block.timestamp < time, \"Too Late\");\n        _;\n    }\n    modifier afterTime(uint256 time) {\n        require(block.timestamp > time, \"Too Early\");\n        _;\n    }\n    modifier newBidder() {\n        require(!bidAlready[msg.sender], \"Bidder Already placed their bid\");\n        _;\n    }\n    modifier validBidder() {\n        require(msg.sender != beneficiary, \"Beneficiary cannot bid\");\n        _;\n    }\n\n    constructor(\n        uint256 _listing_id,\n        uint256 bidding_time,\n        uint256 reveal_time,\n        address payable _beneficiary\n    ) public {\n        listing_id = _listing_id;\n        biddingEnd = block.timestamp + bidding_time;\n        revealEnd = biddingEnd + reveal_time;\n        beneficiary = _beneficiary;\n    }\n\n    function bid(bytes32 bid_hash)\n        public\n        payable\n        beforeTime(biddingEnd)\n        newBidder\n        validBidder\n    {\n        bids[msg.sender] = Bid(bid_hash, msg.value);\n        bidAlready[msg.sender] = true;\n        emit BidForItem(msg.sender, msg.value);\n    }\n\n    function validReveal(\n        address bidder,\n        uint256 value,\n        string memory secret\n    ) internal view returns (bool isValid) {\n        if (bids[bidder].bidHash == keccak256(abi.encode(value, secret))) {\n            return true;\n        }\n        return false;\n    }\n\n    function showHash(uint256 value, string memory secret)\n        public\n        pure\n        returns (bytes32 H)\n    {\n        return keccak256(abi.encode(value, secret));\n    }\n\n    function checkHash(\n        uint256 value,\n        string memory secret,\n        bytes32 H\n    ) public pure {\n        require(\n            keccak256(abi.encodePacked(value, secret)) == H,\n            \"Hash does not match\"\n        );\n    }\n\n    function placeBid(address payable bidder, uint256 value)\n        internal\n        returns (bool success)\n    {\n        if (value <= highestBid) {\n            return false;\n        }\n        if (winner == address(0)) {\n            highestBid = value;\n            secondHighestBid = value;\n        } else {\n            pendingReturns[winner] += secondHighestBid;\n            secondHighestBid = highestBid;\n            highestBid = value;\n        }\n        winner = bidder;\n        return true;\n    }\n\n    function reveal(uint256 value, string memory secret)\n        public\n        afterTime(biddingEnd)\n        beforeTime(revealEnd)\n    {\n        require(bidAlready[msg.sender], \"This person is not a bidder\");\n        if (validReveal(msg.sender, value, secret)) {\n            emit ValidBidRevealed(msg.sender, value);\n            address payable payable_sender = msg.sender;\n            if (bids[msg.sender].deposit >= value) {\n                if (placeBid(payable_sender, value)) {\n                    payable_sender.transfer(\n                        bids[msg.sender].deposit - secondHighestBid\n                    );\n                } else {\n                    payable_sender.transfer(bids[msg.sender].deposit);\n                }\n            } else {\n                emit InvalidBidRevealed(msg.sender, value);\n                payable_sender.transfer(bids[msg.sender].deposit);\n            }\n        } else {\n            emit BidRevealFailed(msg.sender, bids[msg.sender].bidHash);\n        }\n    }\n\n    function withdraw() public {\n        emit BidderWithdrawn(msg.sender, pendingReturns[msg.sender]);\n        if (pendingReturns[msg.sender] > 0) {\n            uint256 value = pendingReturns[msg.sender];\n            pendingReturns[msg.sender] = 0;\n            address payable payable_sender = msg.sender;\n            payable_sender.transfer(value);\n        }\n    }\n\n    function endAuction() public afterTime(revealEnd) {\n        require(!ended, \"Auction has Already Ended\");\n        emit AuctionEnded(winner, secondHighestBid);\n        ended = true;\n        beneficiary.transfer(secondHighestBid);\n    }\n}\n",
  "sourcePath": "/home/rutvij/programming/Assignments/DTBC/Block-Chain-Collab/Assignments/2/contracts/VikreyAuction2.sol",
  "compiler": {
    "name": "solc",
    "version": "0.5.16+commit.9c3226ce.Emscripten.clang"
  },
  "schemaVersion": "3.4.3",
  "updatedAt": "2021-10-11T13:39:55.052Z",
  "devdoc": {
    "methods": {},
    "title": "The contract for buying and selling items on a market"
  },
  "userdoc": {
    "methods": {}
  }
}